{
  "abi": [
    {
      "inputs": [
        {
          "internalType": "contract IERC20",
          "name": "_address",
          "type": "address"
        }
      ],
      "stateMutability": "nonpayable",
      "type": "constructor"
    },
    {
      "anonymous": false,
      "inputs": [
        {
          "indexed": false,
          "internalType": "uint256",
          "name": "roomId",
          "type": "uint256"
        },
        {
          "indexed": false,
          "internalType": "address",
          "name": "voter",
          "type": "address"
        }
      ],
      "name": "NotEnoughToken",
      "type": "event"
    },
    {
      "anonymous": false,
      "inputs": [
        {
          "indexed": false,
          "internalType": "uint256",
          "name": "roomId",
          "type": "uint256"
        },
        {
          "indexed": false,
          "internalType": "address",
          "name": "voter",
          "type": "address"
        }
      ],
      "name": "VoteCast",
      "type": "event"
    },
    {
      "anonymous": false,
      "inputs": [
        {
          "indexed": false,
          "internalType": "uint256",
          "name": "roomId",
          "type": "uint256"
        },
        {
          "indexed": false,
          "internalType": "bytes",
          "name": "publicKey",
          "type": "bytes"
        },
        {
          "indexed": false,
          "internalType": "bool",
          "name": "passed",
          "type": "bool"
        },
        {
          "indexed": false,
          "internalType": "enum VotingContract.VoteType",
          "name": "voteType",
          "type": "uint8"
        }
      ],
      "name": "VotingRoomFinalized",
      "type": "event"
    },
    {
      "anonymous": false,
      "inputs": [
        {
          "indexed": false,
          "internalType": "uint256",
          "name": "roomId",
          "type": "uint256"
        },
        {
          "indexed": false,
          "internalType": "bytes",
          "name": "publicKey",
          "type": "bytes"
        }
      ],
      "name": "VotingRoomStarted",
      "type": "event"
    },
    {
      "inputs": [
        {
          "internalType": "uint256",
          "name": "",
          "type": "uint256"
        }
      ],
      "name": "activeVotingRooms",
      "outputs": [
        {
          "internalType": "uint256",
          "name": "",
          "type": "uint256"
        }
      ],
      "stateMutability": "view",
      "type": "function"
    },
    {
      "inputs": [
        {
          "components": [
            {
              "internalType": "address",
              "name": "voter",
              "type": "address"
            },
            {
              "internalType": "uint256",
              "name": "roomIdAndType",
              "type": "uint256"
            },
            {
              "internalType": "uint256",
              "name": "sntAmount",
              "type": "uint256"
            },
            {
              "internalType": "bytes32",
              "name": "r",
              "type": "bytes32"
            },
            {
              "internalType": "bytes32",
              "name": "vs",
              "type": "bytes32"
            }
          ],
          "internalType": "struct VotingContract.SignedVote[]",
          "name": "votes",
          "type": "tuple[]"
        }
      ],
      "name": "castVotes",
      "outputs": [],
      "stateMutability": "nonpayable",
      "type": "function"
    },
    {
      "inputs": [],
      "name": "directory",
      "outputs": [
        {
          "internalType": "contract Directory",
          "name": "",
          "type": "address"
        }
      ],
      "stateMutability": "view",
      "type": "function"
    },
    {
      "inputs": [
        {
          "internalType": "uint256",
          "name": "roomId",
          "type": "uint256"
        }
      ],
      "name": "finalizeVotingRoom",
      "outputs": [],
      "stateMutability": "nonpayable",
      "type": "function"
    },
    {
      "inputs": [],
      "name": "getActiveVotingRooms",
      "outputs": [
        {
          "internalType": "uint256[]",
          "name": "",
          "type": "uint256[]"
        }
      ],
      "stateMutability": "view",
      "type": "function"
    },
    {
      "inputs": [
        {
          "internalType": "bytes",
          "name": "publicKey",
          "type": "bytes"
        }
      ],
      "name": "getCommunityVoting",
      "outputs": [
        {
          "components": [
            {
              "internalType": "uint256",
              "name": "startBlock",
              "type": "uint256"
            },
            {
              "internalType": "uint256",
              "name": "endAt",
              "type": "uint256"
            },
            {
              "internalType": "enum VotingContract.VoteType",
              "name": "voteType",
              "type": "uint8"
            },
            {
              "internalType": "bool",
              "name": "finalized",
              "type": "bool"
            },
            {
              "internalType": "bytes",
              "name": "community",
              "type": "bytes"
            },
            {
              "internalType": "uint256",
              "name": "totalVotesFor",
              "type": "uint256"
            },
            {
              "internalType": "uint256",
              "name": "totalVotesAgainst",
              "type": "uint256"
            },
            {
              "internalType": "uint256",
              "name": "roomNumber",
              "type": "uint256"
            },
            {
              "internalType": "address[]",
              "name": "voters",
              "type": "address[]"
            }
          ],
          "internalType": "struct VotingContract.VotingRoom",
          "name": "",
          "type": "tuple"
        }
      ],
      "stateMutability": "view",
      "type": "function"
    },
    {
      "inputs": [
        {
          "internalType": "enum VotingContract.VoteType",
          "name": "voteType",
          "type": "uint8"
        },
        {
          "internalType": "bytes",
          "name": "publicKey",
          "type": "bytes"
        },
        {
          "internalType": "uint256",
          "name": "voteAmount",
          "type": "uint256"
        }
      ],
      "name": "initializeVotingRoom",
      "outputs": [],
      "stateMutability": "nonpayable",
      "type": "function"
    },
    {
      "inputs": [
        {
          "internalType": "uint256",
          "name": "roomId",
          "type": "uint256"
        }
      ],
      "name": "listRoomVoters",
      "outputs": [
        {
          "internalType": "address[]",
          "name": "",
          "type": "address[]"
        }
      ],
      "stateMutability": "view",
      "type": "function"
    },
    {
      "inputs": [],
      "name": "owner",
      "outputs": [
        {
          "internalType": "address",
          "name": "",
          "type": "address"
        }
      ],
      "stateMutability": "view",
      "type": "function"
    },
    {
      "inputs": [
        {
          "internalType": "contract Directory",
          "name": "_address",
          "type": "address"
        }
      ],
      "name": "setDirectory",
      "outputs": [],
      "stateMutability": "nonpayable",
      "type": "function"
    },
    {
      "inputs": [],
      "name": "token",
      "outputs": [
        {
          "internalType": "contract IERC20",
          "name": "",
          "type": "address"
        }
      ],
      "stateMutability": "view",
      "type": "function"
    },
    {
      "inputs": [
        {
          "internalType": "uint256",
          "name": "",
          "type": "uint256"
        }
      ],
      "name": "votingRooms",
      "outputs": [
        {
          "internalType": "uint256",
          "name": "startBlock",
          "type": "uint256"
        },
        {
          "internalType": "uint256",
          "name": "endAt",
          "type": "uint256"
        },
        {
          "internalType": "enum VotingContract.VoteType",
          "name": "voteType",
          "type": "uint8"
        },
        {
          "internalType": "bool",
          "name": "finalized",
          "type": "bool"
        },
        {
          "internalType": "bytes",
          "name": "community",
          "type": "bytes"
        },
        {
          "internalType": "uint256",
          "name": "totalVotesFor",
          "type": "uint256"
        },
        {
          "internalType": "uint256",
          "name": "totalVotesAgainst",
          "type": "uint256"
        },
        {
          "internalType": "uint256",
          "name": "roomNumber",
          "type": "uint256"
        }
      ],
      "stateMutability": "view",
      "type": "function"
    }
  ],
  "evm": {
    "bytecode": {
      "linkReferences": {},
      "object": "60806040523480156200001157600080fd5b506040516200389038038062003890833981810160405281019062000037919062000375565b336000806101000a81548173ffffffffffffffffffffffffffffffffffffffff021916908373ffffffffffffffffffffffffffffffffffffffff16021790555080600260006101000a81548173ffffffffffffffffffffffffffffffffffffffff021916908373ffffffffffffffffffffffffffffffffffffffff160217905550620000c2620001bc565b6003819080600181540180825580915050600190039060005260206000209060080201600090919091909150600082015181600001556020820151816001015560408201518160020160006101000a81548160ff0219169083600181111562000130576200012f62000425565b5b021790555060608201518160020160016101000a81548160ff0219169083151502179055506080820151816003019080519060200190620001739291906200021f565b5060a0820151816004015560c0820151816005015560e08201518160060155610100820151816007019080519060200190620001b1929190620002b0565b5050505050620004a2565b604051806101200160405280600081526020016000815260200160006001811115620001ed57620001ec62000425565b5b815260200160001515815260200160608152602001600081526020016000815260200160008152602001606081525090565b8280546200022d90620003ef565b90600052602060002090601f0160209004810192826200025157600085556200029d565b82601f106200026c57805160ff19168380011785556200029d565b828001600101855582156200029d579182015b828111156200029c5782518255916020019190600101906200027f565b5b509050620002ac91906200033f565b5090565b8280548282559060005260206000209081019282156200032c579160200282015b828111156200032b5782518260006101000a81548173ffffffffffffffffffffffffffffffffffffffff021916908373ffffffffffffffffffffffffffffffffffffffff16021790555091602001919060010190620002d1565b5b5090506200033b91906200033f565b5090565b5b808211156200035a57600081600090555060010162000340565b5090565b6000815190506200036f8162000488565b92915050565b6000602082840312156200038e576200038d62000483565b5b60006200039e848285016200035e565b91505092915050565b6000620003b482620003cf565b9050919050565b6000620003c882620003a7565b9050919050565b600073ffffffffffffffffffffffffffffffffffffffff82169050919050565b600060028204905060018216806200040857607f821691505b602082108114156200041f576200041e62000454565b5b50919050565b7f4e487b7100000000000000000000000000000000000000000000000000000000600052602160045260246000fd5b7f4e487b7100000000000000000000000000000000000000000000000000000000600052602260045260246000fd5b600080fd5b6200049381620003bb565b81146200049f57600080fd5b50565b6133de80620004b26000396000f3fe608060405234801561001057600080fd5b50600436106100b45760003560e01c8063c41c2f2411610071578063c41c2f24146101a8578063d810fabe146101c6578063da6d4a3d146101e2578063daf1612b146101fe578063ef28a32b1461022e578063fc0c546a1461024a576100b4565b80636e91818a146100b9578063730d0108146100d55780638da5cb5b1461010c57806398e0aeeb1461012a5780639cb974361461015a578063c1cde92c1461018a575b600080fd5b6100d360048036038101906100ce919061208c565b610268565b005b6100ef60048036038101906100ea919061212d565b61033a565b604051610103989796959493929190612ba3565b60405180910390f35b610114610434565b60405161012191906127d6565b60405180910390f35b610144600480360381019061013f919061212d565b610458565b6040516101519190612ae1565b60405180910390f35b610174600480360381019061016f919061203f565b61047c565b6040516101819190612abf565b60405180910390f35b610192610682565b60405161019f9190612813565b60405180910390f35b6101b06106da565b6040516101bd91906128e9565b60405180910390f35b6101e060048036038101906101db919061212d565b610700565b005b6101fc60048036038101906101f791906120b9565b610d26565b005b6102186004803603810190610213919061212d565b61142d565b60405161022591906127f1565b60405180910390f35b61024860048036038101906102439190611fc5565b6114e0565b005b610252611a21565b60405161025f9190612904565b60405180910390f35b60008054906101000a900473ffffffffffffffffffffffffffffffffffffffff1673ffffffffffffffffffffffffffffffffffffffff163373ffffffffffffffffffffffffffffffffffffffff16146102f6576040517f08c379a00000000000000000000000000000000000000000000000000000000081526004016102ed90612a7f565b60405180910390fd5b80600160006101000a81548173ffffffffffffffffffffffffffffffffffffffff021916908373ffffffffffffffffffffffffffffffffffffffff16021790555050565b6003818154811061034a57600080fd5b90600052602060002090600802016000915090508060000154908060010154908060020160009054906101000a900460ff16908060020160019054906101000a900460ff169080600301805461039f90612ed3565b80601f01602080910402602001604051908101604052809291908181526020018280546103cb90612ed3565b80156104185780601f106103ed57610100808354040283529160200191610418565b820191906000526020600020905b8154815290600101906020018083116103fb57829003601f168201915b5050505050908060040154908060050154908060060154905088565b60008054906101000a900473ffffffffffffffffffffffffffffffffffffffff1681565b6006818154811061046857600080fd5b906000526020600020016000915090505481565b610484611ce1565b60036004848460405161049892919061275e565b908152602001604051809103902054815481106104b8576104b7613038565b5b90600052602060002090600802016040518061012001604052908160008201548152602001600182015481526020016002820160009054906101000a900460ff16600181111561050b5761050a612fab565b5b600181111561051d5761051c612fab565b5b81526020016002820160019054906101000a900460ff1615151515815260200160038201805461054c90612ed3565b80601f016020809104026020016040519081016040528092919081815260200182805461057890612ed3565b80156105c55780601f1061059a576101008083540402835291602001916105c5565b820191906000526020600020905b8154815290600101906020018083116105a857829003601f168201915b505050505081526020016004820154815260200160058201548152602001600682015481526020016007820180548060200260200160405190810160405280929190818152602001828054801561067157602002820191906000526020600020905b8160009054906101000a900473ffffffffffffffffffffffffffffffffffffffff1673ffffffffffffffffffffffffffffffffffffffff1681526020019060010190808311610627575b505050505081525050905092915050565b606060068054806020026020016040519081016040528092919081815260200182805480156106d057602002820191906000526020600020905b8154815260200190600101908083116106bc575b5050505050905090565b600160009054906101000a900473ffffffffffffffffffffffffffffffffffffffff1681565b60008111610743576040517f08c379a000000000000000000000000000000000000000000000000000000000815260040161073a90612a5f565b60405180910390fd5b600380549050811061078a576040517f08c379a000000000000000000000000000000000000000000000000000000000815260040161078190612a5f565b60405180910390fd5b60001515600382815481106107a2576107a1613038565b5b906000526020600020906008020160020160019054906101000a900460ff16151514610803576040517f08c379a00000000000000000000000000000000000000000000000000000000081526004016107fa9061297f565b60405180910390fd5b426003828154811061081857610817613038565b5b9060005260206000209060080201600101541061086a576040517f08c379a000000000000000000000000000000000000000000000000000000000815260040161086190612a3f565b60405180910390fd5b6001600382815481106108805761087f613038565b5b906000526020600020906008020160020160016101000a81548160ff0219169083151502179055506000600382815481106108be576108bd613038565b5b906000526020600020906008020160030180546108da90612ed3565b80601f016020809104026020016040519081016040528092919081815260200182805461090690612ed3565b80156109535780601f1061092857610100808354040283529160200191610953565b820191906000526020600020905b81548152906001019060200180831161093657829003601f168201915b50505050509050600060048260405161096c9190612777565b90815260200160405180910390208190555060006007600084815260200190815260200160002054905060008114156109a6575050610d23565b80806109b190612ea9565b91505060016006805490501115610a5757600660016006805490506109d69190612d55565b815481106109e7576109e6613038565b5b906000526020600020015460068281548110610a0657610a05613038565b5b9060005260206000200181905550600181610a219190612cff565b6007600060068481548110610a3957610a38613038565b5b90600052602060002001548152602001908152602001600020819055505b6006805480610a6957610a68613009565b5b60019003818190600052602060002001600090559055600060038481548110610a9557610a94613038565b5b90600052602060002090600802016005015460038581548110610abb57610aba613038565b5b9060005260206000209060080201600401541190508015610cb057600180811115610ae957610ae8612fab565b5b60038581548110610afd57610afc613038565b5b906000526020600020906008020160020160009054906101000a900460ff166001811115610b2e57610b2d612fab565b5b1415610bc257600160009054906101000a900473ffffffffffffffffffffffffffffffffffffffff1673ffffffffffffffffffffffffffffffffffffffff166374837935846040518263ffffffff1660e01b8152600401610b8f91906128c7565b600060405180830381600087803b158015610ba957600080fd5b505af1158015610bbd573d6000803e3d6000fd5b505050505b60006001811115610bd657610bd5612fab565b5b60038581548110610bea57610be9613038565b5b906000526020600020906008020160020160009054906101000a900460ff166001811115610c1b57610c1a612fab565b5b1415610caf57600160009054906101000a900473ffffffffffffffffffffffffffffffffffffffff1673ffffffffffffffffffffffffffffffffffffffff16633c01b93c846040518263ffffffff1660e01b8152600401610c7c91906128c7565b600060405180830381600087803b158015610c9657600080fd5b505af1158015610caa573d6000803e3d6000fd5b505050505b5b7f2ee1d50dd7d7f4ca1cd35dba9bde18b024b24f448a26c1c8846fe7b8bb450d1d84848360038881548110610ce857610ce7613038565b5b906000526020600020906008020160020160009054906101000a900460ff16604051610d179493929190612b57565b60405180910390a15050505b50565b600060048484604051610d3a92919061275e565b90815260200160405180910390205414610d89576040517f08c379a0000000000000000000000000000000000000000000000000000000008152600401610d809061299f565b60405180910390fd5b60006001811115610d9d57610d9c612fab565b5b846001811115610db057610daf612fab565b5b1415610ea357600160009054906101000a900473ffffffffffffffffffffffffffffffffffffffff1673ffffffffffffffffffffffffffffffffffffffff1663b3dbb52a84846040518363ffffffff1660e01b8152600401610e139291906128a3565b60206040518083038186803b158015610e2b57600080fd5b505afa158015610e3f573d6000803e3d6000fd5b505050506040513d601f19601f82011682018060405250810190610e639190612012565b610ea2576040517f08c379a0000000000000000000000000000000000000000000000000000000008152600401610e999061295f565b60405180910390fd5b5b600180811115610eb657610eb5612fab565b5b846001811115610ec957610ec8612fab565b5b1415610fbd57600160009054906101000a900473ffffffffffffffffffffffffffffffffffffffff1673ffffffffffffffffffffffffffffffffffffffff1663b3dbb52a84846040518363ffffffff1660e01b8152600401610f2c9291906128a3565b60206040518083038186803b158015610f4457600080fd5b505afa158015610f58573d6000803e3d6000fd5b505050506040513d601f19601f82011682018060405250810190610f7c9190612012565b15610fbc576040517f08c379a0000000000000000000000000000000000000000000000000000000008152600401610fb390612a9f565b60405180910390fd5b5b80600260009054906101000a900473ffffffffffffffffffffffffffffffffffffffff1673ffffffffffffffffffffffffffffffffffffffff166370a08231336040518263ffffffff1660e01b815260040161101991906127d6565b60206040518083038186803b15801561103157600080fd5b505afa158015611045573d6000803e3d6000fd5b505050506040513d601f19601f82011682018060405250810190611069919061215a565b10156110aa576040517f08c379a00000000000000000000000000000000000000000000000000000000081526004016110a1906129bf565b60405180910390fd5b600380549050600484846040516110c292919061275e565b908152602001604051809103902081905550600660038054905090806001815401808255809150506001900390600052602060002001600090919091909150556006805490506007600060038054905081526020019081526020016000208190555061112c611ce1565b4381600001818152505061114b6103e842611a4790919063ffffffff16565b816020018181525050848160400190600181111561116c5761116b612fab565b5b908160018111156111805761117f612fab565b5b8152505083838080601f016020809104026020016040519081016040528093929190818152602001838380828437600081840152601f19601f8201169050808301925050505050505081608001819052506003805490508160e0018181525050818160a0018181525050600160056000600380549050815260200190815260200160002060003373ffffffffffffffffffffffffffffffffffffffff1673ffffffffffffffffffffffffffffffffffffffff16815260200190815260200160002060006101000a81548160ff0219169083151502179055506003819080600181540180825580915050600190039060005260206000209060080201600090919091909150600082015181600001556020820151816001015560408201518160020160006101000a81548160ff021916908360018111156112c3576112c2612fab565b5b021790555060608201518160020160016101000a81548160ff0219169083151502179055506080820151816003019080519060200190611304929190611d41565b5060a0820151816004015560c0820151816005015560e08201518160060155610100820151816007019080519060200190611340929190611dc7565b505050600360016003805490506113579190612d55565b8154811061136857611367613038565b5b9060005260206000209060080201600701339080600181540180825580915050600190039060005260206000200160009091909190916101000a81548173ffffffffffffffffffffffffffffffffffffffff021916908373ffffffffffffffffffffffffffffffffffffffff1602179055507f56385c0d76ffcefeb38cb9226cb877000037647d09069d15e94ac4b29ec43587600160038054905061140d9190612d55565b858560405161141e93929190612b25565b60405180910390a15050505050565b60606003828154811061144357611442613038565b5b90600052602060002090600802016007018054806020026020016040519081016040528092919081815260200182805480156114d457602002820191906000526020600020905b8160009054906101000a900473ffffffffffffffffffffffffffffffffffffffff1673ffffffffffffffffffffffffffffffffffffffff168152602001906001019080831161148a575b50505050509050919050565b60005b82829050811015611a1c573683838381811061150257611501613038565b5b905060a002019050600081600001602081019061151f9190611f98565b8260200135836040013560405160200161153b9392919061278e565b6040516020818303038152906040528051906020012090508160000160208101906115669190611f98565b73ffffffffffffffffffffffffffffffffffffffff166115b88360600135846080013560405160200161159a929190612835565b60405160208183030381529060405283611a5d90919063ffffffff16565b73ffffffffffffffffffffffffffffffffffffffff161415611a0757600060018360200135901c905060008111611624576040517f08c379a000000000000000000000000000000000000000000000000000000000815260040161161b90612a5f565b60405180910390fd5b600380549050811061166b576040517f08c379a000000000000000000000000000000000000000000000000000000000815260040161166290612a5f565b60405180910390fd5b60006003828154811061168157611680613038565b5b90600052602060002090600802019050428160010154116116d7576040517f08c379a00000000000000000000000000000000000000000000000000000000081526004016116ce90612a1f565b60405180910390fd5b600015156005600084815260200190815260200160002060008660000160208101906117039190611f98565b73ffffffffffffffffffffffffffffffffffffffff1673ffffffffffffffffffffffffffffffffffffffff16815260200190815260200160002060009054906101000a900460ff1615151415611a04578360400135600260009054906101000a900473ffffffffffffffffffffffffffffffffffffffff1673ffffffffffffffffffffffffffffffffffffffff166370a082318660000160208101906117a99190611f98565b6040518263ffffffff1660e01b81526004016117c591906127d6565b60206040518083038186803b1580156117dd57600080fd5b505afa1580156117f1573d6000803e3d6000fd5b505050506040513d601f19601f82011682018060405250810190611815919061215a565b106119b75760018085602001351614156118515761184484604001358260040154611a4790919063ffffffff16565b8160040181905550611875565b61186c84604001358260050154611a4790919063ffffffff16565b81600501819055505b8060070184600001602081019061188c9190611f98565b9080600181540180825580915050600190039060005260206000200160009091909190916101000a81548173ffffffffffffffffffffffffffffffffffffffff021916908373ffffffffffffffffffffffffffffffffffffffff16021790555060016005600084815260200190815260200160002060008660000160208101906119169190611f98565b73ffffffffffffffffffffffffffffffffffffffff1673ffffffffffffffffffffffffffffffffffffffff16815260200190815260200160002060006101000a81548160ff0219169083151502179055507ff1003b73c437642c0460aee9cd9628b0b8c447b66e6c7c905531b9c644214a118285600001602081019061199c9190611f98565b6040516119aa929190612afc565b60405180910390a1611a03565b7f52de8a8b06ee845dd9537ef3906e0a37d48c140e75f780715ee892f0ee08c052828560000160208101906119ec9190611f98565b6040516119fa929190612afc565b60405180910390a15b5b50505b50508080611a1490612f05565b9150506114e3565b505050565b600260009054906101000a900473ffffffffffffffffffffffffffffffffffffffff1681565b60008183611a559190612cff565b905092915050565b6000604182511415611a9c5760008060006020850151925060408501519150606085015160001a9050611a9286828585611b0c565b9350505050611b06565b604082511415611acb576000806020840151915060408401519050611ac2858383611c97565b92505050611b06565b6040517f08c379a0000000000000000000000000000000000000000000000000000000008152600401611afd9061293f565b60405180910390fd5b92915050565b60007f7fffffffffffffffffffffffffffffff5d576e7357a4501ddfe92f46681b20a08260001c1115611b74576040517f08c379a0000000000000000000000000000000000000000000000000000000008152600401611b6b906129df565b60405180910390fd5b601b8460ff161480611b895750601c8460ff16145b611bc8576040517f08c379a0000000000000000000000000000000000000000000000000000000008152600401611bbf906129ff565b60405180910390fd5b600060018686868660405160008152602001604052604051611bed949392919061285e565b6020604051602081039080840390855afa158015611c0f573d6000803e3d6000fd5b505050602060405103519050600073ffffffffffffffffffffffffffffffffffffffff168173ffffffffffffffffffffffffffffffffffffffff161415611c8b576040517f08c379a0000000000000000000000000000000000000000000000000000000008152600401611c829061291f565b60405180910390fd5b80915050949350505050565b60008060007f7fffffffffffffffffffffffffffffffffffffffffffffffffffffffffffffff84169150601b8460ff1c019050611cd686828785611b0c565b925050509392505050565b604051806101200160405280600081526020016000815260200160006001811115611d0f57611d0e612fab565b5b815260200160001515815260200160608152602001600081526020016000815260200160008152602001606081525090565b828054611d4d90612ed3565b90600052602060002090601f016020900481019282611d6f5760008555611db6565b82601f10611d8857805160ff1916838001178555611db6565b82800160010185558215611db6579182015b82811115611db5578251825591602001919060010190611d9a565b5b509050611dc39190611e51565b5090565b828054828255906000526020600020908101928215611e40579160200282015b82811115611e3f5782518260006101000a81548173ffffffffffffffffffffffffffffffffffffffff021916908373ffffffffffffffffffffffffffffffffffffffff16021790555091602001919060010190611de7565b5b509050611e4d9190611e51565b5090565b5b80821115611e6a576000816000905550600101611e52565b5090565b600081359050611e7d8161333c565b92915050565b60008083601f840112611e9957611e9861306c565b5b8235905067ffffffffffffffff811115611eb657611eb5613067565b5b6020830191508360a0820283011115611ed257611ed1613071565b5b9250929050565b600081519050611ee881613353565b92915050565b60008083601f840112611f0457611f0361306c565b5b8235905067ffffffffffffffff811115611f2157611f20613067565b5b602083019150836001820283011115611f3d57611f3c613071565b5b9250929050565b600081359050611f538161336a565b92915050565b600081359050611f6881613381565b92915050565b600081359050611f7d81613391565b92915050565b600081519050611f9281613391565b92915050565b600060208284031215611fae57611fad61307b565b5b6000611fbc84828501611e6e565b91505092915050565b60008060208385031215611fdc57611fdb61307b565b5b600083013567ffffffffffffffff811115611ffa57611ff9613076565b5b61200685828601611e83565b92509250509250929050565b6000602082840312156120285761202761307b565b5b600061203684828501611ed9565b91505092915050565b600080602083850312156120565761205561307b565b5b600083013567ffffffffffffffff81111561207457612073613076565b5b61208085828601611eee565b92509250509250929050565b6000602082840312156120a2576120a161307b565b5b60006120b084828501611f44565b91505092915050565b600080600080606085870312156120d3576120d261307b565b5b60006120e187828801611f59565b945050602085013567ffffffffffffffff81111561210257612101613076565b5b61210e87828801611eee565b9350935050604061212187828801611f6e565b91505092959194509250565b6000602082840312156121435761214261307b565b5b600061215184828501611f6e565b91505092915050565b6000602082840312156121705761216f61307b565b5b600061217e84828501611f83565b91505092915050565b600061219383836121b7565b60208301905092915050565b60006121ab838361271a565b60208301905092915050565b6121c081612d89565b82525050565b6121cf81612d89565b82525050565b6121e66121e182612d89565b612f4e565b82525050565b60006121f782612c48565b6122018185612c83565b935061220c83612c28565b8060005b8381101561223d5781516122248882612187565b975061222f83612c69565b925050600181019050612210565b5085935050505092915050565b600061225582612c48565b61225f8185612c94565b935061226a83612c28565b8060005b8381101561229b5781516122828882612187565b975061228d83612c69565b92505060018101905061226e565b5085935050505092915050565b60006122b382612c53565b6122bd8185612ca5565b93506122c883612c38565b8060005b838110156122f95781516122e0888261219f565b97506122eb83612c76565b9250506001810190506122cc565b5085935050505092915050565b61230f81612d9b565b82525050565b61231e81612d9b565b82525050565b61232d81612da7565b82525050565b600061233f8385612cc7565b935061234c838584612e67565b61235583613080565b840190509392505050565b600061236c8385612cd8565b9350612379838584612e67565b82840190509392505050565b600061239082612c5e565b61239a8185612cb6565b93506123aa818560208601612e76565b6123b381613080565b840191505092915050565b60006123c982612c5e565b6123d38185612cc7565b93506123e3818560208601612e76565b6123ec81613080565b840191505092915050565b600061240282612c5e565b61240c8185612cd8565b935061241c818560208601612e76565b80840191505092915050565b61243181612e0d565b82525050565b61244081612e31565b82525050565b61244f81612e55565b82525050565b61245e81612e55565b82525050565b6000612471601883612ce3565b915061247c8261309e565b602082019050919050565b6000612494601f83612ce3565b915061249f826130c7565b602082019050919050565b60006124b7601a83612ce3565b91506124c2826130f0565b602082019050919050565b60006124da601683612ce3565b91506124e582613119565b602082019050919050565b60006124fd601483612ce3565b915061250882613142565b602082019050919050565b6000612520601083612ce3565b915061252b8261316b565b602082019050919050565b6000612543602283612ce3565b915061254e82613194565b604082019050919050565b6000612566602283612ce3565b9150612571826131e3565b604082019050919050565b6000612589600b83612ce3565b915061259482613232565b602082019050919050565b60006125ac601283612ce3565b91506125b78261325b565b602082019050919050565b60006125cf600e83612ce3565b91506125da82613284565b602082019050919050565b60006125f2601c83612cf4565b91506125fd826132ad565b601c82019050919050565b6000612615600983612ce3565b9150612620826132d6565b602082019050919050565b6000612638601e83612ce3565b9150612643826132ff565b602082019050919050565b600061012083016000830151612667600086018261271a565b50602083015161267a602086018261271a565b50604083015161268d6040860182612446565b5060608301516126a06060860182612306565b50608083015184820360808601526126b88282612385565b91505060a08301516126cd60a086018261271a565b5060c08301516126e060c086018261271a565b5060e08301516126f360e086018261271a565b5061010083015184820361010086015261270d82826121ec565b9150508091505092915050565b61272381612df6565b82525050565b61273281612df6565b82525050565b61274961274482612df6565b612f72565b82525050565b61275881612e00565b82525050565b600061276b828486612360565b91508190509392505050565b600061278382846123f7565b915081905092915050565b6000612799826125e5565b91506127a582866121d5565b6014820191506127b58285612738565b6020820191506127c58284612738565b602082019150819050949350505050565b60006020820190506127eb60008301846121c6565b92915050565b6000602082019050818103600083015261280b818461224a565b905092915050565b6000602082019050818103600083015261282d81846122a8565b905092915050565b600060408201905061284a6000830185612324565b6128576020830184612324565b9392505050565b60006080820190506128736000830187612324565b612880602083018661274f565b61288d6040830185612324565b61289a6060830184612324565b95945050505050565b600060208201905081810360008301526128be818486612333565b90509392505050565b600060208201905081810360008301526128e181846123be565b905092915050565b60006020820190506128fe6000830184612428565b92915050565b60006020820190506129196000830184612437565b92915050565b6000602082019050818103600083015261293881612464565b9050919050565b6000602082019050818103600083015261295881612487565b9050919050565b60006020820190508181036000830152612978816124aa565b9050919050565b60006020820190508181036000830152612998816124cd565b9050919050565b600060208201905081810360008301526129b8816124f0565b9050919050565b600060208201905081810360008301526129d881612513565b9050919050565b600060208201905081810360008301526129f881612536565b9050919050565b60006020820190508181036000830152612a1881612559565b9050919050565b60006020820190508181036000830152612a388161257c565b9050919050565b60006020820190508181036000830152612a588161259f565b9050919050565b60006020820190508181036000830152612a78816125c2565b9050919050565b60006020820190508181036000830152612a9881612608565b9050919050565b60006020820190508181036000830152612ab88161262b565b9050919050565b60006020820190508181036000830152612ad9818461264e565b905092915050565b6000602082019050612af66000830184612729565b92915050565b6000604082019050612b116000830185612729565b612b1e60208301846121c6565b9392505050565b6000604082019050612b3a6000830186612729565b8181036020830152612b4d818486612333565b9050949350505050565b6000608082019050612b6c6000830187612729565b8181036020830152612b7e81866123be565b9050612b8d6040830185612315565b612b9a6060830184612455565b95945050505050565b600061010082019050612bb9600083018b612729565b612bc6602083018a612729565b612bd36040830189612455565b612be06060830188612315565b8181036080830152612bf281876123be565b9050612c0160a0830186612729565b612c0e60c0830185612729565b612c1b60e0830184612729565b9998505050505050505050565b6000819050602082019050919050565b6000819050602082019050919050565b600081519050919050565b600081519050919050565b600081519050919050565b6000602082019050919050565b6000602082019050919050565b600082825260208201905092915050565b600082825260208201905092915050565b600082825260208201905092915050565b600082825260208201905092915050565b600082825260208201905092915050565b600081905092915050565b600082825260208201905092915050565b600081905092915050565b6000612d0a82612df6565b9150612d1583612df6565b9250827fffffffffffffffffffffffffffffffffffffffffffffffffffffffffffffffff03821115612d4a57612d49612f7c565b5b828201905092915050565b6000612d6082612df6565b9150612d6b83612df6565b925082821015612d7e57612d7d612f7c565b5b828203905092915050565b6000612d9482612dd6565b9050919050565b60008115159050919050565b6000819050919050565b6000612dbc82612d89565b9050919050565b6000819050612dd182613328565b919050565b600073ffffffffffffffffffffffffffffffffffffffff82169050919050565b6000819050919050565b600060ff82169050919050565b6000612e1882612e1f565b9050919050565b6000612e2a82612dd6565b9050919050565b6000612e3c82612e43565b9050919050565b6000612e4e82612dd6565b9050919050565b6000612e6082612dc3565b9050919050565b82818337600083830152505050565b60005b83811015612e94578082015181840152602081019050612e79565b83811115612ea3576000848401525b50505050565b6000612eb482612df6565b91506000821415612ec857612ec7612f7c565b5b600182039050919050565b60006002820490506001821680612eeb57607f821691505b60208210811415612eff57612efe612fda565b5b50919050565b6000612f1082612df6565b91507fffffffffffffffffffffffffffffffffffffffffffffffffffffffffffffffff821415612f4357612f42612f7c565b5b600182019050919050565b6000612f5982612f60565b9050919050565b6000612f6b82613091565b9050919050565b6000819050919050565b7f4e487b7100000000000000000000000000000000000000000000000000000000600052601160045260246000fd5b7f4e487b7100000000000000000000000000000000000000000000000000000000600052602160045260246000fd5b7f4e487b7100000000000000000000000000000000000000000000000000000000600052602260045260246000fd5b7f4e487b7100000000000000000000000000000000000000000000000000000000600052603160045260246000fd5b7f4e487b7100000000000000000000000000000000000000000000000000000000600052603260045260246000fd5b600080fd5b600080fd5b600080fd5b600080fd5b600080fd5b6000601f19601f8301169050919050565b60008160601b9050919050565b7f45434453413a20696e76616c6964207369676e61747572650000000000000000600082015250565b7f45434453413a20696e76616c6964207369676e6174757265206c656e67746800600082015250565b7f436f6d6d756e697479206e6f7420696e206469726563746f7279000000000000600082015250565b7f766f746520616c72656164792066696e616c697a656400000000000000000000600082015250565b7f766f746520616c7265616479206f6e676f696e67000000000000000000000000600082015250565b7f6e6f7420656e6f75676820746f6b656e00000000000000000000000000000000600082015250565b7f45434453413a20696e76616c6964207369676e6174757265202773272076616c60008201527f7565000000000000000000000000000000000000000000000000000000000000602082015250565b7f45434453413a20696e76616c6964207369676e6174757265202776272076616c60008201527f7565000000000000000000000000000000000000000000000000000000000000602082015250565b7f766f746520636c6f736564000000000000000000000000000000000000000000600082015250565b7f766f7465207374696c6c206f6e676f696e670000000000000000000000000000600082015250565b7f766f7465206e6f7420666f756e64000000000000000000000000000000000000600082015250565b7f19457468657265756d205369676e6564204d6573736167653a0a383400000000600082015250565b7f4e6f74206f776e65720000000000000000000000000000000000000000000000600082015250565b7f436f6d6d756e69747920616c726561647920696e206469726563746f72790000600082015250565b6002811061333957613338612fab565b5b50565b61334581612d89565b811461335057600080fd5b50565b61335c81612d9b565b811461336757600080fd5b50565b61337381612db1565b811461337e57600080fd5b50565b6002811061338e57600080fd5b50565b61339a81612df6565b81146133a557600080fd5b5056fea264697066735822122044c90b7181fb48babfe0db3d67b86e2738ec6e692f23ed21d39b96fcb57a7b9c64736f6c63430008050033",
      "opcodes": "PUSH1 0x80 PUSH1 0x40 MSTORE CALLVALUE DUP1 ISZERO PUSH3 0x11 JUMPI PUSH1 0x0 DUP1 REVERT JUMPDEST POP PUSH1 0x40 MLOAD PUSH3 0x3890 CODESIZE SUB DUP1 PUSH3 0x3890 DUP4 CODECOPY DUP2 DUP2 ADD PUSH1 0x40 MSTORE DUP2 ADD SWAP1 PUSH3 0x37 SWAP2 SWAP1 PUSH3 0x375 JUMP JUMPDEST CALLER PUSH1 0x0 DUP1 PUSH2 0x100 EXP DUP2 SLOAD DUP2 PUSH20 0xFFFFFFFFFFFFFFFFFFFFFFFFFFFFFFFFFFFFFFFF MUL NOT AND SWAP1 DUP4 PUSH20 0xFFFFFFFFFFFFFFFFFFFFFFFFFFFFFFFFFFFFFFFF AND MUL OR SWAP1 SSTORE POP DUP1 PUSH1 0x2 PUSH1 0x0 PUSH2 0x100 EXP DUP2 SLOAD DUP2 PUSH20 0xFFFFFFFFFFFFFFFFFFFFFFFFFFFFFFFFFFFFFFFF MUL NOT AND SWAP1 DUP4 PUSH20 0xFFFFFFFFFFFFFFFFFFFFFFFFFFFFFFFFFFFFFFFF AND MUL OR SWAP1 SSTORE POP PUSH3 0xC2 PUSH3 0x1BC JUMP JUMPDEST PUSH1 0x3 DUP2 SWAP1 DUP1 PUSH1 0x1 DUP2 SLOAD ADD DUP1 DUP3 SSTORE DUP1 SWAP2 POP POP PUSH1 0x1 SWAP1 SUB SWAP1 PUSH1 0x0 MSTORE PUSH1 0x20 PUSH1 0x0 KECCAK256 SWAP1 PUSH1 0x8 MUL ADD PUSH1 0x0 SWAP1 SWAP2 SWAP1 SWAP2 SWAP1 SWAP2 POP PUSH1 0x0 DUP3 ADD MLOAD DUP2 PUSH1 0x0 ADD SSTORE PUSH1 0x20 DUP3 ADD MLOAD DUP2 PUSH1 0x1 ADD SSTORE PUSH1 0x40 DUP3 ADD MLOAD DUP2 PUSH1 0x2 ADD PUSH1 0x0 PUSH2 0x100 EXP DUP2 SLOAD DUP2 PUSH1 0xFF MUL NOT AND SWAP1 DUP4 PUSH1 0x1 DUP2 GT ISZERO PUSH3 0x130 JUMPI PUSH3 0x12F PUSH3 0x425 JUMP JUMPDEST JUMPDEST MUL OR SWAP1 SSTORE POP PUSH1 0x60 DUP3 ADD MLOAD DUP2 PUSH1 0x2 ADD PUSH1 0x1 PUSH2 0x100 EXP DUP2 SLOAD DUP2 PUSH1 0xFF MUL NOT AND SWAP1 DUP4 ISZERO ISZERO MUL OR SWAP1 SSTORE POP PUSH1 0x80 DUP3 ADD MLOAD DUP2 PUSH1 0x3 ADD SWAP1 DUP1 MLOAD SWAP1 PUSH1 0x20 ADD SWAP1 PUSH3 0x173 SWAP3 SWAP2 SWAP1 PUSH3 0x21F JUMP JUMPDEST POP PUSH1 0xA0 DUP3 ADD MLOAD DUP2 PUSH1 0x4 ADD SSTORE PUSH1 0xC0 DUP3 ADD MLOAD DUP2 PUSH1 0x5 ADD SSTORE PUSH1 0xE0 DUP3 ADD MLOAD DUP2 PUSH1 0x6 ADD SSTORE PUSH2 0x100 DUP3 ADD MLOAD DUP2 PUSH1 0x7 ADD SWAP1 DUP1 MLOAD SWAP1 PUSH1 0x20 ADD SWAP1 PUSH3 0x1B1 SWAP3 SWAP2 SWAP1 PUSH3 0x2B0 JUMP JUMPDEST POP POP POP POP POP PUSH3 0x4A2 JUMP JUMPDEST PUSH1 0x40 MLOAD DUP1 PUSH2 0x120 ADD PUSH1 0x40 MSTORE DUP1 PUSH1 0x0 DUP2 MSTORE PUSH1 0x20 ADD PUSH1 0x0 DUP2 MSTORE PUSH1 0x20 ADD PUSH1 0x0 PUSH1 0x1 DUP2 GT ISZERO PUSH3 0x1ED JUMPI PUSH3 0x1EC PUSH3 0x425 JUMP JUMPDEST JUMPDEST DUP2 MSTORE PUSH1 0x20 ADD PUSH1 0x0 ISZERO ISZERO DUP2 MSTORE PUSH1 0x20 ADD PUSH1 0x60 DUP2 MSTORE PUSH1 0x20 ADD PUSH1 0x0 DUP2 MSTORE PUSH1 0x20 ADD PUSH1 0x0 DUP2 MSTORE PUSH1 0x20 ADD PUSH1 0x0 DUP2 MSTORE PUSH1 0x20 ADD PUSH1 0x60 DUP2 MSTORE POP SWAP1 JUMP JUMPDEST DUP3 DUP1 SLOAD PUSH3 0x22D SWAP1 PUSH3 0x3EF JUMP JUMPDEST SWAP1 PUSH1 0x0 MSTORE PUSH1 0x20 PUSH1 0x0 KECCAK256 SWAP1 PUSH1 0x1F ADD PUSH1 0x20 SWAP1 DIV DUP2 ADD SWAP3 DUP3 PUSH3 0x251 JUMPI PUSH1 0x0 DUP6 SSTORE PUSH3 0x29D JUMP JUMPDEST DUP3 PUSH1 0x1F LT PUSH3 0x26C JUMPI DUP1 MLOAD PUSH1 0xFF NOT AND DUP4 DUP1 ADD OR DUP6 SSTORE PUSH3 0x29D JUMP JUMPDEST DUP3 DUP1 ADD PUSH1 0x1 ADD DUP6 SSTORE DUP3 ISZERO PUSH3 0x29D JUMPI SWAP2 DUP3 ADD JUMPDEST DUP3 DUP2 GT ISZERO PUSH3 0x29C JUMPI DUP3 MLOAD DUP3 SSTORE SWAP2 PUSH1 0x20 ADD SWAP2 SWAP1 PUSH1 0x1 ADD SWAP1 PUSH3 0x27F JUMP JUMPDEST JUMPDEST POP SWAP1 POP PUSH3 0x2AC SWAP2 SWAP1 PUSH3 0x33F JUMP JUMPDEST POP SWAP1 JUMP JUMPDEST DUP3 DUP1 SLOAD DUP3 DUP3 SSTORE SWAP1 PUSH1 0x0 MSTORE PUSH1 0x20 PUSH1 0x0 KECCAK256 SWAP1 DUP2 ADD SWAP3 DUP3 ISZERO PUSH3 0x32C JUMPI SWAP2 PUSH1 0x20 MUL DUP3 ADD JUMPDEST DUP3 DUP2 GT ISZERO PUSH3 0x32B JUMPI DUP3 MLOAD DUP3 PUSH1 0x0 PUSH2 0x100 EXP DUP2 SLOAD DUP2 PUSH20 0xFFFFFFFFFFFFFFFFFFFFFFFFFFFFFFFFFFFFFFFF MUL NOT AND SWAP1 DUP4 PUSH20 0xFFFFFFFFFFFFFFFFFFFFFFFFFFFFFFFFFFFFFFFF AND MUL OR SWAP1 SSTORE POP SWAP2 PUSH1 0x20 ADD SWAP2 SWAP1 PUSH1 0x1 ADD SWAP1 PUSH3 0x2D1 JUMP JUMPDEST JUMPDEST POP SWAP1 POP PUSH3 0x33B SWAP2 SWAP1 PUSH3 0x33F JUMP JUMPDEST POP SWAP1 JUMP JUMPDEST JUMPDEST DUP1 DUP3 GT ISZERO PUSH3 0x35A JUMPI PUSH1 0x0 DUP2 PUSH1 0x0 SWAP1 SSTORE POP PUSH1 0x1 ADD PUSH3 0x340 JUMP JUMPDEST POP SWAP1 JUMP JUMPDEST PUSH1 0x0 DUP2 MLOAD SWAP1 POP PUSH3 0x36F DUP2 PUSH3 0x488 JUMP JUMPDEST SWAP3 SWAP2 POP POP JUMP JUMPDEST PUSH1 0x0 PUSH1 0x20 DUP3 DUP5 SUB SLT ISZERO PUSH3 0x38E JUMPI PUSH3 0x38D PUSH3 0x483 JUMP JUMPDEST JUMPDEST PUSH1 0x0 PUSH3 0x39E DUP5 DUP3 DUP6 ADD PUSH3 0x35E JUMP JUMPDEST SWAP2 POP POP SWAP3 SWAP2 POP POP JUMP JUMPDEST PUSH1 0x0 PUSH3 0x3B4 DUP3 PUSH3 0x3CF JUMP JUMPDEST SWAP1 POP SWAP2 SWAP1 POP JUMP JUMPDEST PUSH1 0x0 PUSH3 0x3C8 DUP3 PUSH3 0x3A7 JUMP JUMPDEST SWAP1 POP SWAP2 SWAP1 POP JUMP JUMPDEST PUSH1 0x0 PUSH20 0xFFFFFFFFFFFFFFFFFFFFFFFFFFFFFFFFFFFFFFFF DUP3 AND SWAP1 POP SWAP2 SWAP1 POP JUMP JUMPDEST PUSH1 0x0 PUSH1 0x2 DUP3 DIV SWAP1 POP PUSH1 0x1 DUP3 AND DUP1 PUSH3 0x408 JUMPI PUSH1 0x7F DUP3 AND SWAP2 POP JUMPDEST PUSH1 0x20 DUP3 LT DUP2 EQ ISZERO PUSH3 0x41F JUMPI PUSH3 0x41E PUSH3 0x454 JUMP JUMPDEST JUMPDEST POP SWAP2 SWAP1 POP JUMP JUMPDEST PUSH32 0x4E487B7100000000000000000000000000000000000000000000000000000000 PUSH1 0x0 MSTORE PUSH1 0x21 PUSH1 0x4 MSTORE PUSH1 0x24 PUSH1 0x0 REVERT JUMPDEST PUSH32 0x4E487B7100000000000000000000000000000000000000000000000000000000 PUSH1 0x0 MSTORE PUSH1 0x22 PUSH1 0x4 MSTORE PUSH1 0x24 PUSH1 0x0 REVERT JUMPDEST PUSH1 0x0 DUP1 REVERT JUMPDEST PUSH3 0x493 DUP2 PUSH3 0x3BB JUMP JUMPDEST DUP2 EQ PUSH3 0x49F JUMPI PUSH1 0x0 DUP1 REVERT JUMPDEST POP JUMP JUMPDEST PUSH2 0x33DE DUP1 PUSH3 0x4B2 PUSH1 0x0 CODECOPY PUSH1 0x0 RETURN INVALID PUSH1 0x80 PUSH1 0x40 MSTORE CALLVALUE DUP1 ISZERO PUSH2 0x10 JUMPI PUSH1 0x0 DUP1 REVERT JUMPDEST POP PUSH1 0x4 CALLDATASIZE LT PUSH2 0xB4 JUMPI PUSH1 0x0 CALLDATALOAD PUSH1 0xE0 SHR DUP1 PUSH4 0xC41C2F24 GT PUSH2 0x71 JUMPI DUP1 PUSH4 0xC41C2F24 EQ PUSH2 0x1A8 JUMPI DUP1 PUSH4 0xD810FABE EQ PUSH2 0x1C6 JUMPI DUP1 PUSH4 0xDA6D4A3D EQ PUSH2 0x1E2 JUMPI DUP1 PUSH4 0xDAF1612B EQ PUSH2 0x1FE JUMPI DUP1 PUSH4 0xEF28A32B EQ PUSH2 0x22E JUMPI DUP1 PUSH4 0xFC0C546A EQ PUSH2 0x24A JUMPI PUSH2 0xB4 JUMP JUMPDEST DUP1 PUSH4 0x6E91818A EQ PUSH2 0xB9 JUMPI DUP1 PUSH4 0x730D0108 EQ PUSH2 0xD5 JUMPI DUP1 PUSH4 0x8DA5CB5B EQ PUSH2 0x10C JUMPI DUP1 PUSH4 0x98E0AEEB EQ PUSH2 0x12A JUMPI DUP1 PUSH4 0x9CB97436 EQ PUSH2 0x15A JUMPI DUP1 PUSH4 0xC1CDE92C EQ PUSH2 0x18A JUMPI JUMPDEST PUSH1 0x0 DUP1 REVERT JUMPDEST PUSH2 0xD3 PUSH1 0x4 DUP1 CALLDATASIZE SUB DUP2 ADD SWAP1 PUSH2 0xCE SWAP2 SWAP1 PUSH2 0x208C JUMP JUMPDEST PUSH2 0x268 JUMP JUMPDEST STOP JUMPDEST PUSH2 0xEF PUSH1 0x4 DUP1 CALLDATASIZE SUB DUP2 ADD SWAP1 PUSH2 0xEA SWAP2 SWAP1 PUSH2 0x212D JUMP JUMPDEST PUSH2 0x33A JUMP JUMPDEST PUSH1 0x40 MLOAD PUSH2 0x103 SWAP9 SWAP8 SWAP7 SWAP6 SWAP5 SWAP4 SWAP3 SWAP2 SWAP1 PUSH2 0x2BA3 JUMP JUMPDEST PUSH1 0x40 MLOAD DUP1 SWAP2 SUB SWAP1 RETURN JUMPDEST PUSH2 0x114 PUSH2 0x434 JUMP JUMPDEST PUSH1 0x40 MLOAD PUSH2 0x121 SWAP2 SWAP1 PUSH2 0x27D6 JUMP JUMPDEST PUSH1 0x40 MLOAD DUP1 SWAP2 SUB SWAP1 RETURN JUMPDEST PUSH2 0x144 PUSH1 0x4 DUP1 CALLDATASIZE SUB DUP2 ADD SWAP1 PUSH2 0x13F SWAP2 SWAP1 PUSH2 0x212D JUMP JUMPDEST PUSH2 0x458 JUMP JUMPDEST PUSH1 0x40 MLOAD PUSH2 0x151 SWAP2 SWAP1 PUSH2 0x2AE1 JUMP JUMPDEST PUSH1 0x40 MLOAD DUP1 SWAP2 SUB SWAP1 RETURN JUMPDEST PUSH2 0x174 PUSH1 0x4 DUP1 CALLDATASIZE SUB DUP2 ADD SWAP1 PUSH2 0x16F SWAP2 SWAP1 PUSH2 0x203F JUMP JUMPDEST PUSH2 0x47C JUMP JUMPDEST PUSH1 0x40 MLOAD PUSH2 0x181 SWAP2 SWAP1 PUSH2 0x2ABF JUMP JUMPDEST PUSH1 0x40 MLOAD DUP1 SWAP2 SUB SWAP1 RETURN JUMPDEST PUSH2 0x192 PUSH2 0x682 JUMP JUMPDEST PUSH1 0x40 MLOAD PUSH2 0x19F SWAP2 SWAP1 PUSH2 0x2813 JUMP JUMPDEST PUSH1 0x40 MLOAD DUP1 SWAP2 SUB SWAP1 RETURN JUMPDEST PUSH2 0x1B0 PUSH2 0x6DA JUMP JUMPDEST PUSH1 0x40 MLOAD PUSH2 0x1BD SWAP2 SWAP1 PUSH2 0x28E9 JUMP JUMPDEST PUSH1 0x40 MLOAD DUP1 SWAP2 SUB SWAP1 RETURN JUMPDEST PUSH2 0x1E0 PUSH1 0x4 DUP1 CALLDATASIZE SUB DUP2 ADD SWAP1 PUSH2 0x1DB SWAP2 SWAP1 PUSH2 0x212D JUMP JUMPDEST PUSH2 0x700 JUMP JUMPDEST STOP JUMPDEST PUSH2 0x1FC PUSH1 0x4 DUP1 CALLDATASIZE SUB DUP2 ADD SWAP1 PUSH2 0x1F7 SWAP2 SWAP1 PUSH2 0x20B9 JUMP JUMPDEST PUSH2 0xD26 JUMP JUMPDEST STOP JUMPDEST PUSH2 0x218 PUSH1 0x4 DUP1 CALLDATASIZE SUB DUP2 ADD SWAP1 PUSH2 0x213 SWAP2 SWAP1 PUSH2 0x212D JUMP JUMPDEST PUSH2 0x142D JUMP JUMPDEST PUSH1 0x40 MLOAD PUSH2 0x225 SWAP2 SWAP1 PUSH2 0x27F1 JUMP JUMPDEST PUSH1 0x40 MLOAD DUP1 SWAP2 SUB SWAP1 RETURN JUMPDEST PUSH2 0x248 PUSH1 0x4 DUP1 CALLDATASIZE SUB DUP2 ADD SWAP1 PUSH2 0x243 SWAP2 SWAP1 PUSH2 0x1FC5 JUMP JUMPDEST PUSH2 0x14E0 JUMP JUMPDEST STOP JUMPDEST PUSH2 0x252 PUSH2 0x1A21 JUMP JUMPDEST PUSH1 0x40 MLOAD PUSH2 0x25F SWAP2 SWAP1 PUSH2 0x2904 JUMP JUMPDEST PUSH1 0x40 MLOAD DUP1 SWAP2 SUB SWAP1 RETURN JUMPDEST PUSH1 0x0 DUP1 SLOAD SWAP1 PUSH2 0x100 EXP SWAP1 DIV PUSH20 0xFFFFFFFFFFFFFFFFFFFFFFFFFFFFFFFFFFFFFFFF AND PUSH20 0xFFFFFFFFFFFFFFFFFFFFFFFFFFFFFFFFFFFFFFFF AND CALLER PUSH20 0xFFFFFFFFFFFFFFFFFFFFFFFFFFFFFFFFFFFFFFFF AND EQ PUSH2 0x2F6 JUMPI PUSH1 0x40 MLOAD PUSH32 0x8C379A000000000000000000000000000000000000000000000000000000000 DUP2 MSTORE PUSH1 0x4 ADD PUSH2 0x2ED SWAP1 PUSH2 0x2A7F JUMP JUMPDEST PUSH1 0x40 MLOAD DUP1 SWAP2 SUB SWAP1 REVERT JUMPDEST DUP1 PUSH1 0x1 PUSH1 0x0 PUSH2 0x100 EXP DUP2 SLOAD DUP2 PUSH20 0xFFFFFFFFFFFFFFFFFFFFFFFFFFFFFFFFFFFFFFFF MUL NOT AND SWAP1 DUP4 PUSH20 0xFFFFFFFFFFFFFFFFFFFFFFFFFFFFFFFFFFFFFFFF AND MUL OR SWAP1 SSTORE POP POP JUMP JUMPDEST PUSH1 0x3 DUP2 DUP2 SLOAD DUP2 LT PUSH2 0x34A JUMPI PUSH1 0x0 DUP1 REVERT JUMPDEST SWAP1 PUSH1 0x0 MSTORE PUSH1 0x20 PUSH1 0x0 KECCAK256 SWAP1 PUSH1 0x8 MUL ADD PUSH1 0x0 SWAP2 POP SWAP1 POP DUP1 PUSH1 0x0 ADD SLOAD SWAP1 DUP1 PUSH1 0x1 ADD SLOAD SWAP1 DUP1 PUSH1 0x2 ADD PUSH1 0x0 SWAP1 SLOAD SWAP1 PUSH2 0x100 EXP SWAP1 DIV PUSH1 0xFF AND SWAP1 DUP1 PUSH1 0x2 ADD PUSH1 0x1 SWAP1 SLOAD SWAP1 PUSH2 0x100 EXP SWAP1 DIV PUSH1 0xFF AND SWAP1 DUP1 PUSH1 0x3 ADD DUP1 SLOAD PUSH2 0x39F SWAP1 PUSH2 0x2ED3 JUMP JUMPDEST DUP1 PUSH1 0x1F ADD PUSH1 0x20 DUP1 SWAP2 DIV MUL PUSH1 0x20 ADD PUSH1 0x40 MLOAD SWAP1 DUP2 ADD PUSH1 0x40 MSTORE DUP1 SWAP3 SWAP2 SWAP1 DUP2 DUP2 MSTORE PUSH1 0x20 ADD DUP3 DUP1 SLOAD PUSH2 0x3CB SWAP1 PUSH2 0x2ED3 JUMP JUMPDEST DUP1 ISZERO PUSH2 0x418 JUMPI DUP1 PUSH1 0x1F LT PUSH2 0x3ED JUMPI PUSH2 0x100 DUP1 DUP4 SLOAD DIV MUL DUP4 MSTORE SWAP2 PUSH1 0x20 ADD SWAP2 PUSH2 0x418 JUMP JUMPDEST DUP3 ADD SWAP2 SWAP1 PUSH1 0x0 MSTORE PUSH1 0x20 PUSH1 0x0 KECCAK256 SWAP1 JUMPDEST DUP2 SLOAD DUP2 MSTORE SWAP1 PUSH1 0x1 ADD SWAP1 PUSH1 0x20 ADD DUP1 DUP4 GT PUSH2 0x3FB JUMPI DUP3 SWAP1 SUB PUSH1 0x1F AND DUP3 ADD SWAP2 JUMPDEST POP POP POP POP POP SWAP1 DUP1 PUSH1 0x4 ADD SLOAD SWAP1 DUP1 PUSH1 0x5 ADD SLOAD SWAP1 DUP1 PUSH1 0x6 ADD SLOAD SWAP1 POP DUP9 JUMP JUMPDEST PUSH1 0x0 DUP1 SLOAD SWAP1 PUSH2 0x100 EXP SWAP1 DIV PUSH20 0xFFFFFFFFFFFFFFFFFFFFFFFFFFFFFFFFFFFFFFFF AND DUP2 JUMP JUMPDEST PUSH1 0x6 DUP2 DUP2 SLOAD DUP2 LT PUSH2 0x468 JUMPI PUSH1 0x0 DUP1 REVERT JUMPDEST SWAP1 PUSH1 0x0 MSTORE PUSH1 0x20 PUSH1 0x0 KECCAK256 ADD PUSH1 0x0 SWAP2 POP SWAP1 POP SLOAD DUP2 JUMP JUMPDEST PUSH2 0x484 PUSH2 0x1CE1 JUMP JUMPDEST PUSH1 0x3 PUSH1 0x4 DUP5 DUP5 PUSH1 0x40 MLOAD PUSH2 0x498 SWAP3 SWAP2 SWAP1 PUSH2 0x275E JUMP JUMPDEST SWAP1 DUP2 MSTORE PUSH1 0x20 ADD PUSH1 0x40 MLOAD DUP1 SWAP2 SUB SWAP1 KECCAK256 SLOAD DUP2 SLOAD DUP2 LT PUSH2 0x4B8 JUMPI PUSH2 0x4B7 PUSH2 0x3038 JUMP JUMPDEST JUMPDEST SWAP1 PUSH1 0x0 MSTORE PUSH1 0x20 PUSH1 0x0 KECCAK256 SWAP1 PUSH1 0x8 MUL ADD PUSH1 0x40 MLOAD DUP1 PUSH2 0x120 ADD PUSH1 0x40 MSTORE SWAP1 DUP2 PUSH1 0x0 DUP3 ADD SLOAD DUP2 MSTORE PUSH1 0x20 ADD PUSH1 0x1 DUP3 ADD SLOAD DUP2 MSTORE PUSH1 0x20 ADD PUSH1 0x2 DUP3 ADD PUSH1 0x0 SWAP1 SLOAD SWAP1 PUSH2 0x100 EXP SWAP1 DIV PUSH1 0xFF AND PUSH1 0x1 DUP2 GT ISZERO PUSH2 0x50B JUMPI PUSH2 0x50A PUSH2 0x2FAB JUMP JUMPDEST JUMPDEST PUSH1 0x1 DUP2 GT ISZERO PUSH2 0x51D JUMPI PUSH2 0x51C PUSH2 0x2FAB JUMP JUMPDEST JUMPDEST DUP2 MSTORE PUSH1 0x20 ADD PUSH1 0x2 DUP3 ADD PUSH1 0x1 SWAP1 SLOAD SWAP1 PUSH2 0x100 EXP SWAP1 DIV PUSH1 0xFF AND ISZERO ISZERO ISZERO ISZERO DUP2 MSTORE PUSH1 0x20 ADD PUSH1 0x3 DUP3 ADD DUP1 SLOAD PUSH2 0x54C SWAP1 PUSH2 0x2ED3 JUMP JUMPDEST DUP1 PUSH1 0x1F ADD PUSH1 0x20 DUP1 SWAP2 DIV MUL PUSH1 0x20 ADD PUSH1 0x40 MLOAD SWAP1 DUP2 ADD PUSH1 0x40 MSTORE DUP1 SWAP3 SWAP2 SWAP1 DUP2 DUP2 MSTORE PUSH1 0x20 ADD DUP3 DUP1 SLOAD PUSH2 0x578 SWAP1 PUSH2 0x2ED3 JUMP JUMPDEST DUP1 ISZERO PUSH2 0x5C5 JUMPI DUP1 PUSH1 0x1F LT PUSH2 0x59A JUMPI PUSH2 0x100 DUP1 DUP4 SLOAD DIV MUL DUP4 MSTORE SWAP2 PUSH1 0x20 ADD SWAP2 PUSH2 0x5C5 JUMP JUMPDEST DUP3 ADD SWAP2 SWAP1 PUSH1 0x0 MSTORE PUSH1 0x20 PUSH1 0x0 KECCAK256 SWAP1 JUMPDEST DUP2 SLOAD DUP2 MSTORE SWAP1 PUSH1 0x1 ADD SWAP1 PUSH1 0x20 ADD DUP1 DUP4 GT PUSH2 0x5A8 JUMPI DUP3 SWAP1 SUB PUSH1 0x1F AND DUP3 ADD SWAP2 JUMPDEST POP POP POP POP POP DUP2 MSTORE PUSH1 0x20 ADD PUSH1 0x4 DUP3 ADD SLOAD DUP2 MSTORE PUSH1 0x20 ADD PUSH1 0x5 DUP3 ADD SLOAD DUP2 MSTORE PUSH1 0x20 ADD PUSH1 0x6 DUP3 ADD SLOAD DUP2 MSTORE PUSH1 0x20 ADD PUSH1 0x7 DUP3 ADD DUP1 SLOAD DUP1 PUSH1 0x20 MUL PUSH1 0x20 ADD PUSH1 0x40 MLOAD SWAP1 DUP2 ADD PUSH1 0x40 MSTORE DUP1 SWAP3 SWAP2 SWAP1 DUP2 DUP2 MSTORE PUSH1 0x20 ADD DUP3 DUP1 SLOAD DUP1 ISZERO PUSH2 0x671 JUMPI PUSH1 0x20 MUL DUP3 ADD SWAP2 SWAP1 PUSH1 0x0 MSTORE PUSH1 0x20 PUSH1 0x0 KECCAK256 SWAP1 JUMPDEST DUP2 PUSH1 0x0 SWAP1 SLOAD SWAP1 PUSH2 0x100 EXP SWAP1 DIV PUSH20 0xFFFFFFFFFFFFFFFFFFFFFFFFFFFFFFFFFFFFFFFF AND PUSH20 0xFFFFFFFFFFFFFFFFFFFFFFFFFFFFFFFFFFFFFFFF AND DUP2 MSTORE PUSH1 0x20 ADD SWAP1 PUSH1 0x1 ADD SWAP1 DUP1 DUP4 GT PUSH2 0x627 JUMPI JUMPDEST POP POP POP POP POP DUP2 MSTORE POP POP SWAP1 POP SWAP3 SWAP2 POP POP JUMP JUMPDEST PUSH1 0x60 PUSH1 0x6 DUP1 SLOAD DUP1 PUSH1 0x20 MUL PUSH1 0x20 ADD PUSH1 0x40 MLOAD SWAP1 DUP2 ADD PUSH1 0x40 MSTORE DUP1 SWAP3 SWAP2 SWAP1 DUP2 DUP2 MSTORE PUSH1 0x20 ADD DUP3 DUP1 SLOAD DUP1 ISZERO PUSH2 0x6D0 JUMPI PUSH1 0x20 MUL DUP3 ADD SWAP2 SWAP1 PUSH1 0x0 MSTORE PUSH1 0x20 PUSH1 0x0 KECCAK256 SWAP1 JUMPDEST DUP2 SLOAD DUP2 MSTORE PUSH1 0x20 ADD SWAP1 PUSH1 0x1 ADD SWAP1 DUP1 DUP4 GT PUSH2 0x6BC JUMPI JUMPDEST POP POP POP POP POP SWAP1 POP SWAP1 JUMP JUMPDEST PUSH1 0x1 PUSH1 0x0 SWAP1 SLOAD SWAP1 PUSH2 0x100 EXP SWAP1 DIV PUSH20 0xFFFFFFFFFFFFFFFFFFFFFFFFFFFFFFFFFFFFFFFF AND DUP2 JUMP JUMPDEST PUSH1 0x0 DUP2 GT PUSH2 0x743 JUMPI PUSH1 0x40 MLOAD PUSH32 0x8C379A000000000000000000000000000000000000000000000000000000000 DUP2 MSTORE PUSH1 0x4 ADD PUSH2 0x73A SWAP1 PUSH2 0x2A5F JUMP JUMPDEST PUSH1 0x40 MLOAD DUP1 SWAP2 SUB SWAP1 REVERT JUMPDEST PUSH1 0x3 DUP1 SLOAD SWAP1 POP DUP2 LT PUSH2 0x78A JUMPI PUSH1 0x40 MLOAD PUSH32 0x8C379A000000000000000000000000000000000000000000000000000000000 DUP2 MSTORE PUSH1 0x4 ADD PUSH2 0x781 SWAP1 PUSH2 0x2A5F JUMP JUMPDEST PUSH1 0x40 MLOAD DUP1 SWAP2 SUB SWAP1 REVERT JUMPDEST PUSH1 0x0 ISZERO ISZERO PUSH1 0x3 DUP3 DUP2 SLOAD DUP2 LT PUSH2 0x7A2 JUMPI PUSH2 0x7A1 PUSH2 0x3038 JUMP JUMPDEST JUMPDEST SWAP1 PUSH1 0x0 MSTORE PUSH1 0x20 PUSH1 0x0 KECCAK256 SWAP1 PUSH1 0x8 MUL ADD PUSH1 0x2 ADD PUSH1 0x1 SWAP1 SLOAD SWAP1 PUSH2 0x100 EXP SWAP1 DIV PUSH1 0xFF AND ISZERO ISZERO EQ PUSH2 0x803 JUMPI PUSH1 0x40 MLOAD PUSH32 0x8C379A000000000000000000000000000000000000000000000000000000000 DUP2 MSTORE PUSH1 0x4 ADD PUSH2 0x7FA SWAP1 PUSH2 0x297F JUMP JUMPDEST PUSH1 0x40 MLOAD DUP1 SWAP2 SUB SWAP1 REVERT JUMPDEST TIMESTAMP PUSH1 0x3 DUP3 DUP2 SLOAD DUP2 LT PUSH2 0x818 JUMPI PUSH2 0x817 PUSH2 0x3038 JUMP JUMPDEST JUMPDEST SWAP1 PUSH1 0x0 MSTORE PUSH1 0x20 PUSH1 0x0 KECCAK256 SWAP1 PUSH1 0x8 MUL ADD PUSH1 0x1 ADD SLOAD LT PUSH2 0x86A JUMPI PUSH1 0x40 MLOAD PUSH32 0x8C379A000000000000000000000000000000000000000000000000000000000 DUP2 MSTORE PUSH1 0x4 ADD PUSH2 0x861 SWAP1 PUSH2 0x2A3F JUMP JUMPDEST PUSH1 0x40 MLOAD DUP1 SWAP2 SUB SWAP1 REVERT JUMPDEST PUSH1 0x1 PUSH1 0x3 DUP3 DUP2 SLOAD DUP2 LT PUSH2 0x880 JUMPI PUSH2 0x87F PUSH2 0x3038 JUMP JUMPDEST JUMPDEST SWAP1 PUSH1 0x0 MSTORE PUSH1 0x20 PUSH1 0x0 KECCAK256 SWAP1 PUSH1 0x8 MUL ADD PUSH1 0x2 ADD PUSH1 0x1 PUSH2 0x100 EXP DUP2 SLOAD DUP2 PUSH1 0xFF MUL NOT AND SWAP1 DUP4 ISZERO ISZERO MUL OR SWAP1 SSTORE POP PUSH1 0x0 PUSH1 0x3 DUP3 DUP2 SLOAD DUP2 LT PUSH2 0x8BE JUMPI PUSH2 0x8BD PUSH2 0x3038 JUMP JUMPDEST JUMPDEST SWAP1 PUSH1 0x0 MSTORE PUSH1 0x20 PUSH1 0x0 KECCAK256 SWAP1 PUSH1 0x8 MUL ADD PUSH1 0x3 ADD DUP1 SLOAD PUSH2 0x8DA SWAP1 PUSH2 0x2ED3 JUMP JUMPDEST DUP1 PUSH1 0x1F ADD PUSH1 0x20 DUP1 SWAP2 DIV MUL PUSH1 0x20 ADD PUSH1 0x40 MLOAD SWAP1 DUP2 ADD PUSH1 0x40 MSTORE DUP1 SWAP3 SWAP2 SWAP1 DUP2 DUP2 MSTORE PUSH1 0x20 ADD DUP3 DUP1 SLOAD PUSH2 0x906 SWAP1 PUSH2 0x2ED3 JUMP JUMPDEST DUP1 ISZERO PUSH2 0x953 JUMPI DUP1 PUSH1 0x1F LT PUSH2 0x928 JUMPI PUSH2 0x100 DUP1 DUP4 SLOAD DIV MUL DUP4 MSTORE SWAP2 PUSH1 0x20 ADD SWAP2 PUSH2 0x953 JUMP JUMPDEST DUP3 ADD SWAP2 SWAP1 PUSH1 0x0 MSTORE PUSH1 0x20 PUSH1 0x0 KECCAK256 SWAP1 JUMPDEST DUP2 SLOAD DUP2 MSTORE SWAP1 PUSH1 0x1 ADD SWAP1 PUSH1 0x20 ADD DUP1 DUP4 GT PUSH2 0x936 JUMPI DUP3 SWAP1 SUB PUSH1 0x1F AND DUP3 ADD SWAP2 JUMPDEST POP POP POP POP POP SWAP1 POP PUSH1 0x0 PUSH1 0x4 DUP3 PUSH1 0x40 MLOAD PUSH2 0x96C SWAP2 SWAP1 PUSH2 0x2777 JUMP JUMPDEST SWAP1 DUP2 MSTORE PUSH1 0x20 ADD PUSH1 0x40 MLOAD DUP1 SWAP2 SUB SWAP1 KECCAK256 DUP2 SWAP1 SSTORE POP PUSH1 0x0 PUSH1 0x7 PUSH1 0x0 DUP5 DUP2 MSTORE PUSH1 0x20 ADD SWAP1 DUP2 MSTORE PUSH1 0x20 ADD PUSH1 0x0 KECCAK256 SLOAD SWAP1 POP PUSH1 0x0 DUP2 EQ ISZERO PUSH2 0x9A6 JUMPI POP POP PUSH2 0xD23 JUMP JUMPDEST DUP1 DUP1 PUSH2 0x9B1 SWAP1 PUSH2 0x2EA9 JUMP JUMPDEST SWAP2 POP POP PUSH1 0x1 PUSH1 0x6 DUP1 SLOAD SWAP1 POP GT ISZERO PUSH2 0xA57 JUMPI PUSH1 0x6 PUSH1 0x1 PUSH1 0x6 DUP1 SLOAD SWAP1 POP PUSH2 0x9D6 SWAP2 SWAP1 PUSH2 0x2D55 JUMP JUMPDEST DUP2 SLOAD DUP2 LT PUSH2 0x9E7 JUMPI PUSH2 0x9E6 PUSH2 0x3038 JUMP JUMPDEST JUMPDEST SWAP1 PUSH1 0x0 MSTORE PUSH1 0x20 PUSH1 0x0 KECCAK256 ADD SLOAD PUSH1 0x6 DUP3 DUP2 SLOAD DUP2 LT PUSH2 0xA06 JUMPI PUSH2 0xA05 PUSH2 0x3038 JUMP JUMPDEST JUMPDEST SWAP1 PUSH1 0x0 MSTORE PUSH1 0x20 PUSH1 0x0 KECCAK256 ADD DUP2 SWAP1 SSTORE POP PUSH1 0x1 DUP2 PUSH2 0xA21 SWAP2 SWAP1 PUSH2 0x2CFF JUMP JUMPDEST PUSH1 0x7 PUSH1 0x0 PUSH1 0x6 DUP5 DUP2 SLOAD DUP2 LT PUSH2 0xA39 JUMPI PUSH2 0xA38 PUSH2 0x3038 JUMP JUMPDEST JUMPDEST SWAP1 PUSH1 0x0 MSTORE PUSH1 0x20 PUSH1 0x0 KECCAK256 ADD SLOAD DUP2 MSTORE PUSH1 0x20 ADD SWAP1 DUP2 MSTORE PUSH1 0x20 ADD PUSH1 0x0 KECCAK256 DUP2 SWAP1 SSTORE POP JUMPDEST PUSH1 0x6 DUP1 SLOAD DUP1 PUSH2 0xA69 JUMPI PUSH2 0xA68 PUSH2 0x3009 JUMP JUMPDEST JUMPDEST PUSH1 0x1 SWAP1 SUB DUP2 DUP2 SWAP1 PUSH1 0x0 MSTORE PUSH1 0x20 PUSH1 0x0 KECCAK256 ADD PUSH1 0x0 SWAP1 SSTORE SWAP1 SSTORE PUSH1 0x0 PUSH1 0x3 DUP5 DUP2 SLOAD DUP2 LT PUSH2 0xA95 JUMPI PUSH2 0xA94 PUSH2 0x3038 JUMP JUMPDEST JUMPDEST SWAP1 PUSH1 0x0 MSTORE PUSH1 0x20 PUSH1 0x0 KECCAK256 SWAP1 PUSH1 0x8 MUL ADD PUSH1 0x5 ADD SLOAD PUSH1 0x3 DUP6 DUP2 SLOAD DUP2 LT PUSH2 0xABB JUMPI PUSH2 0xABA PUSH2 0x3038 JUMP JUMPDEST JUMPDEST SWAP1 PUSH1 0x0 MSTORE PUSH1 0x20 PUSH1 0x0 KECCAK256 SWAP1 PUSH1 0x8 MUL ADD PUSH1 0x4 ADD SLOAD GT SWAP1 POP DUP1 ISZERO PUSH2 0xCB0 JUMPI PUSH1 0x1 DUP1 DUP2 GT ISZERO PUSH2 0xAE9 JUMPI PUSH2 0xAE8 PUSH2 0x2FAB JUMP JUMPDEST JUMPDEST PUSH1 0x3 DUP6 DUP2 SLOAD DUP2 LT PUSH2 0xAFD JUMPI PUSH2 0xAFC PUSH2 0x3038 JUMP JUMPDEST JUMPDEST SWAP1 PUSH1 0x0 MSTORE PUSH1 0x20 PUSH1 0x0 KECCAK256 SWAP1 PUSH1 0x8 MUL ADD PUSH1 0x2 ADD PUSH1 0x0 SWAP1 SLOAD SWAP1 PUSH2 0x100 EXP SWAP1 DIV PUSH1 0xFF AND PUSH1 0x1 DUP2 GT ISZERO PUSH2 0xB2E JUMPI PUSH2 0xB2D PUSH2 0x2FAB JUMP JUMPDEST JUMPDEST EQ ISZERO PUSH2 0xBC2 JUMPI PUSH1 0x1 PUSH1 0x0 SWAP1 SLOAD SWAP1 PUSH2 0x100 EXP SWAP1 DIV PUSH20 0xFFFFFFFFFFFFFFFFFFFFFFFFFFFFFFFFFFFFFFFF AND PUSH20 0xFFFFFFFFFFFFFFFFFFFFFFFFFFFFFFFFFFFFFFFF AND PUSH4 0x74837935 DUP5 PUSH1 0x40 MLOAD DUP3 PUSH4 0xFFFFFFFF AND PUSH1 0xE0 SHL DUP2 MSTORE PUSH1 0x4 ADD PUSH2 0xB8F SWAP2 SWAP1 PUSH2 0x28C7 JUMP JUMPDEST PUSH1 0x0 PUSH1 0x40 MLOAD DUP1 DUP4 SUB DUP2 PUSH1 0x0 DUP8 DUP1 EXTCODESIZE ISZERO DUP1 ISZERO PUSH2 0xBA9 JUMPI PUSH1 0x0 DUP1 REVERT JUMPDEST POP GAS CALL ISZERO DUP1 ISZERO PUSH2 0xBBD JUMPI RETURNDATASIZE PUSH1 0x0 DUP1 RETURNDATACOPY RETURNDATASIZE PUSH1 0x0 REVERT JUMPDEST POP POP POP POP JUMPDEST PUSH1 0x0 PUSH1 0x1 DUP2 GT ISZERO PUSH2 0xBD6 JUMPI PUSH2 0xBD5 PUSH2 0x2FAB JUMP JUMPDEST JUMPDEST PUSH1 0x3 DUP6 DUP2 SLOAD DUP2 LT PUSH2 0xBEA JUMPI PUSH2 0xBE9 PUSH2 0x3038 JUMP JUMPDEST JUMPDEST SWAP1 PUSH1 0x0 MSTORE PUSH1 0x20 PUSH1 0x0 KECCAK256 SWAP1 PUSH1 0x8 MUL ADD PUSH1 0x2 ADD PUSH1 0x0 SWAP1 SLOAD SWAP1 PUSH2 0x100 EXP SWAP1 DIV PUSH1 0xFF AND PUSH1 0x1 DUP2 GT ISZERO PUSH2 0xC1B JUMPI PUSH2 0xC1A PUSH2 0x2FAB JUMP JUMPDEST JUMPDEST EQ ISZERO PUSH2 0xCAF JUMPI PUSH1 0x1 PUSH1 0x0 SWAP1 SLOAD SWAP1 PUSH2 0x100 EXP SWAP1 DIV PUSH20 0xFFFFFFFFFFFFFFFFFFFFFFFFFFFFFFFFFFFFFFFF AND PUSH20 0xFFFFFFFFFFFFFFFFFFFFFFFFFFFFFFFFFFFFFFFF AND PUSH4 0x3C01B93C DUP5 PUSH1 0x40 MLOAD DUP3 PUSH4 0xFFFFFFFF AND PUSH1 0xE0 SHL DUP2 MSTORE PUSH1 0x4 ADD PUSH2 0xC7C SWAP2 SWAP1 PUSH2 0x28C7 JUMP JUMPDEST PUSH1 0x0 PUSH1 0x40 MLOAD DUP1 DUP4 SUB DUP2 PUSH1 0x0 DUP8 DUP1 EXTCODESIZE ISZERO DUP1 ISZERO PUSH2 0xC96 JUMPI PUSH1 0x0 DUP1 REVERT JUMPDEST POP GAS CALL ISZERO DUP1 ISZERO PUSH2 0xCAA JUMPI RETURNDATASIZE PUSH1 0x0 DUP1 RETURNDATACOPY RETURNDATASIZE PUSH1 0x0 REVERT JUMPDEST POP POP POP POP JUMPDEST JUMPDEST PUSH32 0x2EE1D50DD7D7F4CA1CD35DBA9BDE18B024B24F448A26C1C8846FE7B8BB450D1D DUP5 DUP5 DUP4 PUSH1 0x3 DUP9 DUP2 SLOAD DUP2 LT PUSH2 0xCE8 JUMPI PUSH2 0xCE7 PUSH2 0x3038 JUMP JUMPDEST JUMPDEST SWAP1 PUSH1 0x0 MSTORE PUSH1 0x20 PUSH1 0x0 KECCAK256 SWAP1 PUSH1 0x8 MUL ADD PUSH1 0x2 ADD PUSH1 0x0 SWAP1 SLOAD SWAP1 PUSH2 0x100 EXP SWAP1 DIV PUSH1 0xFF AND PUSH1 0x40 MLOAD PUSH2 0xD17 SWAP5 SWAP4 SWAP3 SWAP2 SWAP1 PUSH2 0x2B57 JUMP JUMPDEST PUSH1 0x40 MLOAD DUP1 SWAP2 SUB SWAP1 LOG1 POP POP POP JUMPDEST POP JUMP JUMPDEST PUSH1 0x0 PUSH1 0x4 DUP5 DUP5 PUSH1 0x40 MLOAD PUSH2 0xD3A SWAP3 SWAP2 SWAP1 PUSH2 0x275E JUMP JUMPDEST SWAP1 DUP2 MSTORE PUSH1 0x20 ADD PUSH1 0x40 MLOAD DUP1 SWAP2 SUB SWAP1 KECCAK256 SLOAD EQ PUSH2 0xD89 JUMPI PUSH1 0x40 MLOAD PUSH32 0x8C379A000000000000000000000000000000000000000000000000000000000 DUP2 MSTORE PUSH1 0x4 ADD PUSH2 0xD80 SWAP1 PUSH2 0x299F JUMP JUMPDEST PUSH1 0x40 MLOAD DUP1 SWAP2 SUB SWAP1 REVERT JUMPDEST PUSH1 0x0 PUSH1 0x1 DUP2 GT ISZERO PUSH2 0xD9D JUMPI PUSH2 0xD9C PUSH2 0x2FAB JUMP JUMPDEST JUMPDEST DUP5 PUSH1 0x1 DUP2 GT ISZERO PUSH2 0xDB0 JUMPI PUSH2 0xDAF PUSH2 0x2FAB JUMP JUMPDEST JUMPDEST EQ ISZERO PUSH2 0xEA3 JUMPI PUSH1 0x1 PUSH1 0x0 SWAP1 SLOAD SWAP1 PUSH2 0x100 EXP SWAP1 DIV PUSH20 0xFFFFFFFFFFFFFFFFFFFFFFFFFFFFFFFFFFFFFFFF AND PUSH20 0xFFFFFFFFFFFFFFFFFFFFFFFFFFFFFFFFFFFFFFFF AND PUSH4 0xB3DBB52A DUP5 DUP5 PUSH1 0x40 MLOAD DUP4 PUSH4 0xFFFFFFFF AND PUSH1 0xE0 SHL DUP2 MSTORE PUSH1 0x4 ADD PUSH2 0xE13 SWAP3 SWAP2 SWAP1 PUSH2 0x28A3 JUMP JUMPDEST PUSH1 0x20 PUSH1 0x40 MLOAD DUP1 DUP4 SUB DUP2 DUP7 DUP1 EXTCODESIZE ISZERO DUP1 ISZERO PUSH2 0xE2B JUMPI PUSH1 0x0 DUP1 REVERT JUMPDEST POP GAS STATICCALL ISZERO DUP1 ISZERO PUSH2 0xE3F JUMPI RETURNDATASIZE PUSH1 0x0 DUP1 RETURNDATACOPY RETURNDATASIZE PUSH1 0x0 REVERT JUMPDEST POP POP POP POP PUSH1 0x40 MLOAD RETURNDATASIZE PUSH1 0x1F NOT PUSH1 0x1F DUP3 ADD AND DUP3 ADD DUP1 PUSH1 0x40 MSTORE POP DUP2 ADD SWAP1 PUSH2 0xE63 SWAP2 SWAP1 PUSH2 0x2012 JUMP JUMPDEST PUSH2 0xEA2 JUMPI PUSH1 0x40 MLOAD PUSH32 0x8C379A000000000000000000000000000000000000000000000000000000000 DUP2 MSTORE PUSH1 0x4 ADD PUSH2 0xE99 SWAP1 PUSH2 0x295F JUMP JUMPDEST PUSH1 0x40 MLOAD DUP1 SWAP2 SUB SWAP1 REVERT JUMPDEST JUMPDEST PUSH1 0x1 DUP1 DUP2 GT ISZERO PUSH2 0xEB6 JUMPI PUSH2 0xEB5 PUSH2 0x2FAB JUMP JUMPDEST JUMPDEST DUP5 PUSH1 0x1 DUP2 GT ISZERO PUSH2 0xEC9 JUMPI PUSH2 0xEC8 PUSH2 0x2FAB JUMP JUMPDEST JUMPDEST EQ ISZERO PUSH2 0xFBD JUMPI PUSH1 0x1 PUSH1 0x0 SWAP1 SLOAD SWAP1 PUSH2 0x100 EXP SWAP1 DIV PUSH20 0xFFFFFFFFFFFFFFFFFFFFFFFFFFFFFFFFFFFFFFFF AND PUSH20 0xFFFFFFFFFFFFFFFFFFFFFFFFFFFFFFFFFFFFFFFF AND PUSH4 0xB3DBB52A DUP5 DUP5 PUSH1 0x40 MLOAD DUP4 PUSH4 0xFFFFFFFF AND PUSH1 0xE0 SHL DUP2 MSTORE PUSH1 0x4 ADD PUSH2 0xF2C SWAP3 SWAP2 SWAP1 PUSH2 0x28A3 JUMP JUMPDEST PUSH1 0x20 PUSH1 0x40 MLOAD DUP1 DUP4 SUB DUP2 DUP7 DUP1 EXTCODESIZE ISZERO DUP1 ISZERO PUSH2 0xF44 JUMPI PUSH1 0x0 DUP1 REVERT JUMPDEST POP GAS STATICCALL ISZERO DUP1 ISZERO PUSH2 0xF58 JUMPI RETURNDATASIZE PUSH1 0x0 DUP1 RETURNDATACOPY RETURNDATASIZE PUSH1 0x0 REVERT JUMPDEST POP POP POP POP PUSH1 0x40 MLOAD RETURNDATASIZE PUSH1 0x1F NOT PUSH1 0x1F DUP3 ADD AND DUP3 ADD DUP1 PUSH1 0x40 MSTORE POP DUP2 ADD SWAP1 PUSH2 0xF7C SWAP2 SWAP1 PUSH2 0x2012 JUMP JUMPDEST ISZERO PUSH2 0xFBC JUMPI PUSH1 0x40 MLOAD PUSH32 0x8C379A000000000000000000000000000000000000000000000000000000000 DUP2 MSTORE PUSH1 0x4 ADD PUSH2 0xFB3 SWAP1 PUSH2 0x2A9F JUMP JUMPDEST PUSH1 0x40 MLOAD DUP1 SWAP2 SUB SWAP1 REVERT JUMPDEST JUMPDEST DUP1 PUSH1 0x2 PUSH1 0x0 SWAP1 SLOAD SWAP1 PUSH2 0x100 EXP SWAP1 DIV PUSH20 0xFFFFFFFFFFFFFFFFFFFFFFFFFFFFFFFFFFFFFFFF AND PUSH20 0xFFFFFFFFFFFFFFFFFFFFFFFFFFFFFFFFFFFFFFFF AND PUSH4 0x70A08231 CALLER PUSH1 0x40 MLOAD DUP3 PUSH4 0xFFFFFFFF AND PUSH1 0xE0 SHL DUP2 MSTORE PUSH1 0x4 ADD PUSH2 0x1019 SWAP2 SWAP1 PUSH2 0x27D6 JUMP JUMPDEST PUSH1 0x20 PUSH1 0x40 MLOAD DUP1 DUP4 SUB DUP2 DUP7 DUP1 EXTCODESIZE ISZERO DUP1 ISZERO PUSH2 0x1031 JUMPI PUSH1 0x0 DUP1 REVERT JUMPDEST POP GAS STATICCALL ISZERO DUP1 ISZERO PUSH2 0x1045 JUMPI RETURNDATASIZE PUSH1 0x0 DUP1 RETURNDATACOPY RETURNDATASIZE PUSH1 0x0 REVERT JUMPDEST POP POP POP POP PUSH1 0x40 MLOAD RETURNDATASIZE PUSH1 0x1F NOT PUSH1 0x1F DUP3 ADD AND DUP3 ADD DUP1 PUSH1 0x40 MSTORE POP DUP2 ADD SWAP1 PUSH2 0x1069 SWAP2 SWAP1 PUSH2 0x215A JUMP JUMPDEST LT ISZERO PUSH2 0x10AA JUMPI PUSH1 0x40 MLOAD PUSH32 0x8C379A000000000000000000000000000000000000000000000000000000000 DUP2 MSTORE PUSH1 0x4 ADD PUSH2 0x10A1 SWAP1 PUSH2 0x29BF JUMP JUMPDEST PUSH1 0x40 MLOAD DUP1 SWAP2 SUB SWAP1 REVERT JUMPDEST PUSH1 0x3 DUP1 SLOAD SWAP1 POP PUSH1 0x4 DUP5 DUP5 PUSH1 0x40 MLOAD PUSH2 0x10C2 SWAP3 SWAP2 SWAP1 PUSH2 0x275E JUMP JUMPDEST SWAP1 DUP2 MSTORE PUSH1 0x20 ADD PUSH1 0x40 MLOAD DUP1 SWAP2 SUB SWAP1 KECCAK256 DUP2 SWAP1 SSTORE POP PUSH1 0x6 PUSH1 0x3 DUP1 SLOAD SWAP1 POP SWAP1 DUP1 PUSH1 0x1 DUP2 SLOAD ADD DUP1 DUP3 SSTORE DUP1 SWAP2 POP POP PUSH1 0x1 SWAP1 SUB SWAP1 PUSH1 0x0 MSTORE PUSH1 0x20 PUSH1 0x0 KECCAK256 ADD PUSH1 0x0 SWAP1 SWAP2 SWAP1 SWAP2 SWAP1 SWAP2 POP SSTORE PUSH1 0x6 DUP1 SLOAD SWAP1 POP PUSH1 0x7 PUSH1 0x0 PUSH1 0x3 DUP1 SLOAD SWAP1 POP DUP2 MSTORE PUSH1 0x20 ADD SWAP1 DUP2 MSTORE PUSH1 0x20 ADD PUSH1 0x0 KECCAK256 DUP2 SWAP1 SSTORE POP PUSH2 0x112C PUSH2 0x1CE1 JUMP JUMPDEST NUMBER DUP2 PUSH1 0x0 ADD DUP2 DUP2 MSTORE POP POP PUSH2 0x114B PUSH2 0x3E8 TIMESTAMP PUSH2 0x1A47 SWAP1 SWAP2 SWAP1 PUSH4 0xFFFFFFFF AND JUMP JUMPDEST DUP2 PUSH1 0x20 ADD DUP2 DUP2 MSTORE POP POP DUP5 DUP2 PUSH1 0x40 ADD SWAP1 PUSH1 0x1 DUP2 GT ISZERO PUSH2 0x116C JUMPI PUSH2 0x116B PUSH2 0x2FAB JUMP JUMPDEST JUMPDEST SWAP1 DUP2 PUSH1 0x1 DUP2 GT ISZERO PUSH2 0x1180 JUMPI PUSH2 0x117F PUSH2 0x2FAB JUMP JUMPDEST JUMPDEST DUP2 MSTORE POP POP DUP4 DUP4 DUP1 DUP1 PUSH1 0x1F ADD PUSH1 0x20 DUP1 SWAP2 DIV MUL PUSH1 0x20 ADD PUSH1 0x40 MLOAD SWAP1 DUP2 ADD PUSH1 0x40 MSTORE DUP1 SWAP4 SWAP3 SWAP2 SWAP1 DUP2 DUP2 MSTORE PUSH1 0x20 ADD DUP4 DUP4 DUP1 DUP3 DUP5 CALLDATACOPY PUSH1 0x0 DUP2 DUP5 ADD MSTORE PUSH1 0x1F NOT PUSH1 0x1F DUP3 ADD AND SWAP1 POP DUP1 DUP4 ADD SWAP3 POP POP POP POP POP POP POP DUP2 PUSH1 0x80 ADD DUP2 SWAP1 MSTORE POP PUSH1 0x3 DUP1 SLOAD SWAP1 POP DUP2 PUSH1 0xE0 ADD DUP2 DUP2 MSTORE POP POP DUP2 DUP2 PUSH1 0xA0 ADD DUP2 DUP2 MSTORE POP POP PUSH1 0x1 PUSH1 0x5 PUSH1 0x0 PUSH1 0x3 DUP1 SLOAD SWAP1 POP DUP2 MSTORE PUSH1 0x20 ADD SWAP1 DUP2 MSTORE PUSH1 0x20 ADD PUSH1 0x0 KECCAK256 PUSH1 0x0 CALLER PUSH20 0xFFFFFFFFFFFFFFFFFFFFFFFFFFFFFFFFFFFFFFFF AND PUSH20 0xFFFFFFFFFFFFFFFFFFFFFFFFFFFFFFFFFFFFFFFF AND DUP2 MSTORE PUSH1 0x20 ADD SWAP1 DUP2 MSTORE PUSH1 0x20 ADD PUSH1 0x0 KECCAK256 PUSH1 0x0 PUSH2 0x100 EXP DUP2 SLOAD DUP2 PUSH1 0xFF MUL NOT AND SWAP1 DUP4 ISZERO ISZERO MUL OR SWAP1 SSTORE POP PUSH1 0x3 DUP2 SWAP1 DUP1 PUSH1 0x1 DUP2 SLOAD ADD DUP1 DUP3 SSTORE DUP1 SWAP2 POP POP PUSH1 0x1 SWAP1 SUB SWAP1 PUSH1 0x0 MSTORE PUSH1 0x20 PUSH1 0x0 KECCAK256 SWAP1 PUSH1 0x8 MUL ADD PUSH1 0x0 SWAP1 SWAP2 SWAP1 SWAP2 SWAP1 SWAP2 POP PUSH1 0x0 DUP3 ADD MLOAD DUP2 PUSH1 0x0 ADD SSTORE PUSH1 0x20 DUP3 ADD MLOAD DUP2 PUSH1 0x1 ADD SSTORE PUSH1 0x40 DUP3 ADD MLOAD DUP2 PUSH1 0x2 ADD PUSH1 0x0 PUSH2 0x100 EXP DUP2 SLOAD DUP2 PUSH1 0xFF MUL NOT AND SWAP1 DUP4 PUSH1 0x1 DUP2 GT ISZERO PUSH2 0x12C3 JUMPI PUSH2 0x12C2 PUSH2 0x2FAB JUMP JUMPDEST JUMPDEST MUL OR SWAP1 SSTORE POP PUSH1 0x60 DUP3 ADD MLOAD DUP2 PUSH1 0x2 ADD PUSH1 0x1 PUSH2 0x100 EXP DUP2 SLOAD DUP2 PUSH1 0xFF MUL NOT AND SWAP1 DUP4 ISZERO ISZERO MUL OR SWAP1 SSTORE POP PUSH1 0x80 DUP3 ADD MLOAD DUP2 PUSH1 0x3 ADD SWAP1 DUP1 MLOAD SWAP1 PUSH1 0x20 ADD SWAP1 PUSH2 0x1304 SWAP3 SWAP2 SWAP1 PUSH2 0x1D41 JUMP JUMPDEST POP PUSH1 0xA0 DUP3 ADD MLOAD DUP2 PUSH1 0x4 ADD SSTORE PUSH1 0xC0 DUP3 ADD MLOAD DUP2 PUSH1 0x5 ADD SSTORE PUSH1 0xE0 DUP3 ADD MLOAD DUP2 PUSH1 0x6 ADD SSTORE PUSH2 0x100 DUP3 ADD MLOAD DUP2 PUSH1 0x7 ADD SWAP1 DUP1 MLOAD SWAP1 PUSH1 0x20 ADD SWAP1 PUSH2 0x1340 SWAP3 SWAP2 SWAP1 PUSH2 0x1DC7 JUMP JUMPDEST POP POP POP PUSH1 0x3 PUSH1 0x1 PUSH1 0x3 DUP1 SLOAD SWAP1 POP PUSH2 0x1357 SWAP2 SWAP1 PUSH2 0x2D55 JUMP JUMPDEST DUP2 SLOAD DUP2 LT PUSH2 0x1368 JUMPI PUSH2 0x1367 PUSH2 0x3038 JUMP JUMPDEST JUMPDEST SWAP1 PUSH1 0x0 MSTORE PUSH1 0x20 PUSH1 0x0 KECCAK256 SWAP1 PUSH1 0x8 MUL ADD PUSH1 0x7 ADD CALLER SWAP1 DUP1 PUSH1 0x1 DUP2 SLOAD ADD DUP1 DUP3 SSTORE DUP1 SWAP2 POP POP PUSH1 0x1 SWAP1 SUB SWAP1 PUSH1 0x0 MSTORE PUSH1 0x20 PUSH1 0x0 KECCAK256 ADD PUSH1 0x0 SWAP1 SWAP2 SWAP1 SWAP2 SWAP1 SWAP2 PUSH2 0x100 EXP DUP2 SLOAD DUP2 PUSH20 0xFFFFFFFFFFFFFFFFFFFFFFFFFFFFFFFFFFFFFFFF MUL NOT AND SWAP1 DUP4 PUSH20 0xFFFFFFFFFFFFFFFFFFFFFFFFFFFFFFFFFFFFFFFF AND MUL OR SWAP1 SSTORE POP PUSH32 0x56385C0D76FFCEFEB38CB9226CB877000037647D09069D15E94AC4B29EC43587 PUSH1 0x1 PUSH1 0x3 DUP1 SLOAD SWAP1 POP PUSH2 0x140D SWAP2 SWAP1 PUSH2 0x2D55 JUMP JUMPDEST DUP6 DUP6 PUSH1 0x40 MLOAD PUSH2 0x141E SWAP4 SWAP3 SWAP2 SWAP1 PUSH2 0x2B25 JUMP JUMPDEST PUSH1 0x40 MLOAD DUP1 SWAP2 SUB SWAP1 LOG1 POP POP POP POP POP JUMP JUMPDEST PUSH1 0x60 PUSH1 0x3 DUP3 DUP2 SLOAD DUP2 LT PUSH2 0x1443 JUMPI PUSH2 0x1442 PUSH2 0x3038 JUMP JUMPDEST JUMPDEST SWAP1 PUSH1 0x0 MSTORE PUSH1 0x20 PUSH1 0x0 KECCAK256 SWAP1 PUSH1 0x8 MUL ADD PUSH1 0x7 ADD DUP1 SLOAD DUP1 PUSH1 0x20 MUL PUSH1 0x20 ADD PUSH1 0x40 MLOAD SWAP1 DUP2 ADD PUSH1 0x40 MSTORE DUP1 SWAP3 SWAP2 SWAP1 DUP2 DUP2 MSTORE PUSH1 0x20 ADD DUP3 DUP1 SLOAD DUP1 ISZERO PUSH2 0x14D4 JUMPI PUSH1 0x20 MUL DUP3 ADD SWAP2 SWAP1 PUSH1 0x0 MSTORE PUSH1 0x20 PUSH1 0x0 KECCAK256 SWAP1 JUMPDEST DUP2 PUSH1 0x0 SWAP1 SLOAD SWAP1 PUSH2 0x100 EXP SWAP1 DIV PUSH20 0xFFFFFFFFFFFFFFFFFFFFFFFFFFFFFFFFFFFFFFFF AND PUSH20 0xFFFFFFFFFFFFFFFFFFFFFFFFFFFFFFFFFFFFFFFF AND DUP2 MSTORE PUSH1 0x20 ADD SWAP1 PUSH1 0x1 ADD SWAP1 DUP1 DUP4 GT PUSH2 0x148A JUMPI JUMPDEST POP POP POP POP POP SWAP1 POP SWAP2 SWAP1 POP JUMP JUMPDEST PUSH1 0x0 JUMPDEST DUP3 DUP3 SWAP1 POP DUP2 LT ISZERO PUSH2 0x1A1C JUMPI CALLDATASIZE DUP4 DUP4 DUP4 DUP2 DUP2 LT PUSH2 0x1502 JUMPI PUSH2 0x1501 PUSH2 0x3038 JUMP JUMPDEST JUMPDEST SWAP1 POP PUSH1 0xA0 MUL ADD SWAP1 POP PUSH1 0x0 DUP2 PUSH1 0x0 ADD PUSH1 0x20 DUP2 ADD SWAP1 PUSH2 0x151F SWAP2 SWAP1 PUSH2 0x1F98 JUMP JUMPDEST DUP3 PUSH1 0x20 ADD CALLDATALOAD DUP4 PUSH1 0x40 ADD CALLDATALOAD PUSH1 0x40 MLOAD PUSH1 0x20 ADD PUSH2 0x153B SWAP4 SWAP3 SWAP2 SWAP1 PUSH2 0x278E JUMP JUMPDEST PUSH1 0x40 MLOAD PUSH1 0x20 DUP2 DUP4 SUB SUB DUP2 MSTORE SWAP1 PUSH1 0x40 MSTORE DUP1 MLOAD SWAP1 PUSH1 0x20 ADD KECCAK256 SWAP1 POP DUP2 PUSH1 0x0 ADD PUSH1 0x20 DUP2 ADD SWAP1 PUSH2 0x1566 SWAP2 SWAP1 PUSH2 0x1F98 JUMP JUMPDEST PUSH20 0xFFFFFFFFFFFFFFFFFFFFFFFFFFFFFFFFFFFFFFFF AND PUSH2 0x15B8 DUP4 PUSH1 0x60 ADD CALLDATALOAD DUP5 PUSH1 0x80 ADD CALLDATALOAD PUSH1 0x40 MLOAD PUSH1 0x20 ADD PUSH2 0x159A SWAP3 SWAP2 SWAP1 PUSH2 0x2835 JUMP JUMPDEST PUSH1 0x40 MLOAD PUSH1 0x20 DUP2 DUP4 SUB SUB DUP2 MSTORE SWAP1 PUSH1 0x40 MSTORE DUP4 PUSH2 0x1A5D SWAP1 SWAP2 SWAP1 PUSH4 0xFFFFFFFF AND JUMP JUMPDEST PUSH20 0xFFFFFFFFFFFFFFFFFFFFFFFFFFFFFFFFFFFFFFFF AND EQ ISZERO PUSH2 0x1A07 JUMPI PUSH1 0x0 PUSH1 0x1 DUP4 PUSH1 0x20 ADD CALLDATALOAD SWAP1 SHR SWAP1 POP PUSH1 0x0 DUP2 GT PUSH2 0x1624 JUMPI PUSH1 0x40 MLOAD PUSH32 0x8C379A000000000000000000000000000000000000000000000000000000000 DUP2 MSTORE PUSH1 0x4 ADD PUSH2 0x161B SWAP1 PUSH2 0x2A5F JUMP JUMPDEST PUSH1 0x40 MLOAD DUP1 SWAP2 SUB SWAP1 REVERT JUMPDEST PUSH1 0x3 DUP1 SLOAD SWAP1 POP DUP2 LT PUSH2 0x166B JUMPI PUSH1 0x40 MLOAD PUSH32 0x8C379A000000000000000000000000000000000000000000000000000000000 DUP2 MSTORE PUSH1 0x4 ADD PUSH2 0x1662 SWAP1 PUSH2 0x2A5F JUMP JUMPDEST PUSH1 0x40 MLOAD DUP1 SWAP2 SUB SWAP1 REVERT JUMPDEST PUSH1 0x0 PUSH1 0x3 DUP3 DUP2 SLOAD DUP2 LT PUSH2 0x1681 JUMPI PUSH2 0x1680 PUSH2 0x3038 JUMP JUMPDEST JUMPDEST SWAP1 PUSH1 0x0 MSTORE PUSH1 0x20 PUSH1 0x0 KECCAK256 SWAP1 PUSH1 0x8 MUL ADD SWAP1 POP TIMESTAMP DUP2 PUSH1 0x1 ADD SLOAD GT PUSH2 0x16D7 JUMPI PUSH1 0x40 MLOAD PUSH32 0x8C379A000000000000000000000000000000000000000000000000000000000 DUP2 MSTORE PUSH1 0x4 ADD PUSH2 0x16CE SWAP1 PUSH2 0x2A1F JUMP JUMPDEST PUSH1 0x40 MLOAD DUP1 SWAP2 SUB SWAP1 REVERT JUMPDEST PUSH1 0x0 ISZERO ISZERO PUSH1 0x5 PUSH1 0x0 DUP5 DUP2 MSTORE PUSH1 0x20 ADD SWAP1 DUP2 MSTORE PUSH1 0x20 ADD PUSH1 0x0 KECCAK256 PUSH1 0x0 DUP7 PUSH1 0x0 ADD PUSH1 0x20 DUP2 ADD SWAP1 PUSH2 0x1703 SWAP2 SWAP1 PUSH2 0x1F98 JUMP JUMPDEST PUSH20 0xFFFFFFFFFFFFFFFFFFFFFFFFFFFFFFFFFFFFFFFF AND PUSH20 0xFFFFFFFFFFFFFFFFFFFFFFFFFFFFFFFFFFFFFFFF AND DUP2 MSTORE PUSH1 0x20 ADD SWAP1 DUP2 MSTORE PUSH1 0x20 ADD PUSH1 0x0 KECCAK256 PUSH1 0x0 SWAP1 SLOAD SWAP1 PUSH2 0x100 EXP SWAP1 DIV PUSH1 0xFF AND ISZERO ISZERO EQ ISZERO PUSH2 0x1A04 JUMPI DUP4 PUSH1 0x40 ADD CALLDATALOAD PUSH1 0x2 PUSH1 0x0 SWAP1 SLOAD SWAP1 PUSH2 0x100 EXP SWAP1 DIV PUSH20 0xFFFFFFFFFFFFFFFFFFFFFFFFFFFFFFFFFFFFFFFF AND PUSH20 0xFFFFFFFFFFFFFFFFFFFFFFFFFFFFFFFFFFFFFFFF AND PUSH4 0x70A08231 DUP7 PUSH1 0x0 ADD PUSH1 0x20 DUP2 ADD SWAP1 PUSH2 0x17A9 SWAP2 SWAP1 PUSH2 0x1F98 JUMP JUMPDEST PUSH1 0x40 MLOAD DUP3 PUSH4 0xFFFFFFFF AND PUSH1 0xE0 SHL DUP2 MSTORE PUSH1 0x4 ADD PUSH2 0x17C5 SWAP2 SWAP1 PUSH2 0x27D6 JUMP JUMPDEST PUSH1 0x20 PUSH1 0x40 MLOAD DUP1 DUP4 SUB DUP2 DUP7 DUP1 EXTCODESIZE ISZERO DUP1 ISZERO PUSH2 0x17DD JUMPI PUSH1 0x0 DUP1 REVERT JUMPDEST POP GAS STATICCALL ISZERO DUP1 ISZERO PUSH2 0x17F1 JUMPI RETURNDATASIZE PUSH1 0x0 DUP1 RETURNDATACOPY RETURNDATASIZE PUSH1 0x0 REVERT JUMPDEST POP POP POP POP PUSH1 0x40 MLOAD RETURNDATASIZE PUSH1 0x1F NOT PUSH1 0x1F DUP3 ADD AND DUP3 ADD DUP1 PUSH1 0x40 MSTORE POP DUP2 ADD SWAP1 PUSH2 0x1815 SWAP2 SWAP1 PUSH2 0x215A JUMP JUMPDEST LT PUSH2 0x19B7 JUMPI PUSH1 0x1 DUP1 DUP6 PUSH1 0x20 ADD CALLDATALOAD AND EQ ISZERO PUSH2 0x1851 JUMPI PUSH2 0x1844 DUP5 PUSH1 0x40 ADD CALLDATALOAD DUP3 PUSH1 0x4 ADD SLOAD PUSH2 0x1A47 SWAP1 SWAP2 SWAP1 PUSH4 0xFFFFFFFF AND JUMP JUMPDEST DUP2 PUSH1 0x4 ADD DUP2 SWAP1 SSTORE POP PUSH2 0x1875 JUMP JUMPDEST PUSH2 0x186C DUP5 PUSH1 0x40 ADD CALLDATALOAD DUP3 PUSH1 0x5 ADD SLOAD PUSH2 0x1A47 SWAP1 SWAP2 SWAP1 PUSH4 0xFFFFFFFF AND JUMP JUMPDEST DUP2 PUSH1 0x5 ADD DUP2 SWAP1 SSTORE POP JUMPDEST DUP1 PUSH1 0x7 ADD DUP5 PUSH1 0x0 ADD PUSH1 0x20 DUP2 ADD SWAP1 PUSH2 0x188C SWAP2 SWAP1 PUSH2 0x1F98 JUMP JUMPDEST SWAP1 DUP1 PUSH1 0x1 DUP2 SLOAD ADD DUP1 DUP3 SSTORE DUP1 SWAP2 POP POP PUSH1 0x1 SWAP1 SUB SWAP1 PUSH1 0x0 MSTORE PUSH1 0x20 PUSH1 0x0 KECCAK256 ADD PUSH1 0x0 SWAP1 SWAP2 SWAP1 SWAP2 SWAP1 SWAP2 PUSH2 0x100 EXP DUP2 SLOAD DUP2 PUSH20 0xFFFFFFFFFFFFFFFFFFFFFFFFFFFFFFFFFFFFFFFF MUL NOT AND SWAP1 DUP4 PUSH20 0xFFFFFFFFFFFFFFFFFFFFFFFFFFFFFFFFFFFFFFFF AND MUL OR SWAP1 SSTORE POP PUSH1 0x1 PUSH1 0x5 PUSH1 0x0 DUP5 DUP2 MSTORE PUSH1 0x20 ADD SWAP1 DUP2 MSTORE PUSH1 0x20 ADD PUSH1 0x0 KECCAK256 PUSH1 0x0 DUP7 PUSH1 0x0 ADD PUSH1 0x20 DUP2 ADD SWAP1 PUSH2 0x1916 SWAP2 SWAP1 PUSH2 0x1F98 JUMP JUMPDEST PUSH20 0xFFFFFFFFFFFFFFFFFFFFFFFFFFFFFFFFFFFFFFFF AND PUSH20 0xFFFFFFFFFFFFFFFFFFFFFFFFFFFFFFFFFFFFFFFF AND DUP2 MSTORE PUSH1 0x20 ADD SWAP1 DUP2 MSTORE PUSH1 0x20 ADD PUSH1 0x0 KECCAK256 PUSH1 0x0 PUSH2 0x100 EXP DUP2 SLOAD DUP2 PUSH1 0xFF MUL NOT AND SWAP1 DUP4 ISZERO ISZERO MUL OR SWAP1 SSTORE POP PUSH32 0xF1003B73C437642C0460AEE9CD9628B0B8C447B66E6C7C905531B9C644214A11 DUP3 DUP6 PUSH1 0x0 ADD PUSH1 0x20 DUP2 ADD SWAP1 PUSH2 0x199C SWAP2 SWAP1 PUSH2 0x1F98 JUMP JUMPDEST PUSH1 0x40 MLOAD PUSH2 0x19AA SWAP3 SWAP2 SWAP1 PUSH2 0x2AFC JUMP JUMPDEST PUSH1 0x40 MLOAD DUP1 SWAP2 SUB SWAP1 LOG1 PUSH2 0x1A03 JUMP JUMPDEST PUSH32 0x52DE8A8B06EE845DD9537EF3906E0A37D48C140E75F780715EE892F0EE08C052 DUP3 DUP6 PUSH1 0x0 ADD PUSH1 0x20 DUP2 ADD SWAP1 PUSH2 0x19EC SWAP2 SWAP1 PUSH2 0x1F98 JUMP JUMPDEST PUSH1 0x40 MLOAD PUSH2 0x19FA SWAP3 SWAP2 SWAP1 PUSH2 0x2AFC JUMP JUMPDEST PUSH1 0x40 MLOAD DUP1 SWAP2 SUB SWAP1 LOG1 JUMPDEST JUMPDEST POP POP JUMPDEST POP POP DUP1 DUP1 PUSH2 0x1A14 SWAP1 PUSH2 0x2F05 JUMP JUMPDEST SWAP2 POP POP PUSH2 0x14E3 JUMP JUMPDEST POP POP POP JUMP JUMPDEST PUSH1 0x2 PUSH1 0x0 SWAP1 SLOAD SWAP1 PUSH2 0x100 EXP SWAP1 DIV PUSH20 0xFFFFFFFFFFFFFFFFFFFFFFFFFFFFFFFFFFFFFFFF AND DUP2 JUMP JUMPDEST PUSH1 0x0 DUP2 DUP4 PUSH2 0x1A55 SWAP2 SWAP1 PUSH2 0x2CFF JUMP JUMPDEST SWAP1 POP SWAP3 SWAP2 POP POP JUMP JUMPDEST PUSH1 0x0 PUSH1 0x41 DUP3 MLOAD EQ ISZERO PUSH2 0x1A9C JUMPI PUSH1 0x0 DUP1 PUSH1 0x0 PUSH1 0x20 DUP6 ADD MLOAD SWAP3 POP PUSH1 0x40 DUP6 ADD MLOAD SWAP2 POP PUSH1 0x60 DUP6 ADD MLOAD PUSH1 0x0 BYTE SWAP1 POP PUSH2 0x1A92 DUP7 DUP3 DUP6 DUP6 PUSH2 0x1B0C JUMP JUMPDEST SWAP4 POP POP POP POP PUSH2 0x1B06 JUMP JUMPDEST PUSH1 0x40 DUP3 MLOAD EQ ISZERO PUSH2 0x1ACB JUMPI PUSH1 0x0 DUP1 PUSH1 0x20 DUP5 ADD MLOAD SWAP2 POP PUSH1 0x40 DUP5 ADD MLOAD SWAP1 POP PUSH2 0x1AC2 DUP6 DUP4 DUP4 PUSH2 0x1C97 JUMP JUMPDEST SWAP3 POP POP POP PUSH2 0x1B06 JUMP JUMPDEST PUSH1 0x40 MLOAD PUSH32 0x8C379A000000000000000000000000000000000000000000000000000000000 DUP2 MSTORE PUSH1 0x4 ADD PUSH2 0x1AFD SWAP1 PUSH2 0x293F JUMP JUMPDEST PUSH1 0x40 MLOAD DUP1 SWAP2 SUB SWAP1 REVERT JUMPDEST SWAP3 SWAP2 POP POP JUMP JUMPDEST PUSH1 0x0 PUSH32 0x7FFFFFFFFFFFFFFFFFFFFFFFFFFFFFFF5D576E7357A4501DDFE92F46681B20A0 DUP3 PUSH1 0x0 SHR GT ISZERO PUSH2 0x1B74 JUMPI PUSH1 0x40 MLOAD PUSH32 0x8C379A000000000000000000000000000000000000000000000000000000000 DUP2 MSTORE PUSH1 0x4 ADD PUSH2 0x1B6B SWAP1 PUSH2 0x29DF JUMP JUMPDEST PUSH1 0x40 MLOAD DUP1 SWAP2 SUB SWAP1 REVERT JUMPDEST PUSH1 0x1B DUP5 PUSH1 0xFF AND EQ DUP1 PUSH2 0x1B89 JUMPI POP PUSH1 0x1C DUP5 PUSH1 0xFF AND EQ JUMPDEST PUSH2 0x1BC8 JUMPI PUSH1 0x40 MLOAD PUSH32 0x8C379A000000000000000000000000000000000000000000000000000000000 DUP2 MSTORE PUSH1 0x4 ADD PUSH2 0x1BBF SWAP1 PUSH2 0x29FF JUMP JUMPDEST PUSH1 0x40 MLOAD DUP1 SWAP2 SUB SWAP1 REVERT JUMPDEST PUSH1 0x0 PUSH1 0x1 DUP7 DUP7 DUP7 DUP7 PUSH1 0x40 MLOAD PUSH1 0x0 DUP2 MSTORE PUSH1 0x20 ADD PUSH1 0x40 MSTORE PUSH1 0x40 MLOAD PUSH2 0x1BED SWAP5 SWAP4 SWAP3 SWAP2 SWAP1 PUSH2 0x285E JUMP JUMPDEST PUSH1 0x20 PUSH1 0x40 MLOAD PUSH1 0x20 DUP2 SUB SWAP1 DUP1 DUP5 SUB SWAP1 DUP6 GAS STATICCALL ISZERO DUP1 ISZERO PUSH2 0x1C0F JUMPI RETURNDATASIZE PUSH1 0x0 DUP1 RETURNDATACOPY RETURNDATASIZE PUSH1 0x0 REVERT JUMPDEST POP POP POP PUSH1 0x20 PUSH1 0x40 MLOAD SUB MLOAD SWAP1 POP PUSH1 0x0 PUSH20 0xFFFFFFFFFFFFFFFFFFFFFFFFFFFFFFFFFFFFFFFF AND DUP2 PUSH20 0xFFFFFFFFFFFFFFFFFFFFFFFFFFFFFFFFFFFFFFFF AND EQ ISZERO PUSH2 0x1C8B JUMPI PUSH1 0x40 MLOAD PUSH32 0x8C379A000000000000000000000000000000000000000000000000000000000 DUP2 MSTORE PUSH1 0x4 ADD PUSH2 0x1C82 SWAP1 PUSH2 0x291F JUMP JUMPDEST PUSH1 0x40 MLOAD DUP1 SWAP2 SUB SWAP1 REVERT JUMPDEST DUP1 SWAP2 POP POP SWAP5 SWAP4 POP POP POP POP JUMP JUMPDEST PUSH1 0x0 DUP1 PUSH1 0x0 PUSH32 0x7FFFFFFFFFFFFFFFFFFFFFFFFFFFFFFFFFFFFFFFFFFFFFFFFFFFFFFFFFFFFFFF DUP5 AND SWAP2 POP PUSH1 0x1B DUP5 PUSH1 0xFF SHR ADD SWAP1 POP PUSH2 0x1CD6 DUP7 DUP3 DUP8 DUP6 PUSH2 0x1B0C JUMP JUMPDEST SWAP3 POP POP POP SWAP4 SWAP3 POP POP POP JUMP JUMPDEST PUSH1 0x40 MLOAD DUP1 PUSH2 0x120 ADD PUSH1 0x40 MSTORE DUP1 PUSH1 0x0 DUP2 MSTORE PUSH1 0x20 ADD PUSH1 0x0 DUP2 MSTORE PUSH1 0x20 ADD PUSH1 0x0 PUSH1 0x1 DUP2 GT ISZERO PUSH2 0x1D0F JUMPI PUSH2 0x1D0E PUSH2 0x2FAB JUMP JUMPDEST JUMPDEST DUP2 MSTORE PUSH1 0x20 ADD PUSH1 0x0 ISZERO ISZERO DUP2 MSTORE PUSH1 0x20 ADD PUSH1 0x60 DUP2 MSTORE PUSH1 0x20 ADD PUSH1 0x0 DUP2 MSTORE PUSH1 0x20 ADD PUSH1 0x0 DUP2 MSTORE PUSH1 0x20 ADD PUSH1 0x0 DUP2 MSTORE PUSH1 0x20 ADD PUSH1 0x60 DUP2 MSTORE POP SWAP1 JUMP JUMPDEST DUP3 DUP1 SLOAD PUSH2 0x1D4D SWAP1 PUSH2 0x2ED3 JUMP JUMPDEST SWAP1 PUSH1 0x0 MSTORE PUSH1 0x20 PUSH1 0x0 KECCAK256 SWAP1 PUSH1 0x1F ADD PUSH1 0x20 SWAP1 DIV DUP2 ADD SWAP3 DUP3 PUSH2 0x1D6F JUMPI PUSH1 0x0 DUP6 SSTORE PUSH2 0x1DB6 JUMP JUMPDEST DUP3 PUSH1 0x1F LT PUSH2 0x1D88 JUMPI DUP1 MLOAD PUSH1 0xFF NOT AND DUP4 DUP1 ADD OR DUP6 SSTORE PUSH2 0x1DB6 JUMP JUMPDEST DUP3 DUP1 ADD PUSH1 0x1 ADD DUP6 SSTORE DUP3 ISZERO PUSH2 0x1DB6 JUMPI SWAP2 DUP3 ADD JUMPDEST DUP3 DUP2 GT ISZERO PUSH2 0x1DB5 JUMPI DUP3 MLOAD DUP3 SSTORE SWAP2 PUSH1 0x20 ADD SWAP2 SWAP1 PUSH1 0x1 ADD SWAP1 PUSH2 0x1D9A JUMP JUMPDEST JUMPDEST POP SWAP1 POP PUSH2 0x1DC3 SWAP2 SWAP1 PUSH2 0x1E51 JUMP JUMPDEST POP SWAP1 JUMP JUMPDEST DUP3 DUP1 SLOAD DUP3 DUP3 SSTORE SWAP1 PUSH1 0x0 MSTORE PUSH1 0x20 PUSH1 0x0 KECCAK256 SWAP1 DUP2 ADD SWAP3 DUP3 ISZERO PUSH2 0x1E40 JUMPI SWAP2 PUSH1 0x20 MUL DUP3 ADD JUMPDEST DUP3 DUP2 GT ISZERO PUSH2 0x1E3F JUMPI DUP3 MLOAD DUP3 PUSH1 0x0 PUSH2 0x100 EXP DUP2 SLOAD DUP2 PUSH20 0xFFFFFFFFFFFFFFFFFFFFFFFFFFFFFFFFFFFFFFFF MUL NOT AND SWAP1 DUP4 PUSH20 0xFFFFFFFFFFFFFFFFFFFFFFFFFFFFFFFFFFFFFFFF AND MUL OR SWAP1 SSTORE POP SWAP2 PUSH1 0x20 ADD SWAP2 SWAP1 PUSH1 0x1 ADD SWAP1 PUSH2 0x1DE7 JUMP JUMPDEST JUMPDEST POP SWAP1 POP PUSH2 0x1E4D SWAP2 SWAP1 PUSH2 0x1E51 JUMP JUMPDEST POP SWAP1 JUMP JUMPDEST JUMPDEST DUP1 DUP3 GT ISZERO PUSH2 0x1E6A JUMPI PUSH1 0x0 DUP2 PUSH1 0x0 SWAP1 SSTORE POP PUSH1 0x1 ADD PUSH2 0x1E52 JUMP JUMPDEST POP SWAP1 JUMP JUMPDEST PUSH1 0x0 DUP2 CALLDATALOAD SWAP1 POP PUSH2 0x1E7D DUP2 PUSH2 0x333C JUMP JUMPDEST SWAP3 SWAP2 POP POP JUMP JUMPDEST PUSH1 0x0 DUP1 DUP4 PUSH1 0x1F DUP5 ADD SLT PUSH2 0x1E99 JUMPI PUSH2 0x1E98 PUSH2 0x306C JUMP JUMPDEST JUMPDEST DUP3 CALLDATALOAD SWAP1 POP PUSH8 0xFFFFFFFFFFFFFFFF DUP2 GT ISZERO PUSH2 0x1EB6 JUMPI PUSH2 0x1EB5 PUSH2 0x3067 JUMP JUMPDEST JUMPDEST PUSH1 0x20 DUP4 ADD SWAP2 POP DUP4 PUSH1 0xA0 DUP3 MUL DUP4 ADD GT ISZERO PUSH2 0x1ED2 JUMPI PUSH2 0x1ED1 PUSH2 0x3071 JUMP JUMPDEST JUMPDEST SWAP3 POP SWAP3 SWAP1 POP JUMP JUMPDEST PUSH1 0x0 DUP2 MLOAD SWAP1 POP PUSH2 0x1EE8 DUP2 PUSH2 0x3353 JUMP JUMPDEST SWAP3 SWAP2 POP POP JUMP JUMPDEST PUSH1 0x0 DUP1 DUP4 PUSH1 0x1F DUP5 ADD SLT PUSH2 0x1F04 JUMPI PUSH2 0x1F03 PUSH2 0x306C JUMP JUMPDEST JUMPDEST DUP3 CALLDATALOAD SWAP1 POP PUSH8 0xFFFFFFFFFFFFFFFF DUP2 GT ISZERO PUSH2 0x1F21 JUMPI PUSH2 0x1F20 PUSH2 0x3067 JUMP JUMPDEST JUMPDEST PUSH1 0x20 DUP4 ADD SWAP2 POP DUP4 PUSH1 0x1 DUP3 MUL DUP4 ADD GT ISZERO PUSH2 0x1F3D JUMPI PUSH2 0x1F3C PUSH2 0x3071 JUMP JUMPDEST JUMPDEST SWAP3 POP SWAP3 SWAP1 POP JUMP JUMPDEST PUSH1 0x0 DUP2 CALLDATALOAD SWAP1 POP PUSH2 0x1F53 DUP2 PUSH2 0x336A JUMP JUMPDEST SWAP3 SWAP2 POP POP JUMP JUMPDEST PUSH1 0x0 DUP2 CALLDATALOAD SWAP1 POP PUSH2 0x1F68 DUP2 PUSH2 0x3381 JUMP JUMPDEST SWAP3 SWAP2 POP POP JUMP JUMPDEST PUSH1 0x0 DUP2 CALLDATALOAD SWAP1 POP PUSH2 0x1F7D DUP2 PUSH2 0x3391 JUMP JUMPDEST SWAP3 SWAP2 POP POP JUMP JUMPDEST PUSH1 0x0 DUP2 MLOAD SWAP1 POP PUSH2 0x1F92 DUP2 PUSH2 0x3391 JUMP JUMPDEST SWAP3 SWAP2 POP POP JUMP JUMPDEST PUSH1 0x0 PUSH1 0x20 DUP3 DUP5 SUB SLT ISZERO PUSH2 0x1FAE JUMPI PUSH2 0x1FAD PUSH2 0x307B JUMP JUMPDEST JUMPDEST PUSH1 0x0 PUSH2 0x1FBC DUP5 DUP3 DUP6 ADD PUSH2 0x1E6E JUMP JUMPDEST SWAP2 POP POP SWAP3 SWAP2 POP POP JUMP JUMPDEST PUSH1 0x0 DUP1 PUSH1 0x20 DUP4 DUP6 SUB SLT ISZERO PUSH2 0x1FDC JUMPI PUSH2 0x1FDB PUSH2 0x307B JUMP JUMPDEST JUMPDEST PUSH1 0x0 DUP4 ADD CALLDATALOAD PUSH8 0xFFFFFFFFFFFFFFFF DUP2 GT ISZERO PUSH2 0x1FFA JUMPI PUSH2 0x1FF9 PUSH2 0x3076 JUMP JUMPDEST JUMPDEST PUSH2 0x2006 DUP6 DUP3 DUP7 ADD PUSH2 0x1E83 JUMP JUMPDEST SWAP3 POP SWAP3 POP POP SWAP3 POP SWAP3 SWAP1 POP JUMP JUMPDEST PUSH1 0x0 PUSH1 0x20 DUP3 DUP5 SUB SLT ISZERO PUSH2 0x2028 JUMPI PUSH2 0x2027 PUSH2 0x307B JUMP JUMPDEST JUMPDEST PUSH1 0x0 PUSH2 0x2036 DUP5 DUP3 DUP6 ADD PUSH2 0x1ED9 JUMP JUMPDEST SWAP2 POP POP SWAP3 SWAP2 POP POP JUMP JUMPDEST PUSH1 0x0 DUP1 PUSH1 0x20 DUP4 DUP6 SUB SLT ISZERO PUSH2 0x2056 JUMPI PUSH2 0x2055 PUSH2 0x307B JUMP JUMPDEST JUMPDEST PUSH1 0x0 DUP4 ADD CALLDATALOAD PUSH8 0xFFFFFFFFFFFFFFFF DUP2 GT ISZERO PUSH2 0x2074 JUMPI PUSH2 0x2073 PUSH2 0x3076 JUMP JUMPDEST JUMPDEST PUSH2 0x2080 DUP6 DUP3 DUP7 ADD PUSH2 0x1EEE JUMP JUMPDEST SWAP3 POP SWAP3 POP POP SWAP3 POP SWAP3 SWAP1 POP JUMP JUMPDEST PUSH1 0x0 PUSH1 0x20 DUP3 DUP5 SUB SLT ISZERO PUSH2 0x20A2 JUMPI PUSH2 0x20A1 PUSH2 0x307B JUMP JUMPDEST JUMPDEST PUSH1 0x0 PUSH2 0x20B0 DUP5 DUP3 DUP6 ADD PUSH2 0x1F44 JUMP JUMPDEST SWAP2 POP POP SWAP3 SWAP2 POP POP JUMP JUMPDEST PUSH1 0x0 DUP1 PUSH1 0x0 DUP1 PUSH1 0x60 DUP6 DUP8 SUB SLT ISZERO PUSH2 0x20D3 JUMPI PUSH2 0x20D2 PUSH2 0x307B JUMP JUMPDEST JUMPDEST PUSH1 0x0 PUSH2 0x20E1 DUP8 DUP3 DUP9 ADD PUSH2 0x1F59 JUMP JUMPDEST SWAP5 POP POP PUSH1 0x20 DUP6 ADD CALLDATALOAD PUSH8 0xFFFFFFFFFFFFFFFF DUP2 GT ISZERO PUSH2 0x2102 JUMPI PUSH2 0x2101 PUSH2 0x3076 JUMP JUMPDEST JUMPDEST PUSH2 0x210E DUP8 DUP3 DUP9 ADD PUSH2 0x1EEE JUMP JUMPDEST SWAP4 POP SWAP4 POP POP PUSH1 0x40 PUSH2 0x2121 DUP8 DUP3 DUP9 ADD PUSH2 0x1F6E JUMP JUMPDEST SWAP2 POP POP SWAP3 SWAP6 SWAP2 SWAP5 POP SWAP3 POP JUMP JUMPDEST PUSH1 0x0 PUSH1 0x20 DUP3 DUP5 SUB SLT ISZERO PUSH2 0x2143 JUMPI PUSH2 0x2142 PUSH2 0x307B JUMP JUMPDEST JUMPDEST PUSH1 0x0 PUSH2 0x2151 DUP5 DUP3 DUP6 ADD PUSH2 0x1F6E JUMP JUMPDEST SWAP2 POP POP SWAP3 SWAP2 POP POP JUMP JUMPDEST PUSH1 0x0 PUSH1 0x20 DUP3 DUP5 SUB SLT ISZERO PUSH2 0x2170 JUMPI PUSH2 0x216F PUSH2 0x307B JUMP JUMPDEST JUMPDEST PUSH1 0x0 PUSH2 0x217E DUP5 DUP3 DUP6 ADD PUSH2 0x1F83 JUMP JUMPDEST SWAP2 POP POP SWAP3 SWAP2 POP POP JUMP JUMPDEST PUSH1 0x0 PUSH2 0x2193 DUP4 DUP4 PUSH2 0x21B7 JUMP JUMPDEST PUSH1 0x20 DUP4 ADD SWAP1 POP SWAP3 SWAP2 POP POP JUMP JUMPDEST PUSH1 0x0 PUSH2 0x21AB DUP4 DUP4 PUSH2 0x271A JUMP JUMPDEST PUSH1 0x20 DUP4 ADD SWAP1 POP SWAP3 SWAP2 POP POP JUMP JUMPDEST PUSH2 0x21C0 DUP2 PUSH2 0x2D89 JUMP JUMPDEST DUP3 MSTORE POP POP JUMP JUMPDEST PUSH2 0x21CF DUP2 PUSH2 0x2D89 JUMP JUMPDEST DUP3 MSTORE POP POP JUMP JUMPDEST PUSH2 0x21E6 PUSH2 0x21E1 DUP3 PUSH2 0x2D89 JUMP JUMPDEST PUSH2 0x2F4E JUMP JUMPDEST DUP3 MSTORE POP POP JUMP JUMPDEST PUSH1 0x0 PUSH2 0x21F7 DUP3 PUSH2 0x2C48 JUMP JUMPDEST PUSH2 0x2201 DUP2 DUP6 PUSH2 0x2C83 JUMP JUMPDEST SWAP4 POP PUSH2 0x220C DUP4 PUSH2 0x2C28 JUMP JUMPDEST DUP1 PUSH1 0x0 JUMPDEST DUP4 DUP2 LT ISZERO PUSH2 0x223D JUMPI DUP2 MLOAD PUSH2 0x2224 DUP9 DUP3 PUSH2 0x2187 JUMP JUMPDEST SWAP8 POP PUSH2 0x222F DUP4 PUSH2 0x2C69 JUMP JUMPDEST SWAP3 POP POP PUSH1 0x1 DUP2 ADD SWAP1 POP PUSH2 0x2210 JUMP JUMPDEST POP DUP6 SWAP4 POP POP POP POP SWAP3 SWAP2 POP POP JUMP JUMPDEST PUSH1 0x0 PUSH2 0x2255 DUP3 PUSH2 0x2C48 JUMP JUMPDEST PUSH2 0x225F DUP2 DUP6 PUSH2 0x2C94 JUMP JUMPDEST SWAP4 POP PUSH2 0x226A DUP4 PUSH2 0x2C28 JUMP JUMPDEST DUP1 PUSH1 0x0 JUMPDEST DUP4 DUP2 LT ISZERO PUSH2 0x229B JUMPI DUP2 MLOAD PUSH2 0x2282 DUP9 DUP3 PUSH2 0x2187 JUMP JUMPDEST SWAP8 POP PUSH2 0x228D DUP4 PUSH2 0x2C69 JUMP JUMPDEST SWAP3 POP POP PUSH1 0x1 DUP2 ADD SWAP1 POP PUSH2 0x226E JUMP JUMPDEST POP DUP6 SWAP4 POP POP POP POP SWAP3 SWAP2 POP POP JUMP JUMPDEST PUSH1 0x0 PUSH2 0x22B3 DUP3 PUSH2 0x2C53 JUMP JUMPDEST PUSH2 0x22BD DUP2 DUP6 PUSH2 0x2CA5 JUMP JUMPDEST SWAP4 POP PUSH2 0x22C8 DUP4 PUSH2 0x2C38 JUMP JUMPDEST DUP1 PUSH1 0x0 JUMPDEST DUP4 DUP2 LT ISZERO PUSH2 0x22F9 JUMPI DUP2 MLOAD PUSH2 0x22E0 DUP9 DUP3 PUSH2 0x219F JUMP JUMPDEST SWAP8 POP PUSH2 0x22EB DUP4 PUSH2 0x2C76 JUMP JUMPDEST SWAP3 POP POP PUSH1 0x1 DUP2 ADD SWAP1 POP PUSH2 0x22CC JUMP JUMPDEST POP DUP6 SWAP4 POP POP POP POP SWAP3 SWAP2 POP POP JUMP JUMPDEST PUSH2 0x230F DUP2 PUSH2 0x2D9B JUMP JUMPDEST DUP3 MSTORE POP POP JUMP JUMPDEST PUSH2 0x231E DUP2 PUSH2 0x2D9B JUMP JUMPDEST DUP3 MSTORE POP POP JUMP JUMPDEST PUSH2 0x232D DUP2 PUSH2 0x2DA7 JUMP JUMPDEST DUP3 MSTORE POP POP JUMP JUMPDEST PUSH1 0x0 PUSH2 0x233F DUP4 DUP6 PUSH2 0x2CC7 JUMP JUMPDEST SWAP4 POP PUSH2 0x234C DUP4 DUP6 DUP5 PUSH2 0x2E67 JUMP JUMPDEST PUSH2 0x2355 DUP4 PUSH2 0x3080 JUMP JUMPDEST DUP5 ADD SWAP1 POP SWAP4 SWAP3 POP POP POP JUMP JUMPDEST PUSH1 0x0 PUSH2 0x236C DUP4 DUP6 PUSH2 0x2CD8 JUMP JUMPDEST SWAP4 POP PUSH2 0x2379 DUP4 DUP6 DUP5 PUSH2 0x2E67 JUMP JUMPDEST DUP3 DUP5 ADD SWAP1 POP SWAP4 SWAP3 POP POP POP JUMP JUMPDEST PUSH1 0x0 PUSH2 0x2390 DUP3 PUSH2 0x2C5E JUMP JUMPDEST PUSH2 0x239A DUP2 DUP6 PUSH2 0x2CB6 JUMP JUMPDEST SWAP4 POP PUSH2 0x23AA DUP2 DUP6 PUSH1 0x20 DUP7 ADD PUSH2 0x2E76 JUMP JUMPDEST PUSH2 0x23B3 DUP2 PUSH2 0x3080 JUMP JUMPDEST DUP5 ADD SWAP2 POP POP SWAP3 SWAP2 POP POP JUMP JUMPDEST PUSH1 0x0 PUSH2 0x23C9 DUP3 PUSH2 0x2C5E JUMP JUMPDEST PUSH2 0x23D3 DUP2 DUP6 PUSH2 0x2CC7 JUMP JUMPDEST SWAP4 POP PUSH2 0x23E3 DUP2 DUP6 PUSH1 0x20 DUP7 ADD PUSH2 0x2E76 JUMP JUMPDEST PUSH2 0x23EC DUP2 PUSH2 0x3080 JUMP JUMPDEST DUP5 ADD SWAP2 POP POP SWAP3 SWAP2 POP POP JUMP JUMPDEST PUSH1 0x0 PUSH2 0x2402 DUP3 PUSH2 0x2C5E JUMP JUMPDEST PUSH2 0x240C DUP2 DUP6 PUSH2 0x2CD8 JUMP JUMPDEST SWAP4 POP PUSH2 0x241C DUP2 DUP6 PUSH1 0x20 DUP7 ADD PUSH2 0x2E76 JUMP JUMPDEST DUP1 DUP5 ADD SWAP2 POP POP SWAP3 SWAP2 POP POP JUMP JUMPDEST PUSH2 0x2431 DUP2 PUSH2 0x2E0D JUMP JUMPDEST DUP3 MSTORE POP POP JUMP JUMPDEST PUSH2 0x2440 DUP2 PUSH2 0x2E31 JUMP JUMPDEST DUP3 MSTORE POP POP JUMP JUMPDEST PUSH2 0x244F DUP2 PUSH2 0x2E55 JUMP JUMPDEST DUP3 MSTORE POP POP JUMP JUMPDEST PUSH2 0x245E DUP2 PUSH2 0x2E55 JUMP JUMPDEST DUP3 MSTORE POP POP JUMP JUMPDEST PUSH1 0x0 PUSH2 0x2471 PUSH1 0x18 DUP4 PUSH2 0x2CE3 JUMP JUMPDEST SWAP2 POP PUSH2 0x247C DUP3 PUSH2 0x309E JUMP JUMPDEST PUSH1 0x20 DUP3 ADD SWAP1 POP SWAP2 SWAP1 POP JUMP JUMPDEST PUSH1 0x0 PUSH2 0x2494 PUSH1 0x1F DUP4 PUSH2 0x2CE3 JUMP JUMPDEST SWAP2 POP PUSH2 0x249F DUP3 PUSH2 0x30C7 JUMP JUMPDEST PUSH1 0x20 DUP3 ADD SWAP1 POP SWAP2 SWAP1 POP JUMP JUMPDEST PUSH1 0x0 PUSH2 0x24B7 PUSH1 0x1A DUP4 PUSH2 0x2CE3 JUMP JUMPDEST SWAP2 POP PUSH2 0x24C2 DUP3 PUSH2 0x30F0 JUMP JUMPDEST PUSH1 0x20 DUP3 ADD SWAP1 POP SWAP2 SWAP1 POP JUMP JUMPDEST PUSH1 0x0 PUSH2 0x24DA PUSH1 0x16 DUP4 PUSH2 0x2CE3 JUMP JUMPDEST SWAP2 POP PUSH2 0x24E5 DUP3 PUSH2 0x3119 JUMP JUMPDEST PUSH1 0x20 DUP3 ADD SWAP1 POP SWAP2 SWAP1 POP JUMP JUMPDEST PUSH1 0x0 PUSH2 0x24FD PUSH1 0x14 DUP4 PUSH2 0x2CE3 JUMP JUMPDEST SWAP2 POP PUSH2 0x2508 DUP3 PUSH2 0x3142 JUMP JUMPDEST PUSH1 0x20 DUP3 ADD SWAP1 POP SWAP2 SWAP1 POP JUMP JUMPDEST PUSH1 0x0 PUSH2 0x2520 PUSH1 0x10 DUP4 PUSH2 0x2CE3 JUMP JUMPDEST SWAP2 POP PUSH2 0x252B DUP3 PUSH2 0x316B JUMP JUMPDEST PUSH1 0x20 DUP3 ADD SWAP1 POP SWAP2 SWAP1 POP JUMP JUMPDEST PUSH1 0x0 PUSH2 0x2543 PUSH1 0x22 DUP4 PUSH2 0x2CE3 JUMP JUMPDEST SWAP2 POP PUSH2 0x254E DUP3 PUSH2 0x3194 JUMP JUMPDEST PUSH1 0x40 DUP3 ADD SWAP1 POP SWAP2 SWAP1 POP JUMP JUMPDEST PUSH1 0x0 PUSH2 0x2566 PUSH1 0x22 DUP4 PUSH2 0x2CE3 JUMP JUMPDEST SWAP2 POP PUSH2 0x2571 DUP3 PUSH2 0x31E3 JUMP JUMPDEST PUSH1 0x40 DUP3 ADD SWAP1 POP SWAP2 SWAP1 POP JUMP JUMPDEST PUSH1 0x0 PUSH2 0x2589 PUSH1 0xB DUP4 PUSH2 0x2CE3 JUMP JUMPDEST SWAP2 POP PUSH2 0x2594 DUP3 PUSH2 0x3232 JUMP JUMPDEST PUSH1 0x20 DUP3 ADD SWAP1 POP SWAP2 SWAP1 POP JUMP JUMPDEST PUSH1 0x0 PUSH2 0x25AC PUSH1 0x12 DUP4 PUSH2 0x2CE3 JUMP JUMPDEST SWAP2 POP PUSH2 0x25B7 DUP3 PUSH2 0x325B JUMP JUMPDEST PUSH1 0x20 DUP3 ADD SWAP1 POP SWAP2 SWAP1 POP JUMP JUMPDEST PUSH1 0x0 PUSH2 0x25CF PUSH1 0xE DUP4 PUSH2 0x2CE3 JUMP JUMPDEST SWAP2 POP PUSH2 0x25DA DUP3 PUSH2 0x3284 JUMP JUMPDEST PUSH1 0x20 DUP3 ADD SWAP1 POP SWAP2 SWAP1 POP JUMP JUMPDEST PUSH1 0x0 PUSH2 0x25F2 PUSH1 0x1C DUP4 PUSH2 0x2CF4 JUMP JUMPDEST SWAP2 POP PUSH2 0x25FD DUP3 PUSH2 0x32AD JUMP JUMPDEST PUSH1 0x1C DUP3 ADD SWAP1 POP SWAP2 SWAP1 POP JUMP JUMPDEST PUSH1 0x0 PUSH2 0x2615 PUSH1 0x9 DUP4 PUSH2 0x2CE3 JUMP JUMPDEST SWAP2 POP PUSH2 0x2620 DUP3 PUSH2 0x32D6 JUMP JUMPDEST PUSH1 0x20 DUP3 ADD SWAP1 POP SWAP2 SWAP1 POP JUMP JUMPDEST PUSH1 0x0 PUSH2 0x2638 PUSH1 0x1E DUP4 PUSH2 0x2CE3 JUMP JUMPDEST SWAP2 POP PUSH2 0x2643 DUP3 PUSH2 0x32FF JUMP JUMPDEST PUSH1 0x20 DUP3 ADD SWAP1 POP SWAP2 SWAP1 POP JUMP JUMPDEST PUSH1 0x0 PUSH2 0x120 DUP4 ADD PUSH1 0x0 DUP4 ADD MLOAD PUSH2 0x2667 PUSH1 0x0 DUP7 ADD DUP3 PUSH2 0x271A JUMP JUMPDEST POP PUSH1 0x20 DUP4 ADD MLOAD PUSH2 0x267A PUSH1 0x20 DUP7 ADD DUP3 PUSH2 0x271A JUMP JUMPDEST POP PUSH1 0x40 DUP4 ADD MLOAD PUSH2 0x268D PUSH1 0x40 DUP7 ADD DUP3 PUSH2 0x2446 JUMP JUMPDEST POP PUSH1 0x60 DUP4 ADD MLOAD PUSH2 0x26A0 PUSH1 0x60 DUP7 ADD DUP3 PUSH2 0x2306 JUMP JUMPDEST POP PUSH1 0x80 DUP4 ADD MLOAD DUP5 DUP3 SUB PUSH1 0x80 DUP7 ADD MSTORE PUSH2 0x26B8 DUP3 DUP3 PUSH2 0x2385 JUMP JUMPDEST SWAP2 POP POP PUSH1 0xA0 DUP4 ADD MLOAD PUSH2 0x26CD PUSH1 0xA0 DUP7 ADD DUP3 PUSH2 0x271A JUMP JUMPDEST POP PUSH1 0xC0 DUP4 ADD MLOAD PUSH2 0x26E0 PUSH1 0xC0 DUP7 ADD DUP3 PUSH2 0x271A JUMP JUMPDEST POP PUSH1 0xE0 DUP4 ADD MLOAD PUSH2 0x26F3 PUSH1 0xE0 DUP7 ADD DUP3 PUSH2 0x271A JUMP JUMPDEST POP PUSH2 0x100 DUP4 ADD MLOAD DUP5 DUP3 SUB PUSH2 0x100 DUP7 ADD MSTORE PUSH2 0x270D DUP3 DUP3 PUSH2 0x21EC JUMP JUMPDEST SWAP2 POP POP DUP1 SWAP2 POP POP SWAP3 SWAP2 POP POP JUMP JUMPDEST PUSH2 0x2723 DUP2 PUSH2 0x2DF6 JUMP JUMPDEST DUP3 MSTORE POP POP JUMP JUMPDEST PUSH2 0x2732 DUP2 PUSH2 0x2DF6 JUMP JUMPDEST DUP3 MSTORE POP POP JUMP JUMPDEST PUSH2 0x2749 PUSH2 0x2744 DUP3 PUSH2 0x2DF6 JUMP JUMPDEST PUSH2 0x2F72 JUMP JUMPDEST DUP3 MSTORE POP POP JUMP JUMPDEST PUSH2 0x2758 DUP2 PUSH2 0x2E00 JUMP JUMPDEST DUP3 MSTORE POP POP JUMP JUMPDEST PUSH1 0x0 PUSH2 0x276B DUP3 DUP5 DUP7 PUSH2 0x2360 JUMP JUMPDEST SWAP2 POP DUP2 SWAP1 POP SWAP4 SWAP3 POP POP POP JUMP JUMPDEST PUSH1 0x0 PUSH2 0x2783 DUP3 DUP5 PUSH2 0x23F7 JUMP JUMPDEST SWAP2 POP DUP2 SWAP1 POP SWAP3 SWAP2 POP POP JUMP JUMPDEST PUSH1 0x0 PUSH2 0x2799 DUP3 PUSH2 0x25E5 JUMP JUMPDEST SWAP2 POP PUSH2 0x27A5 DUP3 DUP7 PUSH2 0x21D5 JUMP JUMPDEST PUSH1 0x14 DUP3 ADD SWAP2 POP PUSH2 0x27B5 DUP3 DUP6 PUSH2 0x2738 JUMP JUMPDEST PUSH1 0x20 DUP3 ADD SWAP2 POP PUSH2 0x27C5 DUP3 DUP5 PUSH2 0x2738 JUMP JUMPDEST PUSH1 0x20 DUP3 ADD SWAP2 POP DUP2 SWAP1 POP SWAP5 SWAP4 POP POP POP POP JUMP JUMPDEST PUSH1 0x0 PUSH1 0x20 DUP3 ADD SWAP1 POP PUSH2 0x27EB PUSH1 0x0 DUP4 ADD DUP5 PUSH2 0x21C6 JUMP JUMPDEST SWAP3 SWAP2 POP POP JUMP JUMPDEST PUSH1 0x0 PUSH1 0x20 DUP3 ADD SWAP1 POP DUP2 DUP2 SUB PUSH1 0x0 DUP4 ADD MSTORE PUSH2 0x280B DUP2 DUP5 PUSH2 0x224A JUMP JUMPDEST SWAP1 POP SWAP3 SWAP2 POP POP JUMP JUMPDEST PUSH1 0x0 PUSH1 0x20 DUP3 ADD SWAP1 POP DUP2 DUP2 SUB PUSH1 0x0 DUP4 ADD MSTORE PUSH2 0x282D DUP2 DUP5 PUSH2 0x22A8 JUMP JUMPDEST SWAP1 POP SWAP3 SWAP2 POP POP JUMP JUMPDEST PUSH1 0x0 PUSH1 0x40 DUP3 ADD SWAP1 POP PUSH2 0x284A PUSH1 0x0 DUP4 ADD DUP6 PUSH2 0x2324 JUMP JUMPDEST PUSH2 0x2857 PUSH1 0x20 DUP4 ADD DUP5 PUSH2 0x2324 JUMP JUMPDEST SWAP4 SWAP3 POP POP POP JUMP JUMPDEST PUSH1 0x0 PUSH1 0x80 DUP3 ADD SWAP1 POP PUSH2 0x2873 PUSH1 0x0 DUP4 ADD DUP8 PUSH2 0x2324 JUMP JUMPDEST PUSH2 0x2880 PUSH1 0x20 DUP4 ADD DUP7 PUSH2 0x274F JUMP JUMPDEST PUSH2 0x288D PUSH1 0x40 DUP4 ADD DUP6 PUSH2 0x2324 JUMP JUMPDEST PUSH2 0x289A PUSH1 0x60 DUP4 ADD DUP5 PUSH2 0x2324 JUMP JUMPDEST SWAP6 SWAP5 POP POP POP POP POP JUMP JUMPDEST PUSH1 0x0 PUSH1 0x20 DUP3 ADD SWAP1 POP DUP2 DUP2 SUB PUSH1 0x0 DUP4 ADD MSTORE PUSH2 0x28BE DUP2 DUP5 DUP7 PUSH2 0x2333 JUMP JUMPDEST SWAP1 POP SWAP4 SWAP3 POP POP POP JUMP JUMPDEST PUSH1 0x0 PUSH1 0x20 DUP3 ADD SWAP1 POP DUP2 DUP2 SUB PUSH1 0x0 DUP4 ADD MSTORE PUSH2 0x28E1 DUP2 DUP5 PUSH2 0x23BE JUMP JUMPDEST SWAP1 POP SWAP3 SWAP2 POP POP JUMP JUMPDEST PUSH1 0x0 PUSH1 0x20 DUP3 ADD SWAP1 POP PUSH2 0x28FE PUSH1 0x0 DUP4 ADD DUP5 PUSH2 0x2428 JUMP JUMPDEST SWAP3 SWAP2 POP POP JUMP JUMPDEST PUSH1 0x0 PUSH1 0x20 DUP3 ADD SWAP1 POP PUSH2 0x2919 PUSH1 0x0 DUP4 ADD DUP5 PUSH2 0x2437 JUMP JUMPDEST SWAP3 SWAP2 POP POP JUMP JUMPDEST PUSH1 0x0 PUSH1 0x20 DUP3 ADD SWAP1 POP DUP2 DUP2 SUB PUSH1 0x0 DUP4 ADD MSTORE PUSH2 0x2938 DUP2 PUSH2 0x2464 JUMP JUMPDEST SWAP1 POP SWAP2 SWAP1 POP JUMP JUMPDEST PUSH1 0x0 PUSH1 0x20 DUP3 ADD SWAP1 POP DUP2 DUP2 SUB PUSH1 0x0 DUP4 ADD MSTORE PUSH2 0x2958 DUP2 PUSH2 0x2487 JUMP JUMPDEST SWAP1 POP SWAP2 SWAP1 POP JUMP JUMPDEST PUSH1 0x0 PUSH1 0x20 DUP3 ADD SWAP1 POP DUP2 DUP2 SUB PUSH1 0x0 DUP4 ADD MSTORE PUSH2 0x2978 DUP2 PUSH2 0x24AA JUMP JUMPDEST SWAP1 POP SWAP2 SWAP1 POP JUMP JUMPDEST PUSH1 0x0 PUSH1 0x20 DUP3 ADD SWAP1 POP DUP2 DUP2 SUB PUSH1 0x0 DUP4 ADD MSTORE PUSH2 0x2998 DUP2 PUSH2 0x24CD JUMP JUMPDEST SWAP1 POP SWAP2 SWAP1 POP JUMP JUMPDEST PUSH1 0x0 PUSH1 0x20 DUP3 ADD SWAP1 POP DUP2 DUP2 SUB PUSH1 0x0 DUP4 ADD MSTORE PUSH2 0x29B8 DUP2 PUSH2 0x24F0 JUMP JUMPDEST SWAP1 POP SWAP2 SWAP1 POP JUMP JUMPDEST PUSH1 0x0 PUSH1 0x20 DUP3 ADD SWAP1 POP DUP2 DUP2 SUB PUSH1 0x0 DUP4 ADD MSTORE PUSH2 0x29D8 DUP2 PUSH2 0x2513 JUMP JUMPDEST SWAP1 POP SWAP2 SWAP1 POP JUMP JUMPDEST PUSH1 0x0 PUSH1 0x20 DUP3 ADD SWAP1 POP DUP2 DUP2 SUB PUSH1 0x0 DUP4 ADD MSTORE PUSH2 0x29F8 DUP2 PUSH2 0x2536 JUMP JUMPDEST SWAP1 POP SWAP2 SWAP1 POP JUMP JUMPDEST PUSH1 0x0 PUSH1 0x20 DUP3 ADD SWAP1 POP DUP2 DUP2 SUB PUSH1 0x0 DUP4 ADD MSTORE PUSH2 0x2A18 DUP2 PUSH2 0x2559 JUMP JUMPDEST SWAP1 POP SWAP2 SWAP1 POP JUMP JUMPDEST PUSH1 0x0 PUSH1 0x20 DUP3 ADD SWAP1 POP DUP2 DUP2 SUB PUSH1 0x0 DUP4 ADD MSTORE PUSH2 0x2A38 DUP2 PUSH2 0x257C JUMP JUMPDEST SWAP1 POP SWAP2 SWAP1 POP JUMP JUMPDEST PUSH1 0x0 PUSH1 0x20 DUP3 ADD SWAP1 POP DUP2 DUP2 SUB PUSH1 0x0 DUP4 ADD MSTORE PUSH2 0x2A58 DUP2 PUSH2 0x259F JUMP JUMPDEST SWAP1 POP SWAP2 SWAP1 POP JUMP JUMPDEST PUSH1 0x0 PUSH1 0x20 DUP3 ADD SWAP1 POP DUP2 DUP2 SUB PUSH1 0x0 DUP4 ADD MSTORE PUSH2 0x2A78 DUP2 PUSH2 0x25C2 JUMP JUMPDEST SWAP1 POP SWAP2 SWAP1 POP JUMP JUMPDEST PUSH1 0x0 PUSH1 0x20 DUP3 ADD SWAP1 POP DUP2 DUP2 SUB PUSH1 0x0 DUP4 ADD MSTORE PUSH2 0x2A98 DUP2 PUSH2 0x2608 JUMP JUMPDEST SWAP1 POP SWAP2 SWAP1 POP JUMP JUMPDEST PUSH1 0x0 PUSH1 0x20 DUP3 ADD SWAP1 POP DUP2 DUP2 SUB PUSH1 0x0 DUP4 ADD MSTORE PUSH2 0x2AB8 DUP2 PUSH2 0x262B JUMP JUMPDEST SWAP1 POP SWAP2 SWAP1 POP JUMP JUMPDEST PUSH1 0x0 PUSH1 0x20 DUP3 ADD SWAP1 POP DUP2 DUP2 SUB PUSH1 0x0 DUP4 ADD MSTORE PUSH2 0x2AD9 DUP2 DUP5 PUSH2 0x264E JUMP JUMPDEST SWAP1 POP SWAP3 SWAP2 POP POP JUMP JUMPDEST PUSH1 0x0 PUSH1 0x20 DUP3 ADD SWAP1 POP PUSH2 0x2AF6 PUSH1 0x0 DUP4 ADD DUP5 PUSH2 0x2729 JUMP JUMPDEST SWAP3 SWAP2 POP POP JUMP JUMPDEST PUSH1 0x0 PUSH1 0x40 DUP3 ADD SWAP1 POP PUSH2 0x2B11 PUSH1 0x0 DUP4 ADD DUP6 PUSH2 0x2729 JUMP JUMPDEST PUSH2 0x2B1E PUSH1 0x20 DUP4 ADD DUP5 PUSH2 0x21C6 JUMP JUMPDEST SWAP4 SWAP3 POP POP POP JUMP JUMPDEST PUSH1 0x0 PUSH1 0x40 DUP3 ADD SWAP1 POP PUSH2 0x2B3A PUSH1 0x0 DUP4 ADD DUP7 PUSH2 0x2729 JUMP JUMPDEST DUP2 DUP2 SUB PUSH1 0x20 DUP4 ADD MSTORE PUSH2 0x2B4D DUP2 DUP5 DUP7 PUSH2 0x2333 JUMP JUMPDEST SWAP1 POP SWAP5 SWAP4 POP POP POP POP JUMP JUMPDEST PUSH1 0x0 PUSH1 0x80 DUP3 ADD SWAP1 POP PUSH2 0x2B6C PUSH1 0x0 DUP4 ADD DUP8 PUSH2 0x2729 JUMP JUMPDEST DUP2 DUP2 SUB PUSH1 0x20 DUP4 ADD MSTORE PUSH2 0x2B7E DUP2 DUP7 PUSH2 0x23BE JUMP JUMPDEST SWAP1 POP PUSH2 0x2B8D PUSH1 0x40 DUP4 ADD DUP6 PUSH2 0x2315 JUMP JUMPDEST PUSH2 0x2B9A PUSH1 0x60 DUP4 ADD DUP5 PUSH2 0x2455 JUMP JUMPDEST SWAP6 SWAP5 POP POP POP POP POP JUMP JUMPDEST PUSH1 0x0 PUSH2 0x100 DUP3 ADD SWAP1 POP PUSH2 0x2BB9 PUSH1 0x0 DUP4 ADD DUP12 PUSH2 0x2729 JUMP JUMPDEST PUSH2 0x2BC6 PUSH1 0x20 DUP4 ADD DUP11 PUSH2 0x2729 JUMP JUMPDEST PUSH2 0x2BD3 PUSH1 0x40 DUP4 ADD DUP10 PUSH2 0x2455 JUMP JUMPDEST PUSH2 0x2BE0 PUSH1 0x60 DUP4 ADD DUP9 PUSH2 0x2315 JUMP JUMPDEST DUP2 DUP2 SUB PUSH1 0x80 DUP4 ADD MSTORE PUSH2 0x2BF2 DUP2 DUP8 PUSH2 0x23BE JUMP JUMPDEST SWAP1 POP PUSH2 0x2C01 PUSH1 0xA0 DUP4 ADD DUP7 PUSH2 0x2729 JUMP JUMPDEST PUSH2 0x2C0E PUSH1 0xC0 DUP4 ADD DUP6 PUSH2 0x2729 JUMP JUMPDEST PUSH2 0x2C1B PUSH1 0xE0 DUP4 ADD DUP5 PUSH2 0x2729 JUMP JUMPDEST SWAP10 SWAP9 POP POP POP POP POP POP POP POP POP JUMP JUMPDEST PUSH1 0x0 DUP2 SWAP1 POP PUSH1 0x20 DUP3 ADD SWAP1 POP SWAP2 SWAP1 POP JUMP JUMPDEST PUSH1 0x0 DUP2 SWAP1 POP PUSH1 0x20 DUP3 ADD SWAP1 POP SWAP2 SWAP1 POP JUMP JUMPDEST PUSH1 0x0 DUP2 MLOAD SWAP1 POP SWAP2 SWAP1 POP JUMP JUMPDEST PUSH1 0x0 DUP2 MLOAD SWAP1 POP SWAP2 SWAP1 POP JUMP JUMPDEST PUSH1 0x0 DUP2 MLOAD SWAP1 POP SWAP2 SWAP1 POP JUMP JUMPDEST PUSH1 0x0 PUSH1 0x20 DUP3 ADD SWAP1 POP SWAP2 SWAP1 POP JUMP JUMPDEST PUSH1 0x0 PUSH1 0x20 DUP3 ADD SWAP1 POP SWAP2 SWAP1 POP JUMP JUMPDEST PUSH1 0x0 DUP3 DUP3 MSTORE PUSH1 0x20 DUP3 ADD SWAP1 POP SWAP3 SWAP2 POP POP JUMP JUMPDEST PUSH1 0x0 DUP3 DUP3 MSTORE PUSH1 0x20 DUP3 ADD SWAP1 POP SWAP3 SWAP2 POP POP JUMP JUMPDEST PUSH1 0x0 DUP3 DUP3 MSTORE PUSH1 0x20 DUP3 ADD SWAP1 POP SWAP3 SWAP2 POP POP JUMP JUMPDEST PUSH1 0x0 DUP3 DUP3 MSTORE PUSH1 0x20 DUP3 ADD SWAP1 POP SWAP3 SWAP2 POP POP JUMP JUMPDEST PUSH1 0x0 DUP3 DUP3 MSTORE PUSH1 0x20 DUP3 ADD SWAP1 POP SWAP3 SWAP2 POP POP JUMP JUMPDEST PUSH1 0x0 DUP2 SWAP1 POP SWAP3 SWAP2 POP POP JUMP JUMPDEST PUSH1 0x0 DUP3 DUP3 MSTORE PUSH1 0x20 DUP3 ADD SWAP1 POP SWAP3 SWAP2 POP POP JUMP JUMPDEST PUSH1 0x0 DUP2 SWAP1 POP SWAP3 SWAP2 POP POP JUMP JUMPDEST PUSH1 0x0 PUSH2 0x2D0A DUP3 PUSH2 0x2DF6 JUMP JUMPDEST SWAP2 POP PUSH2 0x2D15 DUP4 PUSH2 0x2DF6 JUMP JUMPDEST SWAP3 POP DUP3 PUSH32 0xFFFFFFFFFFFFFFFFFFFFFFFFFFFFFFFFFFFFFFFFFFFFFFFFFFFFFFFFFFFFFFFF SUB DUP3 GT ISZERO PUSH2 0x2D4A JUMPI PUSH2 0x2D49 PUSH2 0x2F7C JUMP JUMPDEST JUMPDEST DUP3 DUP3 ADD SWAP1 POP SWAP3 SWAP2 POP POP JUMP JUMPDEST PUSH1 0x0 PUSH2 0x2D60 DUP3 PUSH2 0x2DF6 JUMP JUMPDEST SWAP2 POP PUSH2 0x2D6B DUP4 PUSH2 0x2DF6 JUMP JUMPDEST SWAP3 POP DUP3 DUP3 LT ISZERO PUSH2 0x2D7E JUMPI PUSH2 0x2D7D PUSH2 0x2F7C JUMP JUMPDEST JUMPDEST DUP3 DUP3 SUB SWAP1 POP SWAP3 SWAP2 POP POP JUMP JUMPDEST PUSH1 0x0 PUSH2 0x2D94 DUP3 PUSH2 0x2DD6 JUMP JUMPDEST SWAP1 POP SWAP2 SWAP1 POP JUMP JUMPDEST PUSH1 0x0 DUP2 ISZERO ISZERO SWAP1 POP SWAP2 SWAP1 POP JUMP JUMPDEST PUSH1 0x0 DUP2 SWAP1 POP SWAP2 SWAP1 POP JUMP JUMPDEST PUSH1 0x0 PUSH2 0x2DBC DUP3 PUSH2 0x2D89 JUMP JUMPDEST SWAP1 POP SWAP2 SWAP1 POP JUMP JUMPDEST PUSH1 0x0 DUP2 SWAP1 POP PUSH2 0x2DD1 DUP3 PUSH2 0x3328 JUMP JUMPDEST SWAP2 SWAP1 POP JUMP JUMPDEST PUSH1 0x0 PUSH20 0xFFFFFFFFFFFFFFFFFFFFFFFFFFFFFFFFFFFFFFFF DUP3 AND SWAP1 POP SWAP2 SWAP1 POP JUMP JUMPDEST PUSH1 0x0 DUP2 SWAP1 POP SWAP2 SWAP1 POP JUMP JUMPDEST PUSH1 0x0 PUSH1 0xFF DUP3 AND SWAP1 POP SWAP2 SWAP1 POP JUMP JUMPDEST PUSH1 0x0 PUSH2 0x2E18 DUP3 PUSH2 0x2E1F JUMP JUMPDEST SWAP1 POP SWAP2 SWAP1 POP JUMP JUMPDEST PUSH1 0x0 PUSH2 0x2E2A DUP3 PUSH2 0x2DD6 JUMP JUMPDEST SWAP1 POP SWAP2 SWAP1 POP JUMP JUMPDEST PUSH1 0x0 PUSH2 0x2E3C DUP3 PUSH2 0x2E43 JUMP JUMPDEST SWAP1 POP SWAP2 SWAP1 POP JUMP JUMPDEST PUSH1 0x0 PUSH2 0x2E4E DUP3 PUSH2 0x2DD6 JUMP JUMPDEST SWAP1 POP SWAP2 SWAP1 POP JUMP JUMPDEST PUSH1 0x0 PUSH2 0x2E60 DUP3 PUSH2 0x2DC3 JUMP JUMPDEST SWAP1 POP SWAP2 SWAP1 POP JUMP JUMPDEST DUP3 DUP2 DUP4 CALLDATACOPY PUSH1 0x0 DUP4 DUP4 ADD MSTORE POP POP POP JUMP JUMPDEST PUSH1 0x0 JUMPDEST DUP4 DUP2 LT ISZERO PUSH2 0x2E94 JUMPI DUP1 DUP3 ADD MLOAD DUP2 DUP5 ADD MSTORE PUSH1 0x20 DUP2 ADD SWAP1 POP PUSH2 0x2E79 JUMP JUMPDEST DUP4 DUP2 GT ISZERO PUSH2 0x2EA3 JUMPI PUSH1 0x0 DUP5 DUP5 ADD MSTORE JUMPDEST POP POP POP POP JUMP JUMPDEST PUSH1 0x0 PUSH2 0x2EB4 DUP3 PUSH2 0x2DF6 JUMP JUMPDEST SWAP2 POP PUSH1 0x0 DUP3 EQ ISZERO PUSH2 0x2EC8 JUMPI PUSH2 0x2EC7 PUSH2 0x2F7C JUMP JUMPDEST JUMPDEST PUSH1 0x1 DUP3 SUB SWAP1 POP SWAP2 SWAP1 POP JUMP JUMPDEST PUSH1 0x0 PUSH1 0x2 DUP3 DIV SWAP1 POP PUSH1 0x1 DUP3 AND DUP1 PUSH2 0x2EEB JUMPI PUSH1 0x7F DUP3 AND SWAP2 POP JUMPDEST PUSH1 0x20 DUP3 LT DUP2 EQ ISZERO PUSH2 0x2EFF JUMPI PUSH2 0x2EFE PUSH2 0x2FDA JUMP JUMPDEST JUMPDEST POP SWAP2 SWAP1 POP JUMP JUMPDEST PUSH1 0x0 PUSH2 0x2F10 DUP3 PUSH2 0x2DF6 JUMP JUMPDEST SWAP2 POP PUSH32 0xFFFFFFFFFFFFFFFFFFFFFFFFFFFFFFFFFFFFFFFFFFFFFFFFFFFFFFFFFFFFFFFF DUP3 EQ ISZERO PUSH2 0x2F43 JUMPI PUSH2 0x2F42 PUSH2 0x2F7C JUMP JUMPDEST JUMPDEST PUSH1 0x1 DUP3 ADD SWAP1 POP SWAP2 SWAP1 POP JUMP JUMPDEST PUSH1 0x0 PUSH2 0x2F59 DUP3 PUSH2 0x2F60 JUMP JUMPDEST SWAP1 POP SWAP2 SWAP1 POP JUMP JUMPDEST PUSH1 0x0 PUSH2 0x2F6B DUP3 PUSH2 0x3091 JUMP JUMPDEST SWAP1 POP SWAP2 SWAP1 POP JUMP JUMPDEST PUSH1 0x0 DUP2 SWAP1 POP SWAP2 SWAP1 POP JUMP JUMPDEST PUSH32 0x4E487B7100000000000000000000000000000000000000000000000000000000 PUSH1 0x0 MSTORE PUSH1 0x11 PUSH1 0x4 MSTORE PUSH1 0x24 PUSH1 0x0 REVERT JUMPDEST PUSH32 0x4E487B7100000000000000000000000000000000000000000000000000000000 PUSH1 0x0 MSTORE PUSH1 0x21 PUSH1 0x4 MSTORE PUSH1 0x24 PUSH1 0x0 REVERT JUMPDEST PUSH32 0x4E487B7100000000000000000000000000000000000000000000000000000000 PUSH1 0x0 MSTORE PUSH1 0x22 PUSH1 0x4 MSTORE PUSH1 0x24 PUSH1 0x0 REVERT JUMPDEST PUSH32 0x4E487B7100000000000000000000000000000000000000000000000000000000 PUSH1 0x0 MSTORE PUSH1 0x31 PUSH1 0x4 MSTORE PUSH1 0x24 PUSH1 0x0 REVERT JUMPDEST PUSH32 0x4E487B7100000000000000000000000000000000000000000000000000000000 PUSH1 0x0 MSTORE PUSH1 0x32 PUSH1 0x4 MSTORE PUSH1 0x24 PUSH1 0x0 REVERT JUMPDEST PUSH1 0x0 DUP1 REVERT JUMPDEST PUSH1 0x0 DUP1 REVERT JUMPDEST PUSH1 0x0 DUP1 REVERT JUMPDEST PUSH1 0x0 DUP1 REVERT JUMPDEST PUSH1 0x0 DUP1 REVERT JUMPDEST PUSH1 0x0 PUSH1 0x1F NOT PUSH1 0x1F DUP4 ADD AND SWAP1 POP SWAP2 SWAP1 POP JUMP JUMPDEST PUSH1 0x0 DUP2 PUSH1 0x60 SHL SWAP1 POP SWAP2 SWAP1 POP JUMP JUMPDEST PUSH32 0x45434453413A20696E76616C6964207369676E61747572650000000000000000 PUSH1 0x0 DUP3 ADD MSTORE POP JUMP JUMPDEST PUSH32 0x45434453413A20696E76616C6964207369676E6174757265206C656E67746800 PUSH1 0x0 DUP3 ADD MSTORE POP JUMP JUMPDEST PUSH32 0x436F6D6D756E697479206E6F7420696E206469726563746F7279000000000000 PUSH1 0x0 DUP3 ADD MSTORE POP JUMP JUMPDEST PUSH32 0x766F746520616C72656164792066696E616C697A656400000000000000000000 PUSH1 0x0 DUP3 ADD MSTORE POP JUMP JUMPDEST PUSH32 0x766F746520616C7265616479206F6E676F696E67000000000000000000000000 PUSH1 0x0 DUP3 ADD MSTORE POP JUMP JUMPDEST PUSH32 0x6E6F7420656E6F75676820746F6B656E00000000000000000000000000000000 PUSH1 0x0 DUP3 ADD MSTORE POP JUMP JUMPDEST PUSH32 0x45434453413A20696E76616C6964207369676E6174757265202773272076616C PUSH1 0x0 DUP3 ADD MSTORE PUSH32 0x7565000000000000000000000000000000000000000000000000000000000000 PUSH1 0x20 DUP3 ADD MSTORE POP JUMP JUMPDEST PUSH32 0x45434453413A20696E76616C6964207369676E6174757265202776272076616C PUSH1 0x0 DUP3 ADD MSTORE PUSH32 0x7565000000000000000000000000000000000000000000000000000000000000 PUSH1 0x20 DUP3 ADD MSTORE POP JUMP JUMPDEST PUSH32 0x766F746520636C6F736564000000000000000000000000000000000000000000 PUSH1 0x0 DUP3 ADD MSTORE POP JUMP JUMPDEST PUSH32 0x766F7465207374696C6C206F6E676F696E670000000000000000000000000000 PUSH1 0x0 DUP3 ADD MSTORE POP JUMP JUMPDEST PUSH32 0x766F7465206E6F7420666F756E64000000000000000000000000000000000000 PUSH1 0x0 DUP3 ADD MSTORE POP JUMP JUMPDEST PUSH32 0x19457468657265756D205369676E6564204D6573736167653A0A383400000000 PUSH1 0x0 DUP3 ADD MSTORE POP JUMP JUMPDEST PUSH32 0x4E6F74206F776E65720000000000000000000000000000000000000000000000 PUSH1 0x0 DUP3 ADD MSTORE POP JUMP JUMPDEST PUSH32 0x436F6D6D756E69747920616C726561647920696E206469726563746F72790000 PUSH1 0x0 DUP3 ADD MSTORE POP JUMP JUMPDEST PUSH1 0x2 DUP2 LT PUSH2 0x3339 JUMPI PUSH2 0x3338 PUSH2 0x2FAB JUMP JUMPDEST JUMPDEST POP JUMP JUMPDEST PUSH2 0x3345 DUP2 PUSH2 0x2D89 JUMP JUMPDEST DUP2 EQ PUSH2 0x3350 JUMPI PUSH1 0x0 DUP1 REVERT JUMPDEST POP JUMP JUMPDEST PUSH2 0x335C DUP2 PUSH2 0x2D9B JUMP JUMPDEST DUP2 EQ PUSH2 0x3367 JUMPI PUSH1 0x0 DUP1 REVERT JUMPDEST POP JUMP JUMPDEST PUSH2 0x3373 DUP2 PUSH2 0x2DB1 JUMP JUMPDEST DUP2 EQ PUSH2 0x337E JUMPI PUSH1 0x0 DUP1 REVERT JUMPDEST POP JUMP JUMPDEST PUSH1 0x2 DUP2 LT PUSH2 0x338E JUMPI PUSH1 0x0 DUP1 REVERT JUMPDEST POP JUMP JUMPDEST PUSH2 0x339A DUP2 PUSH2 0x2DF6 JUMP JUMPDEST DUP2 EQ PUSH2 0x33A5 JUMPI PUSH1 0x0 DUP1 REVERT JUMPDEST POP JUMP INVALID LOG2 PUSH5 0x6970667358 0x22 SLT KECCAK256 DIFFICULTY 0xC9 SIGNEXTEND PUSH18 0x81FB48BABFE0DB3D67B86E2738EC6E692F23 0xED 0x21 0xD3 SWAP12 SWAP7 0xFC 0xB5 PUSH27 0x7B9C64736F6C634300080500330000000000000000000000000000 "
    }
  }
}