{
  "abi": [
    {
      "type": "constructor",
      "inputs": [
        {
          "name": "_votingContract",
          "type": "address",
          "internalType": "address"
        },
        {
          "name": "_featuredVotingContract",
          "type": "address",
          "internalType": "address"
        }
      ],
      "stateMutability": "nonpayable"
    },
    {
      "type": "function",
      "name": "acceptOwnership",
      "inputs": [],
      "outputs": [],
      "stateMutability": "nonpayable"
    },
    {
      "type": "function",
      "name": "addCommunity",
      "inputs": [
        {
          "name": "community",
          "type": "bytes",
          "internalType": "bytes"
        }
      ],
      "outputs": [],
      "stateMutability": "nonpayable"
    },
    {
      "type": "function",
      "name": "featuredVotingContract",
      "inputs": [],
      "outputs": [
        {
          "name": "",
          "type": "address",
          "internalType": "address"
        }
      ],
      "stateMutability": "view"
    },
    {
      "type": "function",
      "name": "getCommunities",
      "inputs": [],
      "outputs": [
        {
          "name": "",
          "type": "bytes[]",
          "internalType": "bytes[]"
        }
      ],
      "stateMutability": "view"
    },
    {
      "type": "function",
      "name": "getFeaturedCommunities",
      "inputs": [],
      "outputs": [
        {
          "name": "",
          "type": "bytes[]",
          "internalType": "bytes[]"
        }
      ],
      "stateMutability": "view"
    },
    {
      "type": "function",
      "name": "isCommunityFeatured",
      "inputs": [
        {
          "name": "community",
          "type": "bytes",
          "internalType": "bytes"
        }
      ],
      "outputs": [
        {
          "name": "",
          "type": "bool",
          "internalType": "bool"
        }
      ],
      "stateMutability": "view"
    },
    {
      "type": "function",
      "name": "isCommunityInDirectory",
      "inputs": [
        {
          "name": "community",
          "type": "bytes",
          "internalType": "bytes"
        }
      ],
      "outputs": [
        {
          "name": "",
          "type": "bool",
          "internalType": "bool"
        }
      ],
      "stateMutability": "view"
    },
    {
      "type": "function",
      "name": "owner",
      "inputs": [],
      "outputs": [
        {
          "name": "",
          "type": "address",
          "internalType": "address"
        }
      ],
      "stateMutability": "view"
    },
    {
      "type": "function",
      "name": "pendingOwner",
      "inputs": [],
      "outputs": [
        {
          "name": "",
          "type": "address",
          "internalType": "address"
        }
      ],
      "stateMutability": "view"
    },
    {
      "type": "function",
      "name": "removeCommunity",
      "inputs": [
        {
          "name": "community",
          "type": "bytes",
          "internalType": "bytes"
        }
      ],
      "outputs": [],
      "stateMutability": "nonpayable"
    },
    {
      "type": "function",
      "name": "renounceOwnership",
      "inputs": [],
      "outputs": [],
      "stateMutability": "nonpayable"
    },
    {
      "type": "function",
      "name": "setFeaturedCommunities",
      "inputs": [
        {
          "name": "_featuredCommunities",
          "type": "bytes[]",
          "internalType": "bytes[]"
        }
      ],
      "outputs": [],
      "stateMutability": "nonpayable"
    },
    {
      "type": "function",
      "name": "transferOwnership",
      "inputs": [
        {
          "name": "newOwner",
          "type": "address",
          "internalType": "address"
        }
      ],
      "outputs": [],
      "stateMutability": "nonpayable"
    },
    {
      "type": "function",
      "name": "votingContract",
      "inputs": [],
      "outputs": [
        {
          "name": "",
          "type": "address",
          "internalType": "address"
        }
      ],
      "stateMutability": "view"
    },
    {
      "type": "event",
      "name": "OwnershipTransferStarted",
      "inputs": [
        {
          "name": "previousOwner",
          "type": "address",
          "indexed": true,
          "internalType": "address"
        },
        {
          "name": "newOwner",
          "type": "address",
          "indexed": true,
          "internalType": "address"
        }
      ],
      "anonymous": false
    },
    {
      "type": "event",
      "name": "OwnershipTransferred",
      "inputs": [
        {
          "name": "previousOwner",
          "type": "address",
          "indexed": true,
          "internalType": "address"
        },
        {
          "name": "newOwner",
          "type": "address",
          "indexed": true,
          "internalType": "address"
        }
      ],
      "anonymous": false
    }
  ],
  "bytecode": {
    "object": "0x60806040523480156200001157600080fd5b5060405162001535380380620015358339810160408190526200003491620000fc565b6200003f3362000071565b600280546001600160a01b039384166001600160a01b0319918216179091556003805492909316911617905562000134565b600180546001600160a01b03191690556200008c816200008f565b50565b600080546001600160a01b038381166001600160a01b0319831681178455604051919092169283917f8be0079c531659141344cd1fd0a4f28419497f9722a3daafe3b4186f6b6457e09190a35050565b80516001600160a01b0381168114620000f757600080fd5b919050565b600080604083850312156200011057600080fd5b6200011b83620000df565b91506200012b60208401620000df565b90509250929050565b6113f180620001446000396000f3fe608060405234801561001057600080fd5b50600436106100ea5760003560e01c8063b3dbb52a1161008c578063d62879f111610066578063d62879f1146101ef578063e30c397814610202578063f2fde38b14610220578063f6a18e621461023357600080fd5b8063b3dbb52a146101a4578063c1fc006a146101c7578063c251b565146101e757600080fd5b806374837935116100c8578063748379351461015657806379ba5097146101695780638da5cb5b14610171578063967961c61461018f57600080fd5b80633c01b93c146100ef578063715018a6146101045780637475fe931461010c575b600080fd5b6101026100fd366004610d4b565b610246565b005b61010261035a565b60035461012c9073ffffffffffffffffffffffffffffffffffffffff1681565b60405173ffffffffffffffffffffffffffffffffffffffff90911681526020015b60405180910390f35b610102610164366004610d4b565b61036e565b6101026104e1565b60005473ffffffffffffffffffffffffffffffffffffffff1661012c565b610197610596565b60405161014d9190610de1565b6101b76101b2366004610d4b565b61066f565b604051901515815260200161014d565b60025461012c9073ffffffffffffffffffffffffffffffffffffffff1681565b61019761069d565b6101026101fd366004610e97565b61076d565b60015473ffffffffffffffffffffffffffffffffffffffff1661012c565b61010261022e366004610efa565b61099e565b6101b7610241366004610d4b565b610a4e565b60025473ffffffffffffffffffffffffffffffffffffffff1633146102cc576040517f08c379a000000000000000000000000000000000000000000000000000000000815260206004820152600e60248201527f496e76616c69642073656e64657200000000000000000000000000000000000060448201526064015b60405180910390fd5b61031182828080601f0160208091040260200160405190810160405280939291908181526020018383808284376000920191909152506004925060059150610a639050565b61035682828080601f0160208091040260200160405190810160405280939291908181526020018383808284376000920191909152506006925060079150610a639050565b5050565b610362610b9b565b61036c6000610c1c565b565b60025473ffffffffffffffffffffffffffffffffffffffff1633146103ef576040517f08c379a000000000000000000000000000000000000000000000000000000000815260206004820152600e60248201527f496e76616c69642073656e64657200000000000000000000000000000000000060448201526064016102c3565b60058282604051610401929190610f37565b908152602001604051809103902054600014610479576040517f08c379a000000000000000000000000000000000000000000000000000000000815260206004820152601760248201527f436f6d6d756e69747920616c726561647920657869737400000000000000000060448201526064016102c3565b600480546001810182556000919091527f8a35acfbc15ff81a39ae7d344fd709f28e8600b4aa8c65c6b64bfe7fe36bd19b016104b6828483611017565b506004546040516005906104cd9085908590610f37565b908152604051908190036020019020555050565b600154339073ffffffffffffffffffffffffffffffffffffffff16811461058a576040517f08c379a000000000000000000000000000000000000000000000000000000000815260206004820152602960248201527f4f776e61626c6532537465703a2063616c6c6572206973206e6f74207468652060448201527f6e6577206f776e6572000000000000000000000000000000000000000000000060648201526084016102c3565b61059381610c1c565b50565b60606006805480602002602001604051908101604052809291908181526020016000905b828210156106665783829060005260206000200180546105d990610f76565b80601f016020809104026020016040519081016040528092919081815260200182805461060590610f76565b80156106525780601f1061062757610100808354040283529160200191610652565b820191906000526020600020905b81548152906001019060200180831161063557829003601f168201915b5050505050815260200190600101906105ba565b50505050905090565b60008060058484604051610684929190610f37565b9081526020016040518091039020541190505b92915050565b60606004805480602002602001604051908101604052809291908181526020016000905b828210156106665783829060005260206000200180546106e090610f76565b80601f016020809104026020016040519081016040528092919081815260200182805461070c90610f76565b80156107595780601f1061072e57610100808354040283529160200191610759565b820191906000526020600020905b81548152906001019060200180831161073c57829003601f168201915b5050505050815260200190600101906106c1565b60035473ffffffffffffffffffffffffffffffffffffffff1633146107ee576040517f08c379a000000000000000000000000000000000000000000000000000000000815260206004820152600e60248201527f496e76616c69642073656e64657200000000000000000000000000000000000060448201526064016102c3565b60005b60065481101561084c57600760068281548110610810576108106110f6565b906000526020600020016040516108279190611125565b9081526020016040518091039020600090558080610844906111e8565b9150506107f1565b5061085960066000610cbd565b60005b818110156109995761088b838383818110610879576108796110f6565b90506020028101906101b29190611202565b6108f1576040517f08c379a000000000000000000000000000000000000000000000000000000000815260206004820152601a60248201527f436f6d6d756e697479206e6f7420696e206469726563746f727900000000000060448201526064016102c3565b6006838383818110610905576109056110f6565b90506020028101906109179190611202565b825460018101845560009384526020909320909201916109379183611017565b5061094381600161126e565b6007848484818110610957576109576110f6565b90506020028101906109699190611202565b604051610977929190610f37565b9081526040519081900360200190205580610991816111e8565b91505061085c565b505050565b6109a6610b9b565b6001805473ffffffffffffffffffffffffffffffffffffffff83167fffffffffffffffffffffffff00000000000000000000000000000000000000009091168117909155610a0960005473ffffffffffffffffffffffffffffffffffffffff1690565b73ffffffffffffffffffffffffffffffffffffffff167f38d16b8cac22d99fc7c124b9cd0de2d3fa1faef420bfe791d8c362d765e2270060405160405180910390a350565b60008060078484604051610684929190610f37565b60008184604051610a749190611281565b908152602001604051809103902054905080600003610a935750505050565b80610a9d8161129d565b915050600183805490501115610b465782548390610abd906001906112b4565b81548110610acd57610acd6110f6565b90600052602060002001838281548110610ae957610ae96110f6565b906000526020600020019081610aff91906112c7565b50610b0b81600161126e565b82848381548110610b1e57610b1e6110f6565b90600052602060002001604051610b359190611125565b908152604051908190036020019020555b82805480610b5657610b566113c2565b600190038181906000526020600020016000610b729190610cdb565b905560008285604051610b859190611281565b9081526040519081900360200190205550505050565b60005473ffffffffffffffffffffffffffffffffffffffff16331461036c576040517f08c379a000000000000000000000000000000000000000000000000000000000815260206004820181905260248201527f4f776e61626c653a2063616c6c6572206973206e6f7420746865206f776e657260448201526064016102c3565b600180547fffffffffffffffffffffffff0000000000000000000000000000000000000000169055610593816000805473ffffffffffffffffffffffffffffffffffffffff8381167fffffffffffffffffffffffff0000000000000000000000000000000000000000831681178455604051919092169283917f8be0079c531659141344cd1fd0a4f28419497f9722a3daafe3b4186f6b6457e09190a35050565b50805460008255906000526020600020908101906105939190610d15565b508054610ce790610f76565b6000825580601f10610cf7575050565b601f0160209004906000526020600020908101906105939190610d36565b80821115610d32576000610d298282610cdb565b50600101610d15565b5090565b5b80821115610d325760008155600101610d37565b60008060208385031215610d5e57600080fd5b823567ffffffffffffffff80821115610d7657600080fd5b818501915085601f830112610d8a57600080fd5b813581811115610d9957600080fd5b866020828501011115610dab57600080fd5b60209290920196919550909350505050565b60005b83811015610dd8578181015183820152602001610dc0565b50506000910152565b6000602080830181845280855180835260408601915060408160051b870101925083870160005b82811015610e8a577fffffffffffffffffffffffffffffffffffffffffffffffffffffffffffffffc088860301845281518051808752610e4d818989018a8501610dbd565b601f017fffffffffffffffffffffffffffffffffffffffffffffffffffffffffffffffe01695909501860194509285019290850190600101610e08565b5092979650505050505050565b60008060208385031215610eaa57600080fd5b823567ffffffffffffffff80821115610ec257600080fd5b818501915085601f830112610ed657600080fd5b813581811115610ee557600080fd5b8660208260051b8501011115610dab57600080fd5b600060208284031215610f0c57600080fd5b813573ffffffffffffffffffffffffffffffffffffffff81168114610f3057600080fd5b9392505050565b8183823760009101908152919050565b7f4e487b7100000000000000000000000000000000000000000000000000000000600052604160045260246000fd5b600181811c90821680610f8a57607f821691505b602082108103610fc3577f4e487b7100000000000000000000000000000000000000000000000000000000600052602260045260246000fd5b50919050565b601f82111561099957600081815260208120601f850160051c81016020861015610ff05750805b601f850160051c820191505b8181101561100f57828155600101610ffc565b505050505050565b67ffffffffffffffff83111561102f5761102f610f47565b6110438361103d8354610f76565b83610fc9565b6000601f841160018114611077576000851561105f5750838201355b600019600387901b1c1916600186901b1783556110ef565b6000838152602090207fffffffffffffffffffffffffffffffffffffffffffffffffffffffffffffffe0861690835b828110156110c657868501358255602094850194600190920191016110a6565b50868210156110e35760001960f88860031b161c19848701351681555b505060018560011b0183555b5050505050565b7f4e487b7100000000000000000000000000000000000000000000000000000000600052603260045260246000fd5b600080835461113381610f76565b6001828116801561114b576001811461117e576111ad565b7fffffffffffffffffffffffffffffffffffffffffffffffffffffffffffffff00841687528215158302870194506111ad565b8760005260208060002060005b858110156111a45781548a82015290840190820161118b565b50505082870194505b50929695505050505050565b7f4e487b7100000000000000000000000000000000000000000000000000000000600052601160045260246000fd5b600060001982036111fb576111fb6111b9565b5060010190565b60008083357fffffffffffffffffffffffffffffffffffffffffffffffffffffffffffffffe184360301811261123757600080fd5b83018035915067ffffffffffffffff82111561125257600080fd5b60200191503681900382131561126757600080fd5b9250929050565b80820180821115610697576106976111b9565b60008251611293818460208701610dbd565b9190910192915050565b6000816112ac576112ac6111b9565b506000190190565b81810381811115610697576106976111b9565b8181036112d2575050565b6112dc8254610f76565b67ffffffffffffffff8111156112f4576112f4610f47565b611308816113028454610f76565b84610fc9565b6000601f82116001811461133c57600083156113245750848201545b600019600385901b1c1916600184901b1784556110ef565b6000858152602090207fffffffffffffffffffffffffffffffffffffffffffffffffffffffffffffffe0841690600086815260209020845b838110156113945782860154825560019586019590910190602001611374565b50858310156113b25781850154600019600388901b60f8161c191681555b5050505050600190811b01905550565b7f4e487b7100000000000000000000000000000000000000000000000000000000600052603160045260246000fd",
    "linkReferences": {}
  },
  "methodIdentifiers": {
    "acceptOwnership()": "79ba5097",
    "addCommunity(bytes)": "74837935",
    "featuredVotingContract()": "7475fe93",
    "getCommunities()": "c251b565",
    "getFeaturedCommunities()": "967961c6",
    "isCommunityFeatured(bytes)": "f6a18e62",
    "isCommunityInDirectory(bytes)": "b3dbb52a",
    "owner()": "8da5cb5b",
    "pendingOwner()": "e30c3978",
    "removeCommunity(bytes)": "3c01b93c",
    "renounceOwnership()": "715018a6",
    "setFeaturedCommunities(bytes[])": "d62879f1",
    "transferOwnership(address)": "f2fde38b",
    "votingContract()": "c1fc006a"
  },
  "id": 0
}