{
  "abi": [
    {
      "type": "constructor",
      "inputs": [
        {
          "name": "_token",
          "type": "address",
          "internalType": "contract MiniMeToken"
        },
        {
          "name": "_votingLength",
          "type": "uint256",
          "internalType": "uint256"
        },
        {
          "name": "_votingVerificationLength",
          "type": "uint256",
          "internalType": "uint256"
        },
        {
          "name": "_cooldownPeriod",
          "type": "uint256",
          "internalType": "uint256"
        },
        {
          "name": "_featuredPerVotingCount",
          "type": "uint256",
          "internalType": "uint256"
        }
      ],
      "stateMutability": "nonpayable"
    },
    {
      "type": "function",
      "name": "VOTE_TYPEHASH",
      "inputs": [],
      "outputs": [
        {
          "name": "",
          "type": "bytes32",
          "internalType": "bytes32"
        }
      ],
      "stateMutability": "view"
    },
    {
      "type": "function",
      "name": "acceptOwnership",
      "inputs": [],
      "outputs": [],
      "stateMutability": "nonpayable"
    },
    {
      "type": "function",
      "name": "castVotes",
      "inputs": [
        {
          "name": "votes",
          "type": "tuple[]",
          "internalType": "struct FeaturedVotingContract.SignedVote[]",
          "components": [
            {
              "name": "voter",
              "type": "address",
              "internalType": "address"
            },
            {
              "name": "community",
              "type": "bytes",
              "internalType": "bytes"
            },
            {
              "name": "sntAmount",
              "type": "uint256",
              "internalType": "uint256"
            },
            {
              "name": "timestamp",
              "type": "uint256",
              "internalType": "uint256"
            },
            {
              "name": "r",
              "type": "bytes32",
              "internalType": "bytes32"
            },
            {
              "name": "vs",
              "type": "bytes32",
              "internalType": "bytes32"
            }
          ]
        }
      ],
      "outputs": [],
      "stateMutability": "nonpayable"
    },
    {
      "type": "function",
      "name": "cooldownPeriod",
      "inputs": [],
      "outputs": [
        {
          "name": "",
          "type": "uint256",
          "internalType": "uint256"
        }
      ],
      "stateMutability": "view"
    },
    {
      "type": "function",
      "name": "directory",
      "inputs": [],
      "outputs": [
        {
          "name": "",
          "type": "address",
          "internalType": "contract Directory"
        }
      ],
      "stateMutability": "view"
    },
    {
      "type": "function",
      "name": "featuredPerVotingCount",
      "inputs": [],
      "outputs": [
        {
          "name": "",
          "type": "uint256",
          "internalType": "uint256"
        }
      ],
      "stateMutability": "view"
    },
    {
      "type": "function",
      "name": "finalizeVoting",
      "inputs": [
        {
          "name": "limit",
          "type": "uint32",
          "internalType": "uint32"
        }
      ],
      "outputs": [],
      "stateMutability": "nonpayable"
    },
    {
      "type": "function",
      "name": "getVotesByVotingId",
      "inputs": [
        {
          "name": "votingID",
          "type": "uint256",
          "internalType": "uint256"
        }
      ],
      "outputs": [
        {
          "name": "",
          "type": "tuple[]",
          "internalType": "struct FeaturedVotingContract.Vote[]",
          "components": [
            {
              "name": "voter",
              "type": "address",
              "internalType": "address"
            },
            {
              "name": "community",
              "type": "bytes",
              "internalType": "bytes"
            },
            {
              "name": "sntAmount",
              "type": "uint256",
              "internalType": "uint256"
            }
          ]
        }
      ],
      "stateMutability": "view"
    },
    {
      "type": "function",
      "name": "getVotings",
      "inputs": [],
      "outputs": [
        {
          "name": "",
          "type": "tuple[]",
          "internalType": "struct FeaturedVotingContract.Voting[]",
          "components": [
            {
              "name": "id",
              "type": "uint256",
              "internalType": "uint256"
            },
            {
              "name": "startBlock",
              "type": "uint256",
              "internalType": "uint256"
            },
            {
              "name": "startAt",
              "type": "uint256",
              "internalType": "uint256"
            },
            {
              "name": "verificationStartAt",
              "type": "uint256",
              "internalType": "uint256"
            },
            {
              "name": "endAt",
              "type": "uint256",
              "internalType": "uint256"
            },
            {
              "name": "finalized",
              "type": "bool",
              "internalType": "bool"
            },
            {
              "name": "evaluatingPos",
              "type": "uint32",
              "internalType": "uint32"
            },
            {
              "name": "evaluated",
              "type": "bool",
              "internalType": "bool"
            },
            {
              "name": "endBlock",
              "type": "uint256",
              "internalType": "uint256"
            }
          ]
        }
      ],
      "stateMutability": "view"
    },
    {
      "type": "function",
      "name": "initializeVoting",
      "inputs": [
        {
          "name": "publicKey",
          "type": "bytes",
          "internalType": "bytes"
        },
        {
          "name": "voteAmount",
          "type": "uint256",
          "internalType": "uint256"
        }
      ],
      "outputs": [],
      "stateMutability": "nonpayable"
    },
    {
      "type": "function",
      "name": "isInCooldownPeriod",
      "inputs": [
        {
          "name": "publicKey",
          "type": "bytes",
          "internalType": "bytes"
        }
      ],
      "outputs": [
        {
          "name": "",
          "type": "bool",
          "internalType": "bool"
        }
      ],
      "stateMutability": "view"
    },
    {
      "type": "function",
      "name": "owner",
      "inputs": [],
      "outputs": [
        {
          "name": "",
          "type": "address",
          "internalType": "address"
        }
      ],
      "stateMutability": "view"
    },
    {
      "type": "function",
      "name": "pendingOwner",
      "inputs": [],
      "outputs": [
        {
          "name": "",
          "type": "address",
          "internalType": "address"
        }
      ],
      "stateMutability": "view"
    },
    {
      "type": "function",
      "name": "renounceOwnership",
      "inputs": [],
      "outputs": [],
      "stateMutability": "nonpayable"
    },
    {
      "type": "function",
      "name": "setDirectory",
      "inputs": [
        {
          "name": "_address",
          "type": "address",
          "internalType": "contract Directory"
        }
      ],
      "outputs": [],
      "stateMutability": "nonpayable"
    },
    {
      "type": "function",
      "name": "token",
      "inputs": [],
      "outputs": [
        {
          "name": "",
          "type": "address",
          "internalType": "contract MiniMeToken"
        }
      ],
      "stateMutability": "view"
    },
    {
      "type": "function",
      "name": "transferOwnership",
      "inputs": [
        {
          "name": "newOwner",
          "type": "address",
          "internalType": "address"
        }
      ],
      "outputs": [],
      "stateMutability": "nonpayable"
    },
    {
      "type": "function",
      "name": "votingLength",
      "inputs": [],
      "outputs": [
        {
          "name": "",
          "type": "uint256",
          "internalType": "uint256"
        }
      ],
      "stateMutability": "view"
    },
    {
      "type": "function",
      "name": "votingVerificationLength",
      "inputs": [],
      "outputs": [
        {
          "name": "",
          "type": "uint256",
          "internalType": "uint256"
        }
      ],
      "stateMutability": "view"
    },
    {
      "type": "function",
      "name": "votings",
      "inputs": [
        {
          "name": "",
          "type": "uint256",
          "internalType": "uint256"
        }
      ],
      "outputs": [
        {
          "name": "id",
          "type": "uint256",
          "internalType": "uint256"
        },
        {
          "name": "startBlock",
          "type": "uint256",
          "internalType": "uint256"
        },
        {
          "name": "startAt",
          "type": "uint256",
          "internalType": "uint256"
        },
        {
          "name": "verificationStartAt",
          "type": "uint256",
          "internalType": "uint256"
        },
        {
          "name": "endAt",
          "type": "uint256",
          "internalType": "uint256"
        },
        {
          "name": "finalized",
          "type": "bool",
          "internalType": "bool"
        },
        {
          "name": "evaluatingPos",
          "type": "uint32",
          "internalType": "uint32"
        },
        {
          "name": "evaluated",
          "type": "bool",
          "internalType": "bool"
        },
        {
          "name": "endBlock",
          "type": "uint256",
          "internalType": "uint256"
        }
      ],
      "stateMutability": "view"
    },
    {
      "type": "event",
      "name": "AlreadyVoted",
      "inputs": [
        {
          "name": "community",
          "type": "bytes",
          "indexed": false,
          "internalType": "bytes"
        },
        {
          "name": "voter",
          "type": "address",
          "indexed": false,
          "internalType": "address"
        }
      ],
      "anonymous": false
    },
    {
      "type": "event",
      "name": "CommunityFeaturedRecently",
      "inputs": [
        {
          "name": "community",
          "type": "bytes",
          "indexed": false,
          "internalType": "bytes"
        },
        {
          "name": "voter",
          "type": "address",
          "indexed": false,
          "internalType": "address"
        }
      ],
      "anonymous": false
    },
    {
      "type": "event",
      "name": "CommunityNotInDirectory",
      "inputs": [
        {
          "name": "community",
          "type": "bytes",
          "indexed": false,
          "internalType": "bytes"
        },
        {
          "name": "voter",
          "type": "address",
          "indexed": false,
          "internalType": "address"
        }
      ],
      "anonymous": false
    },
    {
      "type": "event",
      "name": "InvalidSignature",
      "inputs": [
        {
          "name": "community",
          "type": "bytes",
          "indexed": false,
          "internalType": "bytes"
        },
        {
          "name": "voter",
          "type": "address",
          "indexed": false,
          "internalType": "address"
        }
      ],
      "anonymous": false
    },
    {
      "type": "event",
      "name": "NotEnoughToken",
      "inputs": [
        {
          "name": "community",
          "type": "bytes",
          "indexed": false,
          "internalType": "bytes"
        },
        {
          "name": "voter",
          "type": "address",
          "indexed": false,
          "internalType": "address"
        }
      ],
      "anonymous": false
    },
    {
      "type": "event",
      "name": "OwnershipTransferStarted",
      "inputs": [
        {
          "name": "previousOwner",
          "type": "address",
          "indexed": true,
          "internalType": "address"
        },
        {
          "name": "newOwner",
          "type": "address",
          "indexed": true,
          "internalType": "address"
        }
      ],
      "anonymous": false
    },
    {
      "type": "event",
      "name": "OwnershipTransferred",
      "inputs": [
        {
          "name": "previousOwner",
          "type": "address",
          "indexed": true,
          "internalType": "address"
        },
        {
          "name": "newOwner",
          "type": "address",
          "indexed": true,
          "internalType": "address"
        }
      ],
      "anonymous": false
    },
    {
      "type": "event",
      "name": "VoteCast",
      "inputs": [
        {
          "name": "community",
          "type": "bytes",
          "indexed": false,
          "internalType": "bytes"
        },
        {
          "name": "voter",
          "type": "address",
          "indexed": false,
          "internalType": "address"
        }
      ],
      "anonymous": false
    },
    {
      "type": "event",
      "name": "VotingFinalized",
      "inputs": [],
      "anonymous": false
    },
    {
      "type": "event",
      "name": "VotingStarted",
      "inputs": [],
      "anonymous": false
    }
  ],
  "bytecode": {
    "object": "0x608060405260006009553480156200001657600080fd5b50604051620032c4380380620032c48339810160408190526200003991620001fe565b6200004433620000f2565b600380546001600160a01b0319166001600160a01b03871617905560048490556005839055600782905560068190556040805160c0810182526018608082019081527f466561747572656420566f74696e6720436f6e7472616374000000000000000060a083015281528151808301835260018152603160f81b6020808301919091528201524691810191909152306060820152620000e39062000110565b600e5550620002559350505050565b600180546001600160a01b03191690556200010d81620001ae565b50565b60007f8b73c3c69bb8fe3d512ecc4cf759cc79239f7b179b0ffacaa9a75d522b39400f82600001518051906020012083602001518051906020012084604001518560600151604051602001620001919594939291909485526020850193909352604084019190915260608301526001600160a01b0316608082015260a00190565b604051602081830303815290604052805190602001209050919050565b600080546001600160a01b038381166001600160a01b0319831681178455604051919092169283917f8be0079c531659141344cd1fd0a4f28419497f9722a3daafe3b4186f6b6457e09190a35050565b600080600080600060a086880312156200021757600080fd5b85516001600160a01b03811681146200022f57600080fd5b602087015160408801516060890151608090990151929a91995097965090945092505050565b61305f80620002656000396000f3fe608060405234801561001057600080fd5b506004361061016c5760003560e01c806380e0111e116100cd578063c41c2f2411610081578063f2fde38b11610066578063f2fde38b1461035a578063fc0c546a1461036d578063ff9bd0481461038d57600080fd5b8063c41c2f241461031c578063e30c39781461033c57600080fd5b80638da5cb5b116100b25780638da5cb5b14610269578063a1673341146102a8578063a598d03c146102bb57600080fd5b806380e0111e14610222578063865229731461024257600080fd5b80636c265f9d116101245780636e91818a116101095780636e91818a146101ff578063715018a61461021257806379ba50971461021a57600080fd5b80636c265f9d146101d35780636e571332146101f657600080fd5b80630a64522f116101555780630a64522f146101a25780632d0e9c28146101ab578063349071c2146101c057600080fd5b806304646a491461017157806305c1112d1461018d575b600080fd5b61017a60075481565b6040519081526020015b60405180910390f35b610195610396565b6040516101849190612637565b61017a60045481565b6101be6101b9366004612722565b610461565b005b6101be6101ce36600461276e565b610a1a565b6101e66101e13660046127e3565b610b1d565b6040519015158152602001610184565b61017a60065481565b6101be61020d366004612847565b610d31565b6101be610d80565b6101be610d94565b610235610230366004612864565b610e2f565b604051610184919061287d565b61017a7fc61be5868a517c2688d120fb5bc4073a1804e9a9b307218e2701647bf86f4c7281565b60005473ffffffffffffffffffffffffffffffffffffffff165b60405173ffffffffffffffffffffffffffffffffffffffff9091168152602001610184565b6101be6102b6366004612966565b610f60565b6102ce6102c9366004612864565b611307565b60408051998a5260208a01989098529688019590955260608701939093526080860191909152151560a085015263ffffffff1660c0840152151560e083015261010082015261012001610184565b6002546102839073ffffffffffffffffffffffffffffffffffffffff1681565b60015473ffffffffffffffffffffffffffffffffffffffff16610283565b6101be610368366004612847565b611374565b6003546102839073ffffffffffffffffffffffffffffffffffffffff1681565b61017a60055481565b6060600a805480602002602001604051908101604052809291908181526020016000905b8282101561045857600084815260209081902060408051610120810182526007860290920180548352600180820154848601526002820154928401929092526003810154606084015260048101546080840152600581015460ff808216151560a086015261010080830463ffffffff1660c08701526501000000000090920416151560e08501526006909101549083015290835290920191016103ba565b50505050905090565b600a5415806104a35750600a805461047b906001906129bb565b8154811061048b5761048b6129ce565b600091825260209091206005600790920201015460ff165b6104f45760405162461bcd60e51b815260206004820152601460248201527f766f746520616c7265616479206f6e676f696e6700000000000000000000000060448201526064015b60405180910390fd5b6002546040517fb3dbb52a00000000000000000000000000000000000000000000000000000000815273ffffffffffffffffffffffffffffffffffffffff9091169063b3dbb52a9061054c9086908690600401612a28565b602060405180830381865afa158015610569573d6000803e3d6000fd5b505050506040513d601f19601f8201168201806040525081019061058d9190612a44565b6105d95760405162461bcd60e51b815260206004820152601a60248201527f636f6d6d756e697479206e6f7420696e206469726563746f727900000000000060448201526064016104eb565b6105e38383610b1d565b156106555760405162461bcd60e51b8152602060048201526024808201527f636f6d6d756e69747920686173206265656e206665617475726564207265636560448201527f6e746c790000000000000000000000000000000000000000000000000000000060648201526084016104eb565b6003546040517f70a08231000000000000000000000000000000000000000000000000000000008152336004820152829173ffffffffffffffffffffffffffffffffffffffff16906370a0823190602401602060405180830381865afa1580156106c3573d6000803e3d6000fd5b505050506040513d601f19601f820116820180604052508101906106e79190612a66565b10156107355760405162461bcd60e51b815260206004820152601060248201527f6e6f7420656e6f75676820746f6b656e0000000000000000000000000000000060448201526064016104eb565b600a54600090610746906001612a7f565b90506001600d6000838152602001908152602001600020858560405161076d929190612a92565b908152604080516020928190038301812033600081815291855283822080547fffffffffffffffffffffffffffffffffffffffffffffffffffffffffffffff001696151596909617909555858152600b84528290206060820183529381528151601f880184900484028101840190925286825291808301919088908890819084018382808284376000920182905250938552505050602091820186905283546001808201865594825290829020835160039092020180547fffffffffffffffffffffffff00000000000000000000000000000000000000001673ffffffffffffffffffffffffffffffffffffffff90921691909117815590820151919290919082019061087a9082612b72565b50604082015181600201555050600a604051806101200160405280838152602001438152602001428152602001600454426108b59190612a7f565b8152602001600554600454426108cb9190612a7f565b6108d59190612a7f565b81526000602080830182905260408084018390526060808501849052608094850184905286546001808201895597855293839020865160079095020193845591850151838701558401516002830155830151600382015590820151600482015560a082015160058201805460c085015160e08601517fffffffffffffffffffffffffffffffffffffffffffffffffffffff00000000009092169315157fffffffffffffffffffffffffffffffffffffffffffffffffffffff00000000ff169390931761010063ffffffff9094168402177fffffffffffffffffffffffffffffffffffffffffffffffffffff00ffffffffff166501000000000091151591909102179055909101516006909101556109eb90611424565b6040517f877e2548498f42b7975a186b94ef1d32c86d420b7b806dd2be2bea293b89590490600090a150505050565b600a5415801590610a5f5750600a8054610a36906001906129bb565b81548110610a4657610a466129ce565b600091825260209091206005600790920201015460ff16155b610aab5760405162461bcd60e51b815260206004820152600f60248201527f6e6f206f6e676f696e6720766f7465000000000000000000000000000000000060448201526064016104eb565b6000805b82811015610b0e576000610ae5858584818110610ace57610ace6129ce565b9050602002810190610ae09190612c6e565b6119c7565b90508015610afb57610af8600184612cac565b92505b5080610b0681612cd0565b915050610aaf565b50610b1881611424565b505050565b600a546000908103610b3157506000610d2b565b600a805460009190610b45906001906129bb565b81548110610b5557610b556129ce565b600091825260209091206005600790920201015460ff16610b8357600754610b7e906001612a7f565b610b87565b6007545b600a54909150610b979082611faa565b905060005b81811015610d24576000600c6000600a600185600a80549050610bbf91906129bb565b610bc991906129bb565b81548110610bd957610bd96129ce565b9060005260206000209060070201600001548152602001908152602001600020905060005b8154811015610d0f57610ceb828281548110610c1c57610c1c6129ce565b906000526020600020018054610c3190612ad1565b80601f0160208091040260200160405190810160405280929190818152602001828054610c5d90612ad1565b8015610caa5780601f10610c7f57610100808354040283529160200191610caa565b820191906000526020600020905b815481529060010190602001808311610c8d57829003601f168201915b505050505088888080601f016020809104026020016040519081016040528093929190818152602001838380828437600092019190915250611fc292505050565b15610cfd576001945050505050610d2b565b80610d0781612cd0565b915050610bfe565b50508080610d1c90612cd0565b915050610b9c565b5060009150505b92915050565b610d39612084565b600280547fffffffffffffffffffffffff00000000000000000000000000000000000000001673ffffffffffffffffffffffffffffffffffffffff92909216919091179055565b610d88612084565b610d9260006120eb565b565b600154339073ffffffffffffffffffffffffffffffffffffffff168114610e235760405162461bcd60e51b815260206004820152602960248201527f4f776e61626c6532537465703a2063616c6c6572206973206e6f74207468652060448201527f6e6577206f776e6572000000000000000000000000000000000000000000000060648201526084016104eb565b610e2c816120eb565b50565b6060600b6000838152602001908152602001600020805480602002602001604051908101604052809291908181526020016000905b82821015610f55576000848152602090819020604080516060810190915260038502909101805473ffffffffffffffffffffffffffffffffffffffff1682526001810180549293919291840191610eba90612ad1565b80601f0160208091040260200160405190810160405280929190818152602001828054610ee690612ad1565b8015610f335780601f10610f0857610100808354040283529160200191610f33565b820191906000526020600020905b815481529060010190602001808311610f1657829003601f168201915b5050505050815260200160028201548152505081526020019060010190610e64565b505050509050919050565b600a54610faf5760405162461bcd60e51b815260206004820152600f60248201527f6e6f206f6e676f696e6720766f7465000000000000000000000000000000000060448201526064016104eb565b600a805460009190610fc3906001906129bb565b81548110610fd357610fd36129ce565b60009182526020909120600790910201600581015490915060ff1661107f57428160040154106110455760405162461bcd60e51b815260206004820152601260248201527f766f7465207374696c6c206f6e676f696e67000000000000000000000000000060448201526064016104eb565b6005810180544260048401554360068401557fffffffffffffffffffffffffffffffffffffffffffffffffffff0000000000001660011790555b600581015465010000000000900460ff16156110dd5760405162461bcd60e51b815260206004820152601660248201527f766f746520616c72656164792066696e616c697a65640000000000000000000060448201526064016104eb565b6110e682611424565b600581015465010000000000900460ff16156113035780546000908152600c60205260408120905b60065481101561123c57600060015b60095481101561118d576008828154811061113a5761113a6129ce565b9060005260206000209060020201600101546008828154811061115f5761115f6129ce565b906000526020600020906002020160010154111561117b578091505b8061118581612cd0565b91505061111d565b50600881815481106111a1576111a16129ce565b9060005260206000209060020201600101546000036111c0575061123c565b82600882815481106111d4576111d46129ce565b6000918252602080832084546001810186559484529220909201916111ff9160029091020182612d08565b50600060088281548110611215576112156129ce565b6000918252602090912060016002909202010155508061123481612cd0565b91505061110e565b506002546040517fd62879f100000000000000000000000000000000000000000000000000000000815273ffffffffffffffffffffffffffffffffffffffff9091169063d62879f190611293908490600401612eb2565b600060405180830381600087803b1580156112ad57600080fd5b505af11580156112c1573d6000803e3d6000fd5b5050600060098190556112d89250600891506125a8565b6040517f0b4fdfa0ecb155e553b7e0a3dabc266f9e01e6f79c154cce531d322df1a1d40590600090a1505b5050565b600a818154811061131757600080fd5b600091825260209091206007909102018054600182015460028301546003840154600485015460058601546006909601549496509294919390929160ff8082169263ffffffff610100840416926501000000000090049091169089565b61137c612084565b6001805473ffffffffffffffffffffffffffffffffffffffff83167fffffffffffffffffffffffff000000000000000000000000000000000000000090911681179091556113df60005473ffffffffffffffffffffffffffffffffffffffff1690565b73ffffffffffffffffffffffffffffffffffffffff167f38d16b8cac22d99fc7c124b9cd0de2d3fa1faef420bfe791d8c362d765e2270060405160405180910390a350565b600a805460009190611438906001906129bb565b81548110611448576114486129ce565b60009182526020808320600790920290910180548352600b909152604090912060058201548154929350909161148a9163ffffffff61010090910416906129bb565b8363ffffffff1611156115055760405162461bcd60e51b815260206004820152602260248201527f6c696d69742069732067726561746572207468616e20766f746573206c656e6760448201527f746800000000000000000000000000000000000000000000000000000000000060648201526084016104eb565b6005820154439060ff161561151b575060068201545b60005b8463ffffffff168163ffffffff1610156119375760058401546000908490611552908490610100900463ffffffff16612cac565b63ffffffff1681548110611568576115686129ce565b600091825260209091206003918202016002810154915481546040517f4ee2cd7e00000000000000000000000000000000000000000000000000000000815273ffffffffffffffffffffffffffffffffffffffff9182166004820152602481018890529294501690634ee2cd7e90604401602060405180830381865afa1580156115f6573d6000803e3d6000fd5b505050506040513d601f19601f8201168201806040525081019061161a9190612a66565b101561167a5780546040517f0218de22dd683f05a68dde5feefca4c25fbc0f66a72b8130b56d1bf658743c799161166c91600185019173ffffffffffffffffffffffffffffffffffffffff1690612f36565b60405180910390a150611925565b6000805b600954811015611828576117ca83600101805461169a90612ad1565b80601f01602080910402602001604051908101604052809291908181526020018280546116c690612ad1565b80156117135780601f106116e857610100808354040283529160200191611713565b820191906000526020600020905b8154815290600101906020018083116116f657829003601f168201915b50505050506008838154811061172b5761172b6129ce565b9060005260206000209060020201600001805461174790612ad1565b80601f016020809104026020016040519081016040528092919081815260200182805461177390612ad1565b80156117c05780601f10611795576101008083540402835291602001916117c0565b820191906000526020600020905b8154815290600101906020018083116117a357829003601f168201915b5050505050611fc2565b15611816578260020154600882815481106117e7576117e76129ce565b906000526020600020906002020160010160008282546118079190612a7f565b90915550600192506118289050565b8061182081612cd0565b91505061167e565b5080611922576008604051806040016040528084600101805461184a90612ad1565b80601f016020809104026020016040519081016040528092919081815260200182805461187690612ad1565b80156118c35780601f10611898576101008083540402835291602001916118c3565b820191906000526020600020905b8154815290600101906020018083116118a657829003601f168201915b505050918352505060028086015460209283015283546001810185556000948552919093208251929391909102019081906118fe9082612b72565b50602091909101516001909101556009805490600061191c83612cd0565b91905055505b50505b8061192f81612f6e565b91505061151e565b808460050160018282829054906101000a900463ffffffff1661195a9190612cac565b825463ffffffff91821661010093840a908102908302199091161790925585546005880154919091049091160390506119c0576005840180547fffffffffffffffffffffffffffffffffffffffffffffffffffff00ffffffffff16650100000000001790555b5050505050565b60006119d28261211c565b611a30577f16001116460b717e935c4a79fd9e1d99bc9559981bbdfe6da8a8f3cd240e8161611a046020840184612f91565b611a116020860186612847565b604051611a2093929190612ff6565b60405180910390a1506000919050565b60025473ffffffffffffffffffffffffffffffffffffffff1663b3dbb52a611a5b6020850185612f91565b6040518363ffffffff1660e01b8152600401611a78929190612a28565b602060405180830381865afa158015611a95573d6000803e3d6000fd5b505050506040513d601f19601f82011682018060405250810190611ab99190612a44565b611aeb577f5ead04d5bcfd9db10275637895e9c86a4c18418cfd7cb5375abc5ff7b03de112611a046020840184612f91565b611afb6101e16020840184612f91565b15611b2e577f6ec68e8d215eacdcace684f5941d240b9b8ae3452184fab8c3a06eaad120edc9611a046020840184612f91565b600a805460009190611b42906001906129bb565b81548110611b5257611b526129ce565b9060005260206000209060070201905080600401544210611bb55760405162461bcd60e51b815260206004820152600b60248201527f766f746520636c6f73656400000000000000000000000000000000000000000060448201526064016104eb565b600581015460ff1615611c0a5760405162461bcd60e51b815260206004820152600e60248201527f726f6f6d2066696e616c697a656400000000000000000000000000000000000060448201526064016104eb565b8060030154836060013510611c615760405162461bcd60e51b815260206004820152601660248201527f696e76616c696420766f74652074696d657374616d700000000000000000000060448201526064016104eb565b806002015483606001351015611cb95760405162461bcd60e51b815260206004820152601660248201527f696e76616c696420766f74652074696d657374616d700000000000000000000060448201526064016104eb565b80546000908152600d6020908152604090912090611cd990850185612f91565b604051611ce7929190612a92565b90815260200160405180910390206000846000016020810190611d0a9190612847565b73ffffffffffffffffffffffffffffffffffffffff16815260208101919091526040016000205460ff1615611d94577f85c200189b053fd138c5722db986f1b268ad5058ea51960ec3662e5c124140fa611d676020850185612f91565b611d746020870187612847565b604051611d8393929190612ff6565b60405180910390a150600092915050565b80546000908152600d60209081526040909120600191611db690860186612f91565b604051611dc4929190612a92565b90815260200160405180910390206000856000016020810190611de79190612847565b73ffffffffffffffffffffffffffffffffffffffff1681526020808201929092526040908101600090812080547fffffffffffffffffffffffffffffffffffffffffffffffffffffffffffffff00169415159490941790935583548352600b82529182902082516060810190935291908190611e6590870187612847565b73ffffffffffffffffffffffffffffffffffffffff168152602001858060200190611e909190612f91565b8080601f0160208091040260200160405190810160405280939291908181526020018383808284376000920182905250938552505050604087013560209283015283546001808201865594825290829020835160039092020180547fffffffffffffffffffffffff00000000000000000000000000000000000000001673ffffffffffffffffffffffffffffffffffffffff909216919091178155908201519192909190820190611f419082612b72565b50604091909101516002909101557f5fe392585cc663ee634772bae3b95aa7aa9a6d647c41ade0b9c1f8c48e74077c611f7d6020850185612f91565b611f8a6020870187612847565b604051611f9993929190612ff6565b60405180910390a150600192915050565b6000818310611fb95781611fbb565b825b9392505050565b60008151835114611fd557506000610d2b565b60005b835181101561207a57828181518110611ff357611ff36129ce565b602001015160f81c60f81b7effffffffffffffffffffffffffffffffffffffffffffffffffffffffffffff1916848281518110612032576120326129ce565b01602001517fff000000000000000000000000000000000000000000000000000000000000001614612068576000915050610d2b565b8061207281612cd0565b915050611fd8565b5060019392505050565b60005473ffffffffffffffffffffffffffffffffffffffff163314610d925760405162461bcd60e51b815260206004820181905260248201527f4f776e61626c653a2063616c6c6572206973206e6f7420746865206f776e657260448201526064016104eb565b600180547fffffffffffffffffffffffff0000000000000000000000000000000000000000169055610e2c816121d1565b600080600e5461212b84612246565b6040517f190100000000000000000000000000000000000000000000000000000000000060208201526022810192909252604282015260620160408051601f198184030181529190528051602091820120915061218a90840184612847565b73ffffffffffffffffffffffffffffffffffffffff166121b382608086013560a08701356122fa565b73ffffffffffffffffffffffffffffffffffffffff16149392505050565b6000805473ffffffffffffffffffffffffffffffffffffffff8381167fffffffffffffffffffffffff0000000000000000000000000000000000000000831681178455604051919092169283917f8be0079c531659141344cd1fd0a4f28419497f9722a3daafe3b4186f6b6457e09190a35050565b60007fc61be5868a517c2688d120fb5bc4073a1804e9a9b307218e2701647bf86f4c726122766020840184612847565b6122836020850185612f91565b604051612291929190612a92565b60408051918290038220602083019490945273ffffffffffffffffffffffffffffffffffffffff909216818301526060808201939093529084013560808201529083013560a082015260c001604051602081830303815290604052805190602001209050919050565b600080600061230a868686612320565b9150915061231781612372565b50949350505050565b6000807f7fffffffffffffffffffffffffffffffffffffffffffffffffffffffffffffff83168161235660ff86901c601b612a7f565b9050612364878288856124d7565b935093505050935093915050565b600081600481111561238657612386613030565b0361238e5750565b60018160048111156123a2576123a2613030565b036123ef5760405162461bcd60e51b815260206004820152601860248201527f45434453413a20696e76616c6964207369676e6174757265000000000000000060448201526064016104eb565b600281600481111561240357612403613030565b036124505760405162461bcd60e51b815260206004820152601f60248201527f45434453413a20696e76616c6964207369676e6174757265206c656e6774680060448201526064016104eb565b600381600481111561246457612464613030565b03610e2c5760405162461bcd60e51b815260206004820152602260248201527f45434453413a20696e76616c6964207369676e6174757265202773272076616c60448201527f756500000000000000000000000000000000000000000000000000000000000060648201526084016104eb565b6000807f7fffffffffffffffffffffffffffffff5d576e7357a4501ddfe92f46681b20a083111561250e575060009050600361259f565b6040805160008082526020820180845289905260ff881692820192909252606081018690526080810185905260019060a0016020604051602081039080840390855afa158015612562573d6000803e3d6000fd5b5050604051601f19015191505073ffffffffffffffffffffffffffffffffffffffff81166125985760006001925092505061259f565b9150600090505b94509492505050565b5080546000825560020290600052602060002090810190610e2c91905b808211156125e95760006125d982826125ed565b50600060018201556002016125c5565b5090565b5080546125f990612ad1565b6000825580601f10612609575050565b601f016020900490600052602060002090810190610e2c91905b808211156125e95760008155600101612623565b602080825282518282018190526000919060409081850190868401855b828110156126cc5781518051855286810151878601528581015186860152606080820151908601526080808201519086015260a08082015115159086015260c08082015163ffffffff169086015260e08082015115159086015261010090810151908501526101209093019290850190600101612654565b5091979650505050505050565b60008083601f8401126126eb57600080fd5b50813567ffffffffffffffff81111561270357600080fd5b60208301915083602082850101111561271b57600080fd5b9250929050565b60008060006040848603121561273757600080fd5b833567ffffffffffffffff81111561274e57600080fd5b61275a868287016126d9565b909790965060209590950135949350505050565b6000806020838503121561278157600080fd5b823567ffffffffffffffff8082111561279957600080fd5b818501915085601f8301126127ad57600080fd5b8135818111156127bc57600080fd5b8660208260051b85010111156127d157600080fd5b60209290920196919550909350505050565b600080602083850312156127f657600080fd5b823567ffffffffffffffff81111561280d57600080fd5b612819858286016126d9565b90969095509350505050565b73ffffffffffffffffffffffffffffffffffffffff81168114610e2c57600080fd5b60006020828403121561285957600080fd5b8135611fbb81612825565b60006020828403121561287657600080fd5b5035919050565b60006020808301818452808551808352604092508286019150828160051b8701018488016000805b84811015612957577fffffffffffffffffffffffffffffffffffffffffffffffffffffffffffffffc08a85030186528251606073ffffffffffffffffffffffffffffffffffffffff825116865289820151818b880152805180838901528592505b80831015612924578183018c015188840160800152918b0191612906565b8781016080908101879052938b01518b890152988b0198601f01601f1916909601909101945050918701916001016128a5565b50919998505050505050505050565b60006020828403121561297857600080fd5b813563ffffffff81168114611fbb57600080fd5b7f4e487b7100000000000000000000000000000000000000000000000000000000600052601160045260246000fd5b81810381811115610d2b57610d2b61298c565b7f4e487b7100000000000000000000000000000000000000000000000000000000600052603260045260246000fd5b818352818160208501375060006020828401015260006020601f19601f840116840101905092915050565b602081526000612a3c6020830184866129fd565b949350505050565b600060208284031215612a5657600080fd5b81518015158114611fbb57600080fd5b600060208284031215612a7857600080fd5b5051919050565b80820180821115610d2b57610d2b61298c565b8183823760009101908152919050565b7f4e487b7100000000000000000000000000000000000000000000000000000000600052604160045260246000fd5b600181811c90821680612ae557607f821691505b602082108103612b1e577f4e487b7100000000000000000000000000000000000000000000000000000000600052602260045260246000fd5b50919050565b601f821115610b1857600081815260208120601f850160051c81016020861015612b4b5750805b601f850160051c820191505b81811015612b6a57828155600101612b57565b505050505050565b815167ffffffffffffffff811115612b8c57612b8c612aa2565b612ba081612b9a8454612ad1565b84612b24565b602080601f831160018114612bf35760008415612bbd5750858301515b7fffffffffffffffffffffffffffffffffffffffffffffffffffffffffffffffff600386901b1c1916600185901b178555612b6a565b600085815260208120601f198616915b82811015612c2257888601518255948401946001909101908401612c03565b5085821015612c5e57878501517fffffffffffffffffffffffffffffffffffffffffffffffffffffffffffffffff600388901b60f8161c191681555b5050505050600190811b01905550565b600082357fffffffffffffffffffffffffffffffffffffffffffffffffffffffffffffff41833603018112612ca257600080fd5b9190910192915050565b63ffffffff818116838216019080821115612cc957612cc961298c565b5092915050565b60007fffffffffffffffffffffffffffffffffffffffffffffffffffffffffffffffff8203612d0157612d0161298c565b5060010190565b818103612d13575050565b612d1d8254612ad1565b67ffffffffffffffff811115612d3557612d35612aa2565b612d4381612b9a8454612ad1565b6000601f821160018114612d955760008315612d5f5750848201545b7fffffffffffffffffffffffffffffffffffffffffffffffffffffffffffffffff600385901b1c1916600184901b1784556119c0565b600085815260209020601f19841690600086815260209020845b83811015612dcf5782860154825560019586019590910190602001612daf565b5085831015612c5e579301547fffffffffffffffffffffffffffffffffffffffffffffffffffffffffffffffff60f8600387901b161c19169092555050600190811b01905550565b60008154612e2481612ad1565b808552602060018381168015612e415760018114612e7957612ea7565b7fffffffffffffffffffffffffffffffffffffffffffffffffffffffffffffff008516838901528284151560051b8901019550612ea7565b866000528260002060005b85811015612e9f5781548a8201860152908301908401612e84565b890184019650505b505050505092915050565b6000602080830181845280855480835260408601915060408160051b8701019250866000528360002060005b82811015612f29577fffffffffffffffffffffffffffffffffffffffffffffffffffffffffffffffc0888603018452612f178583612e17565b94509285019260019182019101612ede565b5092979650505050505050565b604081526000612f496040830185612e17565b905073ffffffffffffffffffffffffffffffffffffffff831660208301529392505050565b600063ffffffff808316818103612f8757612f8761298c565b6001019392505050565b60008083357fffffffffffffffffffffffffffffffffffffffffffffffffffffffffffffffe1843603018112612fc657600080fd5b83018035915067ffffffffffffffff821115612fe157600080fd5b60200191503681900382131561271b57600080fd5b60408152600061300a6040830185876129fd565b905073ffffffffffffffffffffffffffffffffffffffff83166020830152949350505050565b7f4e487b7100000000000000000000000000000000000000000000000000000000600052602160045260246000fd",
    "linkReferences": {}
  },
  "methodIdentifiers": {
    "VOTE_TYPEHASH()": "86522973",
    "acceptOwnership()": "79ba5097",
    "castVotes((address,bytes,uint256,uint256,bytes32,bytes32)[])": "349071c2",
    "cooldownPeriod()": "04646a49",
    "directory()": "c41c2f24",
    "featuredPerVotingCount()": "6e571332",
    "finalizeVoting(uint32)": "a1673341",
    "getVotesByVotingId(uint256)": "80e0111e",
    "getVotings()": "05c1112d",
    "initializeVoting(bytes,uint256)": "2d0e9c28",
    "isInCooldownPeriod(bytes)": "6c265f9d",
    "owner()": "8da5cb5b",
    "pendingOwner()": "e30c3978",
    "renounceOwnership()": "715018a6",
    "setDirectory(address)": "6e91818a",
    "token()": "fc0c546a",
    "transferOwnership(address)": "f2fde38b",
    "votingLength()": "0a64522f",
    "votingVerificationLength()": "ff9bd048",
    "votings(uint256)": "a598d03c"
  },
  "id": 1
}